{
  "contractName": "CompoundInterestCalculator",
  "abi": [
    {
      "inputs": [
        {
          "internalType": "uint256",
          "name": "_principal",
          "type": "uint256"
        },
        {
          "internalType": "uint256",
          "name": "_rate",
          "type": "uint256"
        },
        {
          "internalType": "uint256",
          "name": "_time",
          "type": "uint256"
        },
        {
          "internalType": "uint256",
          "name": "_n",
          "type": "uint256"
        }
      ],
      "name": "calculateCompoundInterest",
      "outputs": [
        {
          "internalType": "uint256",
          "name": "",
          "type": "uint256"
        }
      ],
      "stateMutability": "pure",
      "type": "function",
      "constant": true
    }
  ],
  "bytecode": "0x608060405234801561001057600080fd5b506106ec806100206000396000f3fe608060405234801561001057600080fd5b506004361061002b5760003560e01c8063d59a23b914610030575b600080fd5b61004a600480360381019061004591906102ad565b610060565b60405161005791906104c5565b60405180910390f35b60008085116100a4576040517f08c379a000000000000000000000000000000000000000000000000000000000815260040161009b90610485565b60405180910390fd5b600084116100e7576040517f08c379a00000000000000000000000000000000000000000000000000000000081526004016100de90610445565b60405180910390fd5b6000831161012a576040517f08c379a000000000000000000000000000000000000000000000000000000000815260040161012190610465565b60405180910390fd5b6000821161016d576040517f08c379a0000000000000000000000000000000000000000000000000000000008152600401610164906104a5565b60405180910390fd5b600082606461017c9190610578565b670de0b6b3a7640000866101909190610578565b61019a9190610547565b670de0b6b3a76400006101ad91906104f1565b9050600084846101bd9190610578565b90506000670de0b6b3a76400006101d4848461020a565b896101df9190610578565b6101e99190610547565b9050600088826101f991906105d2565b905080945050505050949350505050565b600080670de0b6b3a764000090505b600083111561028e5760016002846102319190610610565b141561025957670de0b6b3a7640000848261024c9190610578565b6102569190610547565b90505b670de0b6b3a7640000848561026e9190610578565b6102789190610547565b93506002836102879190610547565b9250610219565b8091505092915050565b6000813590506102a78161069f565b92915050565b600080600080608085870312156102c357600080fd5b60006102d187828801610298565b94505060206102e287828801610298565b93505060406102f387828801610298565b925050606061030487828801610298565b91505092959194509250565b600061031d601b836104e0565b91507f52617465206d7573742062652067726561746572207468616e203000000000006000830152602082019050919050565b600061035d601b836104e0565b91507f54696d65206d7573742062652067726561746572207468616e203000000000006000830152602082019050919050565b600061039d6020836104e0565b91507f5072696e636970616c206d7573742062652067726561746572207468616e20306000830152602082019050919050565b60006103dd6037836104e0565b91507f4e756d626572206f662074696d657320696e746572657374206170706c69656460008301527f206d7573742062652067726561746572207468616e20300000000000000000006020830152604082019050919050565b61043f81610606565b82525050565b6000602082019050818103600083015261045e81610310565b9050919050565b6000602082019050818103600083015261047e81610350565b9050919050565b6000602082019050818103600083015261049e81610390565b9050919050565b600060208201905081810360008301526104be816103d0565b9050919050565b60006020820190506104da6000830184610436565b92915050565b600082825260208201905092915050565b60006104fc82610606565b915061050783610606565b9250827fffffffffffffffffffffffffffffffffffffffffffffffffffffffffffffffff0382111561053c5761053b610641565b5b828201905092915050565b600061055282610606565b915061055d83610606565b92508261056d5761056c610670565b5b828204905092915050565b600061058382610606565b915061058e83610606565b9250817fffffffffffffffffffffffffffffffffffffffffffffffffffffffffffffffff04831182151516156105c7576105c6610641565b5b828202905092915050565b60006105dd82610606565b91506105e883610606565b9250828210156105fb576105fa610641565b5b828203905092915050565b6000819050919050565b600061061b82610606565b915061062683610606565b92508261063657610635610670565b5b828206905092915050565b7f4e487b7100000000000000000000000000000000000000000000000000000000600052601160045260246000fd5b7f4e487b7100000000000000000000000000000000000000000000000000000000600052601260045260246000fd5b6106a881610606565b81146106b357600080fd5b5056fea2646970667358221220a185180d86e834b22e57a215049c1d5c462c55add90f2a7554ab3afdb17dd60b64736f6c63430008000033",
  "immutableReferences": {},
  "source": "// SPDX-License-Identifier: MIT\r\npragma solidity ^0.8.0;\r\n\r\ncontract CompoundInterestCalculator {\r\n\r\n    function calculateCompoundInterest(\r\n        uint256 _principal,\r\n        uint256 _rate,\r\n        uint256 _time,\r\n        uint256 _n\r\n    ) public pure returns (uint256) {\r\n        require(_principal > 0, \"Principal must be greater than 0\");\r\n        require(_rate > 0, \"Rate must be greater than 0\");\r\n        require(_time > 0, \"Time must be greater than 0\");\r\n        require(_n > 0, \"Number of times interest applied must be greater than 0\");\r\n\r\n        uint256 base = (1e18 + (_rate * 1e18 / (100 * _n))); \r\n        uint256 exponent = _n * _time;\r\n\r\n        uint256 amount = (_principal * power(base, exponent)) / 1e18;\r\n        uint256 compoundInterest = amount - _principal;\r\n\r\n        return compoundInterest;\r\n    }\r\n\r\n    function power(uint256 base, uint256 exponent) internal pure returns (uint256) {\r\n        uint256 result = 1e18; // Start with 1 (in 18 decimal precision)\r\n\r\n        while (exponent > 0) {\r\n            if (exponent % 2 == 1) {\r\n                result = (result * base) / 1e18; // Multiply and maintain precision\r\n            }\r\n            base = (base * base) / 1e18; // Square the base and maintain precision\r\n            exponent /= 2; // Divide exponent by 2\r\n        }\r\n\r\n        return result;\r\n    }\r\n}",
  "sourcePath": "C:\\Users\\dhruv\\OneDrive\\Desktop\\blockchain-toolkit\\contracts\\CompoundIntrestCalculator.sol",
  "compiler": {
    "name": "solc",
    "version": "0.8.0+commit.c7dfd78e.Emscripten.clang"
  },
  "schemaVersion": "3.4.16",
  "updatedAt": "2024-10-28T00:11:48.316Z",
  "networkType": "ethereum",
  "devdoc": {
    "kind": "dev",
    "methods": {},
    "version": 1
  },
  "userdoc": {
    "kind": "user",
    "methods": {},
    "version": 1
  }
}