{
  "contractName": "SimpleBank",
  "abi": [
    {
      "inputs": [],
      "stateMutability": "nonpayable",
      "type": "constructor"
    },
    {
      "inputs": [
        {
          "internalType": "uint256",
          "name": "amount",
          "type": "uint256"
        }
      ],
      "name": "addAmount",
      "outputs": [],
      "stateMutability": "nonpayable",
      "type": "function"
    },
    {
      "inputs": [
        {
          "internalType": "uint256",
          "name": "amount",
          "type": "uint256"
        }
      ],
      "name": "withdrawAmount",
      "outputs": [],
      "stateMutability": "nonpayable",
      "type": "function"
    },
    {
      "inputs": [],
      "name": "checkBalance",
      "outputs": [
        {
          "internalType": "uint256",
          "name": "",
          "type": "uint256"
        }
      ],
      "stateMutability": "view",
      "type": "function"
    }
  ],
  "bytecode": "0x608060405234801561001057600080fd5b5060008081905550610309806100276000396000f3fe608060405234801561001057600080fd5b50600436106100415760003560e01c80630562b9f7146100465780630912f23214610062578063c71daccb1461007e575b600080fd5b610060600480360381019061005b9190610135565b61009c565b005b61007c60048036038101906100779190610135565b6100fc565b005b610086610117565b60405161009391906101cd565b60405180910390f35b6000548111156100e1576040517f08c379a00000000000000000000000000000000000000000000000000000000081526004016100d8906101ad565b60405180910390fd5b806000808282546100f2919061024f565b9250508190555050565b8060008082825461010d91906101f9565b9250508190555050565b60008054905090565b60008135905061012f816102bc565b92915050565b60006020828403121561014757600080fd5b600061015584828501610120565b91505092915050565b600061016b6014836101e8565b91507f496e73756666696369656e742062616c616e63650000000000000000000000006000830152602082019050919050565b6101a781610283565b82525050565b600060208201905081810360008301526101c68161015e565b9050919050565b60006020820190506101e2600083018461019e565b92915050565b600082825260208201905092915050565b600061020482610283565b915061020f83610283565b9250827fffffffffffffffffffffffffffffffffffffffffffffffffffffffffffffffff038211156102445761024361028d565b5b828201905092915050565b600061025a82610283565b915061026583610283565b9250828210156102785761027761028d565b5b828203905092915050565b6000819050919050565b7f4e487b7100000000000000000000000000000000000000000000000000000000600052601160045260246000fd5b6102c581610283565b81146102d057600080fd5b5056fea264697066735822122009d09cec793470db38fb8c2451c3c925d52de5a34044cefa0f7cec8c5d6dd5f964736f6c63430008000033",
  "immutableReferences": {},
  "source": "// SPDX-License-Identifier: MIT\r\n\r\npragma solidity >=0.5.16;\r\ncontract SimpleBank { \r\n    // State variable to store the balance \r\n    uint256 private balance; \r\n    // Constructor to ini alize balance \r\n    constructor () public { \r\n        balance = 0; \r\n    } \r\n    // Func on to add (deposit) amount to the balance \r\n    function addAmount(uint256 amount) public { \r\n        balance += amount; \r\n    } \r\n    // Func on to withdraw amount from the balance \r\n    function withdrawAmount(uint256 amount) public { \r\n        require(amount <= balance, \"Insufficient balance\"); \r\n        balance -= amount; \r\n    } \r\n    // Func on to check the remaining balance \r\n    function checkBalance() public view returns (uint256) { \r\n        return balance; \r\n    } \r\n} ",
  "sourcePath": "C:\\Users\\dhruv\\OneDrive\\Desktop\\blockchain-toolkit\\contracts\\BankingSystem.sol",
  "compiler": {
    "name": "solc",
    "version": "0.8.0+commit.c7dfd78e.Emscripten.clang"
  },
  "schemaVersion": "3.4.16",
  "updatedAt": "2024-10-28T00:06:13.143Z",
  "devdoc": {
    "kind": "dev",
    "methods": {},
    "version": 1
  },
  "userdoc": {
    "kind": "user",
    "methods": {},
    "version": 1
  }
}