{
	"contracts/Practicals/AssertRever.sol": {
		"AssertRevert": {
			"abi": [
				{
					"inputs": [
						{
							"internalType": "uint256",
							"name": "_number",
							"type": "uint256"
						}
					],
					"name": "checkEven",
					"outputs": [],
					"stateMutability": "pure",
					"type": "function"
				}
			],
			"devdoc": {
				"kind": "dev",
				"methods": {},
				"version": 1
			},
			"evm": {
				"assembly": "    /* \"contracts/Practicals/AssertRever.sol\":70:272  contract AssertRevert {... */\n  mstore(0x40, 0x80)\n  callvalue\n  dup1\n  iszero\n  tag_1\n  jumpi\n  0x00\n  dup1\n  revert\ntag_1:\n  pop\n  dataSize(sub_0)\n  dup1\n  dataOffset(sub_0)\n  0x00\n  codecopy\n  0x00\n  return\nstop\n\nsub_0: assembly {\n        /* \"contracts/Practicals/AssertRever.sol\":70:272  contract AssertRevert {... */\n      mstore(0x40, 0x80)\n      callvalue\n      dup1\n      iszero\n      tag_1\n      jumpi\n      0x00\n      dup1\n      revert\n    tag_1:\n      pop\n      jumpi(tag_2, lt(calldatasize, 0x04))\n      shr(0xe0, calldataload(0x00))\n      dup1\n      0x6ffb5c0a\n      eq\n      tag_3\n      jumpi\n    tag_2:\n      0x00\n      dup1\n      revert\n        /* \"contracts/Practicals/AssertRever.sol\":99:269  function checkEven(uint256 _number) public pure {... */\n    tag_3:\n      tag_4\n      0x04\n      dup1\n      calldatasize\n      sub\n      dup2\n      add\n      swap1\n      tag_5\n      swap2\n      swap1\n      tag_6\n      jump\t// in\n    tag_5:\n      tag_7\n      jump\t// in\n    tag_4:\n      stop\n    tag_7:\n        /* \"contracts/Practicals/AssertRever.sol\":176:177  0 */\n      0x00\n        /* \"contracts/Practicals/AssertRever.sol\":173:174  2 */\n      0x02\n        /* \"contracts/Practicals/AssertRever.sol\":165:172  _number */\n      dup3\n        /* \"contracts/Practicals/AssertRever.sol\":165:174  _number%2 */\n      tag_9\n      swap2\n      swap1\n      tag_10\n      jump\t// in\n    tag_9:\n        /* \"contracts/Practicals/AssertRever.sol\":165:177  _number%2==0 */\n      eq\n        /* \"contracts/Practicals/AssertRever.sol\":158:178  assert(_number%2==0) */\n      tag_11\n      jumpi\n      tag_12\n      tag_13\n      jump\t// in\n    tag_12:\n    tag_11:\n        /* \"contracts/Practicals/AssertRever.sol\":208:209  0 */\n      0x00\n        /* \"contracts/Practicals/AssertRever.sol\":203:204  2 */\n      0x02\n        /* \"contracts/Practicals/AssertRever.sol\":193:200  _number */\n      dup3\n        /* \"contracts/Practicals/AssertRever.sol\":193:204  _number % 2 */\n      tag_14\n      swap2\n      swap1\n      tag_10\n      jump\t// in\n    tag_14:\n        /* \"contracts/Practicals/AssertRever.sol\":193:209  _number % 2 == 0 */\n      sub\n        /* \"contracts/Practicals/AssertRever.sol\":189:262  if (_number % 2 == 0) {... */\n      tag_15\n      jumpi\n        /* \"contracts/Practicals/AssertRever.sol\":226:250  revert(\"Number is Even\") */\n      mload(0x40)\n      0x08c379a000000000000000000000000000000000000000000000000000000000\n      dup2\n      mstore\n      0x04\n      add\n      tag_16\n      swap1\n      tag_17\n      jump\t// in\n    tag_16:\n      mload(0x40)\n      dup1\n      swap2\n      sub\n      swap1\n      revert\n        /* \"contracts/Practicals/AssertRever.sol\":189:262  if (_number % 2 == 0) {... */\n    tag_15:\n        /* \"contracts/Practicals/AssertRever.sol\":99:269  function checkEven(uint256 _number) public pure {... */\n      pop\n      jump\t// out\n        /* \"#utility.yul\":88:205   */\n    tag_19:\n        /* \"#utility.yul\":197:198   */\n      0x00\n        /* \"#utility.yul\":194:195   */\n      dup1\n        /* \"#utility.yul\":187:199   */\n      revert\n        /* \"#utility.yul\":334:411   */\n    tag_21:\n        /* \"#utility.yul\":371:378   */\n      0x00\n        /* \"#utility.yul\":400:405   */\n      dup2\n        /* \"#utility.yul\":389:405   */\n      swap1\n      pop\n        /* \"#utility.yul\":334:411   */\n      swap2\n      swap1\n      pop\n      jump\t// out\n        /* \"#utility.yul\":417:539   */\n    tag_22:\n        /* \"#utility.yul\":490:514   */\n      tag_34\n        /* \"#utility.yul\":508:513   */\n      dup2\n        /* \"#utility.yul\":490:514   */\n      tag_21\n      jump\t// in\n    tag_34:\n        /* \"#utility.yul\":483:488   */\n      dup2\n        /* \"#utility.yul\":480:515   */\n      eq\n        /* \"#utility.yul\":470:533   */\n      tag_35\n      jumpi\n        /* \"#utility.yul\":529:530   */\n      0x00\n        /* \"#utility.yul\":526:527   */\n      dup1\n        /* \"#utility.yul\":519:531   */\n      revert\n        /* \"#utility.yul\":470:533   */\n    tag_35:\n        /* \"#utility.yul\":417:539   */\n      pop\n      jump\t// out\n        /* \"#utility.yul\":545:684   */\n    tag_23:\n        /* \"#utility.yul\":591:596   */\n      0x00\n        /* \"#utility.yul\":629:635   */\n      dup2\n        /* \"#utility.yul\":616:636   */\n      calldataload\n        /* \"#utility.yul\":607:636   */\n      swap1\n      pop\n        /* \"#utility.yul\":645:678   */\n      tag_37\n        /* \"#utility.yul\":672:677   */\n      dup2\n        /* \"#utility.yul\":645:678   */\n      tag_22\n      jump\t// in\n    tag_37:\n        /* \"#utility.yul\":545:684   */\n      swap3\n      swap2\n      pop\n      pop\n      jump\t// out\n        /* \"#utility.yul\":690:1019   */\n    tag_6:\n        /* \"#utility.yul\":749:755   */\n      0x00\n        /* \"#utility.yul\":798:800   */\n      0x20\n        /* \"#utility.yul\":786:795   */\n      dup3\n        /* \"#utility.yul\":777:784   */\n      dup5\n        /* \"#utility.yul\":773:796   */\n      sub\n        /* \"#utility.yul\":769:801   */\n      slt\n        /* \"#utility.yul\":766:885   */\n      iszero\n      tag_39\n      jumpi\n        /* \"#utility.yul\":804:883   */\n      tag_40\n      tag_19\n      jump\t// in\n    tag_40:\n        /* \"#utility.yul\":766:885   */\n    tag_39:\n        /* \"#utility.yul\":924:925   */\n      0x00\n        /* \"#utility.yul\":949:1002   */\n      tag_41\n        /* \"#utility.yul\":994:1001   */\n      dup5\n        /* \"#utility.yul\":985:991   */\n      dup3\n        /* \"#utility.yul\":974:983   */\n      dup6\n        /* \"#utility.yul\":970:992   */\n      add\n        /* \"#utility.yul\":949:1002   */\n      tag_23\n      jump\t// in\n    tag_41:\n        /* \"#utility.yul\":939:1002   */\n      swap2\n      pop\n        /* \"#utility.yul\":895:1012   */\n      pop\n        /* \"#utility.yul\":690:1019   */\n      swap3\n      swap2\n      pop\n      pop\n      jump\t// out\n        /* \"#utility.yul\":1025:1205   */\n    tag_24:\n        /* \"#utility.yul\":1073:1150   */\n      0x4e487b7100000000000000000000000000000000000000000000000000000000\n        /* \"#utility.yul\":1070:1071   */\n      0x00\n        /* \"#utility.yul\":1063:1151   */\n      mstore\n        /* \"#utility.yul\":1170:1174   */\n      0x12\n        /* \"#utility.yul\":1167:1168   */\n      0x04\n        /* \"#utility.yul\":1160:1175   */\n      mstore\n        /* \"#utility.yul\":1194:1198   */\n      0x24\n        /* \"#utility.yul\":1191:1192   */\n      0x00\n        /* \"#utility.yul\":1184:1199   */\n      revert\n        /* \"#utility.yul\":1211:1387   */\n    tag_10:\n        /* \"#utility.yul\":1243:1244   */\n      0x00\n        /* \"#utility.yul\":1260:1280   */\n      tag_44\n        /* \"#utility.yul\":1278:1279   */\n      dup3\n        /* \"#utility.yul\":1260:1280   */\n      tag_21\n      jump\t// in\n    tag_44:\n        /* \"#utility.yul\":1255:1280   */\n      swap2\n      pop\n        /* \"#utility.yul\":1294:1314   */\n      tag_45\n        /* \"#utility.yul\":1312:1313   */\n      dup4\n        /* \"#utility.yul\":1294:1314   */\n      tag_21\n      jump\t// in\n    tag_45:\n        /* \"#utility.yul\":1289:1314   */\n      swap3\n      pop\n        /* \"#utility.yul\":1333:1334   */\n      dup3\n        /* \"#utility.yul\":1323:1358   */\n      tag_46\n      jumpi\n        /* \"#utility.yul\":1338:1356   */\n      tag_47\n      tag_24\n      jump\t// in\n    tag_47:\n        /* \"#utility.yul\":1323:1358   */\n    tag_46:\n        /* \"#utility.yul\":1379:1380   */\n      dup3\n        /* \"#utility.yul\":1376:1377   */\n      dup3\n        /* \"#utility.yul\":1372:1381   */\n      mod\n        /* \"#utility.yul\":1367:1381   */\n      swap1\n      pop\n        /* \"#utility.yul\":1211:1387   */\n      swap3\n      swap2\n      pop\n      pop\n      jump\t// out\n        /* \"#utility.yul\":1393:1573   */\n    tag_13:\n        /* \"#utility.yul\":1441:1518   */\n      0x4e487b7100000000000000000000000000000000000000000000000000000000\n        /* \"#utility.yul\":1438:1439   */\n      0x00\n        /* \"#utility.yul\":1431:1519   */\n      mstore\n        /* \"#utility.yul\":1538:1542   */\n      0x01\n        /* \"#utility.yul\":1535:1536   */\n      0x04\n        /* \"#utility.yul\":1528:1543   */\n      mstore\n        /* \"#utility.yul\":1562:1566   */\n      0x24\n        /* \"#utility.yul\":1559:1560   */\n      0x00\n        /* \"#utility.yul\":1552:1567   */\n      revert\n        /* \"#utility.yul\":1579:1748   */\n    tag_25:\n        /* \"#utility.yul\":1663:1674   */\n      0x00\n        /* \"#utility.yul\":1697:1703   */\n      dup3\n        /* \"#utility.yul\":1692:1695   */\n      dup3\n        /* \"#utility.yul\":1685:1704   */\n      mstore\n        /* \"#utility.yul\":1737:1741   */\n      0x20\n        /* \"#utility.yul\":1732:1735   */\n      dup3\n        /* \"#utility.yul\":1728:1742   */\n      add\n        /* \"#utility.yul\":1713:1742   */\n      swap1\n      pop\n        /* \"#utility.yul\":1579:1748   */\n      swap3\n      swap2\n      pop\n      pop\n      jump\t// out\n        /* \"#utility.yul\":1754:1918   */\n    tag_26:\n        /* \"#utility.yul\":1894:1910   */\n      0x4e756d626572206973204576656e000000000000000000000000000000000000\n        /* \"#utility.yul\":1890:1891   */\n      0x00\n        /* \"#utility.yul\":1882:1888   */\n      dup3\n        /* \"#utility.yul\":1878:1892   */\n      add\n        /* \"#utility.yul\":1871:1911   */\n      mstore\n        /* \"#utility.yul\":1754:1918   */\n      pop\n      jump\t// out\n        /* \"#utility.yul\":1924:2290   */\n    tag_27:\n        /* \"#utility.yul\":2066:2069   */\n      0x00\n        /* \"#utility.yul\":2087:2154   */\n      tag_52\n        /* \"#utility.yul\":2151:2153   */\n      0x0e\n        /* \"#utility.yul\":2146:2149   */\n      dup4\n        /* \"#utility.yul\":2087:2154   */\n      tag_25\n      jump\t// in\n    tag_52:\n        /* \"#utility.yul\":2080:2154   */\n      swap2\n      pop\n        /* \"#utility.yul\":2163:2256   */\n      tag_53\n        /* \"#utility.yul\":2252:2255   */\n      dup3\n        /* \"#utility.yul\":2163:2256   */\n      tag_26\n      jump\t// in\n    tag_53:\n        /* \"#utility.yul\":2281:2283   */\n      0x20\n        /* \"#utility.yul\":2276:2279   */\n      dup3\n        /* \"#utility.yul\":2272:2284   */\n      add\n        /* \"#utility.yul\":2265:2284   */\n      swap1\n      pop\n        /* \"#utility.yul\":1924:2290   */\n      swap2\n      swap1\n      pop\n      jump\t// out\n        /* \"#utility.yul\":2296:2715   */\n    tag_17:\n        /* \"#utility.yul\":2462:2466   */\n      0x00\n        /* \"#utility.yul\":2500:2502   */\n      0x20\n        /* \"#utility.yul\":2489:2498   */\n      dup3\n        /* \"#utility.yul\":2485:2503   */\n      add\n        /* \"#utility.yul\":2477:2503   */\n      swap1\n      pop\n        /* \"#utility.yul\":2549:2558   */\n      dup2\n        /* \"#utility.yul\":2543:2547   */\n      dup2\n        /* \"#utility.yul\":2539:2559   */\n      sub\n        /* \"#utility.yul\":2535:2536   */\n      0x00\n        /* \"#utility.yul\":2524:2533   */\n      dup4\n        /* \"#utility.yul\":2520:2537   */\n      add\n        /* \"#utility.yul\":2513:2560   */\n      mstore\n        /* \"#utility.yul\":2577:2708   */\n      tag_55\n        /* \"#utility.yul\":2703:2707   */\n      dup2\n        /* \"#utility.yul\":2577:2708   */\n      tag_27\n      jump\t// in\n    tag_55:\n        /* \"#utility.yul\":2569:2708   */\n      swap1\n      pop\n        /* \"#utility.yul\":2296:2715   */\n      swap2\n      swap1\n      pop\n      jump\t// out\n\n    auxdata: 0xa26469706673582212206a3196b386a5120585c7d3f283fdf86c270f1a22bb4a8a84304270714af2315664736f6c634300081a0033\n}\n",
				"bytecode": {
					"linkReferences": {},
					"object": "6080604052348015600e575f80fd5b506102508061001c5f395ff3fe608060405234801561000f575f80fd5b5060043610610029575f3560e01c80636ffb5c0a1461002d575b5f80fd5b610047600480360381019061004291906100ed565b610049565b005b5f6002826100579190610145565b1461006557610064610175565b5b5f6002826100739190610145565b036100b3576040517f08c379a00000000000000000000000000000000000000000000000000000000081526004016100aa906101fc565b60405180910390fd5b50565b5f80fd5b5f819050919050565b6100cc816100ba565b81146100d6575f80fd5b50565b5f813590506100e7816100c3565b92915050565b5f60208284031215610102576101016100b6565b5b5f61010f848285016100d9565b91505092915050565b7f4e487b71000000000000000000000000000000000000000000000000000000005f52601260045260245ffd5b5f61014f826100ba565b915061015a836100ba565b92508261016a57610169610118565b5b828206905092915050565b7f4e487b71000000000000000000000000000000000000000000000000000000005f52600160045260245ffd5b5f82825260208201905092915050565b7f4e756d626572206973204576656e0000000000000000000000000000000000005f82015250565b5f6101e6600e836101a2565b91506101f1826101b2565b602082019050919050565b5f6020820190508181035f830152610213816101da565b905091905056fea26469706673582212206a3196b386a5120585c7d3f283fdf86c270f1a22bb4a8a84304270714af2315664736f6c634300081a0033",
					"opcodes": "PUSH1 0x80 PUSH1 0x40 MSTORE CALLVALUE DUP1 ISZERO PUSH1 0xE JUMPI PUSH0 DUP1 REVERT JUMPDEST POP PUSH2 0x250 DUP1 PUSH2 0x1C PUSH0 CODECOPY PUSH0 RETURN INVALID PUSH1 0x80 PUSH1 0x40 MSTORE CALLVALUE DUP1 ISZERO PUSH2 0xF JUMPI PUSH0 DUP1 REVERT JUMPDEST POP PUSH1 0x4 CALLDATASIZE LT PUSH2 0x29 JUMPI PUSH0 CALLDATALOAD PUSH1 0xE0 SHR DUP1 PUSH4 0x6FFB5C0A EQ PUSH2 0x2D JUMPI JUMPDEST PUSH0 DUP1 REVERT JUMPDEST PUSH2 0x47 PUSH1 0x4 DUP1 CALLDATASIZE SUB DUP2 ADD SWAP1 PUSH2 0x42 SWAP2 SWAP1 PUSH2 0xED JUMP JUMPDEST PUSH2 0x49 JUMP JUMPDEST STOP JUMPDEST PUSH0 PUSH1 0x2 DUP3 PUSH2 0x57 SWAP2 SWAP1 PUSH2 0x145 JUMP JUMPDEST EQ PUSH2 0x65 JUMPI PUSH2 0x64 PUSH2 0x175 JUMP JUMPDEST JUMPDEST PUSH0 PUSH1 0x2 DUP3 PUSH2 0x73 SWAP2 SWAP1 PUSH2 0x145 JUMP JUMPDEST SUB PUSH2 0xB3 JUMPI PUSH1 0x40 MLOAD PUSH32 0x8C379A000000000000000000000000000000000000000000000000000000000 DUP2 MSTORE PUSH1 0x4 ADD PUSH2 0xAA SWAP1 PUSH2 0x1FC JUMP JUMPDEST PUSH1 0x40 MLOAD DUP1 SWAP2 SUB SWAP1 REVERT JUMPDEST POP JUMP JUMPDEST PUSH0 DUP1 REVERT JUMPDEST PUSH0 DUP2 SWAP1 POP SWAP2 SWAP1 POP JUMP JUMPDEST PUSH2 0xCC DUP2 PUSH2 0xBA JUMP JUMPDEST DUP2 EQ PUSH2 0xD6 JUMPI PUSH0 DUP1 REVERT JUMPDEST POP JUMP JUMPDEST PUSH0 DUP2 CALLDATALOAD SWAP1 POP PUSH2 0xE7 DUP2 PUSH2 0xC3 JUMP JUMPDEST SWAP3 SWAP2 POP POP JUMP JUMPDEST PUSH0 PUSH1 0x20 DUP3 DUP5 SUB SLT ISZERO PUSH2 0x102 JUMPI PUSH2 0x101 PUSH2 0xB6 JUMP JUMPDEST JUMPDEST PUSH0 PUSH2 0x10F DUP5 DUP3 DUP6 ADD PUSH2 0xD9 JUMP JUMPDEST SWAP2 POP POP SWAP3 SWAP2 POP POP JUMP JUMPDEST PUSH32 0x4E487B7100000000000000000000000000000000000000000000000000000000 PUSH0 MSTORE PUSH1 0x12 PUSH1 0x4 MSTORE PUSH1 0x24 PUSH0 REVERT JUMPDEST PUSH0 PUSH2 0x14F DUP3 PUSH2 0xBA JUMP JUMPDEST SWAP2 POP PUSH2 0x15A DUP4 PUSH2 0xBA JUMP JUMPDEST SWAP3 POP DUP3 PUSH2 0x16A JUMPI PUSH2 0x169 PUSH2 0x118 JUMP JUMPDEST JUMPDEST DUP3 DUP3 MOD SWAP1 POP SWAP3 SWAP2 POP POP JUMP JUMPDEST PUSH32 0x4E487B7100000000000000000000000000000000000000000000000000000000 PUSH0 MSTORE PUSH1 0x1 PUSH1 0x4 MSTORE PUSH1 0x24 PUSH0 REVERT JUMPDEST PUSH0 DUP3 DUP3 MSTORE PUSH1 0x20 DUP3 ADD SWAP1 POP SWAP3 SWAP2 POP POP JUMP JUMPDEST PUSH32 0x4E756D626572206973204576656E000000000000000000000000000000000000 PUSH0 DUP3 ADD MSTORE POP JUMP JUMPDEST PUSH0 PUSH2 0x1E6 PUSH1 0xE DUP4 PUSH2 0x1A2 JUMP JUMPDEST SWAP2 POP PUSH2 0x1F1 DUP3 PUSH2 0x1B2 JUMP JUMPDEST PUSH1 0x20 DUP3 ADD SWAP1 POP SWAP2 SWAP1 POP JUMP JUMPDEST PUSH0 PUSH1 0x20 DUP3 ADD SWAP1 POP DUP2 DUP2 SUB PUSH0 DUP4 ADD MSTORE PUSH2 0x213 DUP2 PUSH2 0x1DA JUMP JUMPDEST SWAP1 POP SWAP2 SWAP1 POP JUMP INVALID LOG2 PUSH5 0x6970667358 0x22 SLT KECCAK256 PUSH11 0x3196B386A5120585C7D3F2 DUP4 REVERT 0xF8 PUSH13 0x270F1A22BB4A8A84304270714A CALLCODE BALANCE JUMP PUSH5 0x736F6C6343 STOP ADDMOD BYTE STOP CALLER "
				},
				"gasEstimates": {
					"creation": {
						"codeDepositCost": "118400",
						"executionCost": "163",
						"totalCost": "118563"
					},
					"external": {
						"checkEven(uint256)": "infinite"
					}
				},
				"methodIdentifiers": {
					"checkEven(uint256)": "6ffb5c0a"
				}
			},
			"storageLayout": {
				"storage": [],
				"types": null
			},
			"userdoc": {
				"kind": "user",
				"methods": {},
				"version": 1
			}
		}
	}
}