{
	"contracts/Practicals/PercentageCalculation.sol": {
		"StudentMarks": {
			"abi": [
				{
					"inputs": [
						{
							"internalType": "uint256",
							"name": "_rollNumber",
							"type": "uint256"
						},
						{
							"internalType": "string",
							"name": "_name",
							"type": "string"
						},
						{
							"internalType": "uint256[]",
							"name": "_marks",
							"type": "uint256[]"
						}
					],
					"name": "addStudent",
					"outputs": [],
					"stateMutability": "nonpayable",
					"type": "function"
				},
				{
					"inputs": [
						{
							"internalType": "uint256",
							"name": "_rollNumber",
							"type": "uint256"
						}
					],
					"name": "calculatePercentage",
					"outputs": [
						{
							"internalType": "uint256",
							"name": "",
							"type": "uint256"
						}
					],
					"stateMutability": "view",
					"type": "function"
				},
				{
					"inputs": [
						{
							"internalType": "uint256",
							"name": "_rollNumber",
							"type": "uint256"
						}
					],
					"name": "getStudentMarks",
					"outputs": [
						{
							"internalType": "uint256[]",
							"name": "",
							"type": "uint256[]"
						}
					],
					"stateMutability": "view",
					"type": "function"
				},
				{
					"inputs": [
						{
							"internalType": "uint256",
							"name": "",
							"type": "uint256"
						}
					],
					"name": "students",
					"outputs": [
						{
							"internalType": "string",
							"name": "name",
							"type": "string"
						},
						{
							"internalType": "uint256",
							"name": "rollNumber",
							"type": "uint256"
						}
					],
					"stateMutability": "view",
					"type": "function"
				}
			],
			"devdoc": {
				"kind": "dev",
				"methods": {},
				"version": 1
			},
			"evm": {
				"assembly": "    /* \"contracts/Practicals/PercentageCalculation.sol\":70:1609  contract StudentMarks {... */\n  mstore(0x40, 0x80)\n  callvalue\n  dup1\n  iszero\n  tag_1\n  jumpi\n  0x00\n  dup1\n  revert\ntag_1:\n  pop\n  dataSize(sub_0)\n  dup1\n  dataOffset(sub_0)\n  0x00\n  codecopy\n  0x00\n  return\nstop\n\nsub_0: assembly {\n        /* \"contracts/Practicals/PercentageCalculation.sol\":70:1609  contract StudentMarks {... */\n      mstore(0x40, 0x80)\n      callvalue\n      dup1\n      iszero\n      tag_1\n      jumpi\n      0x00\n      dup1\n      revert\n    tag_1:\n      pop\n      jumpi(tag_2, lt(calldatasize, 0x04))\n      shr(0xe0, calldataload(0x00))\n      dup1\n      0x06ead22e\n      eq\n      tag_3\n      jumpi\n      dup1\n      0x12e473ad\n      eq\n      tag_4\n      jumpi\n      dup1\n      0x29f72b39\n      eq\n      tag_5\n      jumpi\n      dup1\n      0x6043e8b3\n      eq\n      tag_6\n      jumpi\n    tag_2:\n      0x00\n      dup1\n      revert\n        /* \"contracts/Practicals/PercentageCalculation.sol\":298:341  mapping(uint256 => Student) public students */\n    tag_3:\n      tag_7\n      0x04\n      dup1\n      calldatasize\n      sub\n      dup2\n      add\n      swap1\n      tag_8\n      swap2\n      swap1\n      tag_9\n      jump\t// in\n    tag_8:\n      tag_10\n      jump\t// in\n    tag_7:\n      mload(0x40)\n      tag_11\n      swap3\n      swap2\n      swap1\n      tag_12\n      jump\t// in\n    tag_11:\n      mload(0x40)\n      dup1\n      swap2\n      sub\n      swap1\n      return\n        /* \"contracts/Practicals/PercentageCalculation.sol\":388:850  function addStudent(uint256 _rollNumber, string memory _name, uint256[] memory _marks) public {... */\n    tag_4:\n      tag_13\n      0x04\n      dup1\n      calldatasize\n      sub\n      dup2\n      add\n      swap1\n      tag_14\n      swap2\n      swap1\n      tag_15\n      jump\t// in\n    tag_14:\n      tag_16\n      jump\t// in\n    tag_13:\n      stop\n        /* \"contracts/Practicals/PercentageCalculation.sol\":926:1416  function calculatePercentage(uint256 _rollNumber) public view returns (uint256) {... */\n    tag_5:\n      tag_17\n      0x04\n      dup1\n      calldatasize\n      sub\n      dup2\n      add\n      swap1\n      tag_18\n      swap2\n      swap1\n      tag_9\n      jump\t// in\n    tag_18:\n      tag_19\n      jump\t// in\n    tag_17:\n      mload(0x40)\n      tag_20\n      swap2\n      swap1\n      tag_21\n      jump\t// in\n    tag_20:\n      mload(0x40)\n      dup1\n      swap2\n      sub\n      swap1\n      return\n        /* \"contracts/Practicals/PercentageCalculation.sol\":1468:1606  function getStudentMarks(uint256 _rollNumber) public view returns (uint256[] memory) {... */\n    tag_6:\n      tag_22\n      0x04\n      dup1\n      calldatasize\n      sub\n      dup2\n      add\n      swap1\n      tag_23\n      swap2\n      swap1\n      tag_9\n      jump\t// in\n    tag_23:\n      tag_24\n      jump\t// in\n    tag_22:\n      mload(0x40)\n      tag_25\n      swap2\n      swap1\n      tag_26\n      jump\t// in\n    tag_25:\n      mload(0x40)\n      dup1\n      swap2\n      sub\n      swap1\n      return\n        /* \"contracts/Practicals/PercentageCalculation.sol\":298:341  mapping(uint256 => Student) public students */\n    tag_10:\n      mstore(0x20, 0x00)\n      dup1\n      0x00\n      mstore\n      keccak256(0x00, 0x40)\n      0x00\n      swap2\n      pop\n      swap1\n      pop\n      dup1\n      0x00\n      add\n      dup1\n      sload\n      tag_27\n      swap1\n      tag_28\n      jump\t// in\n    tag_27:\n      dup1\n      0x1f\n      add\n      0x20\n      dup1\n      swap2\n      div\n      mul\n      0x20\n      add\n      mload(0x40)\n      swap1\n      dup2\n      add\n      0x40\n      mstore\n      dup1\n      swap3\n      swap2\n      swap1\n      dup2\n      dup2\n      mstore\n      0x20\n      add\n      dup3\n      dup1\n      sload\n      tag_29\n      swap1\n      tag_28\n      jump\t// in\n    tag_29:\n      dup1\n      iszero\n      tag_30\n      jumpi\n      dup1\n      0x1f\n      lt\n      tag_31\n      jumpi\n      0x0100\n      dup1\n      dup4\n      sload\n      div\n      mul\n      dup4\n      mstore\n      swap2\n      0x20\n      add\n      swap2\n      jump(tag_30)\n    tag_31:\n      dup3\n      add\n      swap2\n      swap1\n      0x00\n      mstore\n      keccak256(0x00, 0x20)\n      swap1\n    tag_32:\n      dup2\n      sload\n      dup2\n      mstore\n      swap1\n      0x01\n      add\n      swap1\n      0x20\n      add\n      dup1\n      dup4\n      gt\n      tag_32\n      jumpi\n      dup3\n      swap1\n      sub\n      0x1f\n      and\n      dup3\n      add\n      swap2\n    tag_30:\n      pop\n      pop\n      pop\n      pop\n      pop\n      swap1\n      dup1\n      0x01\n      add\n      sload\n      swap1\n      pop\n      dup3\n      jump\t// out\n        /* \"contracts/Practicals/PercentageCalculation.sol\":388:850  function addStudent(uint256 _rollNumber, string memory _name, uint256[] memory _marks) public {... */\n    tag_16:\n        /* \"contracts/Practicals/PercentageCalculation.sol\":585:586  0 */\n      0x00\n        /* \"contracts/Practicals/PercentageCalculation.sol\":549:557  students */\n      dup1\n        /* \"contracts/Practicals/PercentageCalculation.sol\":549:570  students[_rollNumber] */\n      0x00\n        /* \"contracts/Practicals/PercentageCalculation.sol\":558:569  _rollNumber */\n      dup6\n        /* \"contracts/Practicals/PercentageCalculation.sol\":549:570  students[_rollNumber] */\n      dup2\n      mstore\n      0x20\n      add\n      swap1\n      dup2\n      mstore\n      0x20\n      add\n      0x00\n      keccak256\n        /* \"contracts/Practicals/PercentageCalculation.sol\":549:581  students[_rollNumber].rollNumber */\n      0x01\n      add\n      sload\n        /* \"contracts/Practicals/PercentageCalculation.sol\":549:586  students[_rollNumber].rollNumber == 0 */\n      eq\n        /* \"contracts/Practicals/PercentageCalculation.sol\":541:613  require(students[_rollNumber].rollNumber == 0, \"Student already exists\") */\n      tag_34\n      jumpi\n      mload(0x40)\n      0x08c379a000000000000000000000000000000000000000000000000000000000\n      dup2\n      mstore\n      0x04\n      add\n      tag_35\n      swap1\n      tag_36\n      jump\t// in\n    tag_35:\n      mload(0x40)\n      dup1\n      swap2\n      sub\n      swap1\n      revert\n    tag_34:\n        /* \"contracts/Practicals/PercentageCalculation.sol\":695:696  6 */\n      0x06\n        /* \"contracts/Practicals/PercentageCalculation.sol\":678:684  _marks */\n      dup2\n        /* \"contracts/Practicals/PercentageCalculation.sol\":678:691  _marks.length */\n      mload\n        /* \"contracts/Practicals/PercentageCalculation.sol\":678:696  _marks.length == 6 */\n      eq\n        /* \"contracts/Practicals/PercentageCalculation.sol\":670:727  require(_marks.length == 6, \"Invalid number of subjects\") */\n      tag_37\n      jumpi\n      mload(0x40)\n      0x08c379a000000000000000000000000000000000000000000000000000000000\n      dup2\n      mstore\n      0x04\n      add\n      tag_38\n      swap1\n      tag_39\n      jump\t// in\n    tag_38:\n      mload(0x40)\n      dup1\n      swap2\n      sub\n      swap1\n      revert\n    tag_37:\n        /* \"contracts/Practicals/PercentageCalculation.sol\":807:842  Student(_name, _rollNumber, _marks) */\n      mload(0x40)\n      dup1\n      0x60\n      add\n      0x40\n      mstore\n      dup1\n        /* \"contracts/Practicals/PercentageCalculation.sol\":815:820  _name */\n      dup4\n        /* \"contracts/Practicals/PercentageCalculation.sol\":807:842  Student(_name, _rollNumber, _marks) */\n      dup2\n      mstore\n      0x20\n      add\n        /* \"contracts/Practicals/PercentageCalculation.sol\":822:833  _rollNumber */\n      dup5\n        /* \"contracts/Practicals/PercentageCalculation.sol\":807:842  Student(_name, _rollNumber, _marks) */\n      dup2\n      mstore\n      0x20\n      add\n        /* \"contracts/Practicals/PercentageCalculation.sol\":835:841  _marks */\n      dup3\n        /* \"contracts/Practicals/PercentageCalculation.sol\":807:842  Student(_name, _rollNumber, _marks) */\n      dup2\n      mstore\n      pop\n        /* \"contracts/Practicals/PercentageCalculation.sol\":783:791  students */\n      0x00\n        /* \"contracts/Practicals/PercentageCalculation.sol\":783:804  students[_rollNumber] */\n      dup1\n        /* \"contracts/Practicals/PercentageCalculation.sol\":792:803  _rollNumber */\n      dup6\n        /* \"contracts/Practicals/PercentageCalculation.sol\":783:804  students[_rollNumber] */\n      dup2\n      mstore\n      0x20\n      add\n      swap1\n      dup2\n      mstore\n      0x20\n      add\n      0x00\n      keccak256\n        /* \"contracts/Practicals/PercentageCalculation.sol\":783:842  students[_rollNumber] = Student(_name, _rollNumber, _marks) */\n      0x00\n      dup3\n      add\n      mload\n      dup2\n      0x00\n      add\n      swap1\n      dup2\n      tag_40\n      swap2\n      swap1\n      tag_41\n      jump\t// in\n    tag_40:\n      pop\n      0x20\n      dup3\n      add\n      mload\n      dup2\n      0x01\n      add\n      sstore\n      0x40\n      dup3\n      add\n      mload\n      dup2\n      0x02\n      add\n      swap1\n      dup1\n      mload\n      swap1\n      0x20\n      add\n      swap1\n      tag_42\n      swap3\n      swap2\n      swap1\n      tag_43\n      jump\t// in\n    tag_42:\n      pop\n      swap1\n      pop\n      pop\n        /* \"contracts/Practicals/PercentageCalculation.sol\":388:850  function addStudent(uint256 _rollNumber, string memory _name, uint256[] memory _marks) public {... */\n      pop\n      pop\n      pop\n      jump\t// out\n        /* \"contracts/Practicals/PercentageCalculation.sol\":926:1416  function calculatePercentage(uint256 _rollNumber) public view returns (uint256) {... */\n    tag_19:\n        /* \"contracts/Practicals/PercentageCalculation.sol\":997:1004  uint256 */\n      0x00\n        /* \"contracts/Practicals/PercentageCalculation.sol\":1053:1075  uint256[] memory marks */\n      dup1\n        /* \"contracts/Practicals/PercentageCalculation.sol\":1078:1086  students */\n      0x00\n        /* \"contracts/Practicals/PercentageCalculation.sol\":1078:1099  students[_rollNumber] */\n      dup1\n        /* \"contracts/Practicals/PercentageCalculation.sol\":1087:1098  _rollNumber */\n      dup5\n        /* \"contracts/Practicals/PercentageCalculation.sol\":1078:1099  students[_rollNumber] */\n      dup2\n      mstore\n      0x20\n      add\n      swap1\n      dup2\n      mstore\n      0x20\n      add\n      0x00\n      keccak256\n        /* \"contracts/Practicals/PercentageCalculation.sol\":1078:1105  students[_rollNumber].marks */\n      0x02\n      add\n        /* \"contracts/Practicals/PercentageCalculation.sol\":1053:1105  uint256[] memory marks = students[_rollNumber].marks */\n      dup1\n      sload\n      dup1\n      0x20\n      mul\n      0x20\n      add\n      mload(0x40)\n      swap1\n      dup2\n      add\n      0x40\n      mstore\n      dup1\n      swap3\n      swap2\n      swap1\n      dup2\n      dup2\n      mstore\n      0x20\n      add\n      dup3\n      dup1\n      sload\n      dup1\n      iszero\n      tag_45\n      jumpi\n      0x20\n      mul\n      dup3\n      add\n      swap2\n      swap1\n      0x00\n      mstore\n      keccak256(0x00, 0x20)\n      swap1\n    tag_46:\n      dup2\n      sload\n      dup2\n      mstore\n      0x20\n      add\n      swap1\n      0x01\n      add\n      swap1\n      dup1\n      dup4\n      gt\n      tag_46\n      jumpi\n    tag_45:\n      pop\n      pop\n      pop\n      pop\n      pop\n      swap1\n      pop\n        /* \"contracts/Practicals/PercentageCalculation.sol\":1156:1174  uint256 totalMarks */\n      0x00\n        /* \"contracts/Practicals/PercentageCalculation.sol\":1194:1203  uint256 i */\n      dup1\n        /* \"contracts/Practicals/PercentageCalculation.sol\":1189:1281  for (uint256 i = 0; i < marks.length; i++) {... */\n    tag_47:\n        /* \"contracts/Practicals/PercentageCalculation.sol\":1213:1218  marks */\n      dup3\n        /* \"contracts/Practicals/PercentageCalculation.sol\":1213:1225  marks.length */\n      mload\n        /* \"contracts/Practicals/PercentageCalculation.sol\":1209:1210  i */\n      dup2\n        /* \"contracts/Practicals/PercentageCalculation.sol\":1209:1225  i < marks.length */\n      lt\n        /* \"contracts/Practicals/PercentageCalculation.sol\":1189:1281  for (uint256 i = 0; i < marks.length; i++) {... */\n      iszero\n      tag_48\n      jumpi\n        /* \"contracts/Practicals/PercentageCalculation.sol\":1261:1266  marks */\n      dup3\n        /* \"contracts/Practicals/PercentageCalculation.sol\":1267:1268  i */\n      dup2\n        /* \"contracts/Practicals/PercentageCalculation.sol\":1261:1269  marks[i] */\n      dup2\n      mload\n      dup2\n      lt\n      tag_50\n      jumpi\n      tag_51\n      tag_52\n      jump\t// in\n    tag_51:\n    tag_50:\n      0x20\n      mul\n      0x20\n      add\n      add\n      mload\n        /* \"contracts/Practicals/PercentageCalculation.sol\":1247:1269  totalMarks += marks[i] */\n      dup3\n      tag_53\n      swap2\n      swap1\n      tag_54\n      jump\t// in\n    tag_53:\n      swap2\n      pop\n        /* \"contracts/Practicals/PercentageCalculation.sol\":1227:1230  i++ */\n      dup1\n      dup1\n      0x01\n      add\n      swap2\n      pop\n      pop\n        /* \"contracts/Practicals/PercentageCalculation.sol\":1189:1281  for (uint256 i = 0; i < marks.length; i++) {... */\n      jump(tag_47)\n    tag_48:\n      pop\n        /* \"contracts/Practicals/PercentageCalculation.sol\":1330:1348  uint256 percentage */\n      0x00\n        /* \"contracts/Practicals/PercentageCalculation.sol\":1365:1370  marks */\n      dup3\n        /* \"contracts/Practicals/PercentageCalculation.sol\":1365:1377  marks.length */\n      mload\n        /* \"contracts/Practicals/PercentageCalculation.sol\":1352:1362  totalMarks */\n      dup3\n        /* \"contracts/Practicals/PercentageCalculation.sol\":1352:1377  totalMarks / marks.length */\n      tag_55\n      swap2\n      swap1\n      tag_56\n      jump\t// in\n    tag_55:\n        /* \"contracts/Practicals/PercentageCalculation.sol\":1330:1378  uint256 percentage = (totalMarks / marks.length) */\n      swap1\n      pop\n        /* \"contracts/Practicals/PercentageCalculation.sol\":1398:1408  percentage */\n      dup1\n        /* \"contracts/Practicals/PercentageCalculation.sol\":1391:1408  return percentage */\n      swap4\n      pop\n      pop\n      pop\n      pop\n        /* \"contracts/Practicals/PercentageCalculation.sol\":926:1416  function calculatePercentage(uint256 _rollNumber) public view returns (uint256) {... */\n      swap2\n      swap1\n      pop\n      jump\t// out\n        /* \"contracts/Practicals/PercentageCalculation.sol\":1468:1606  function getStudentMarks(uint256 _rollNumber) public view returns (uint256[] memory) {... */\n    tag_24:\n        /* \"contracts/Practicals/PercentageCalculation.sol\":1535:1551  uint256[] memory */\n      0x60\n        /* \"contracts/Practicals/PercentageCalculation.sol\":1571:1579  students */\n      0x00\n        /* \"contracts/Practicals/PercentageCalculation.sol\":1571:1592  students[_rollNumber] */\n      dup1\n        /* \"contracts/Practicals/PercentageCalculation.sol\":1580:1591  _rollNumber */\n      dup4\n        /* \"contracts/Practicals/PercentageCalculation.sol\":1571:1592  students[_rollNumber] */\n      dup2\n      mstore\n      0x20\n      add\n      swap1\n      dup2\n      mstore\n      0x20\n      add\n      0x00\n      keccak256\n        /* \"contracts/Practicals/PercentageCalculation.sol\":1571:1598  students[_rollNumber].marks */\n      0x02\n      add\n        /* \"contracts/Practicals/PercentageCalculation.sol\":1564:1598  return students[_rollNumber].marks */\n      dup1\n      sload\n      dup1\n      0x20\n      mul\n      0x20\n      add\n      mload(0x40)\n      swap1\n      dup2\n      add\n      0x40\n      mstore\n      dup1\n      swap3\n      swap2\n      swap1\n      dup2\n      dup2\n      mstore\n      0x20\n      add\n      dup3\n      dup1\n      sload\n      dup1\n      iszero\n      tag_58\n      jumpi\n      0x20\n      mul\n      dup3\n      add\n      swap2\n      swap1\n      0x00\n      mstore\n      keccak256(0x00, 0x20)\n      swap1\n    tag_59:\n      dup2\n      sload\n      dup2\n      mstore\n      0x20\n      add\n      swap1\n      0x01\n      add\n      swap1\n      dup1\n      dup4\n      gt\n      tag_59\n      jumpi\n    tag_58:\n      pop\n      pop\n      pop\n      pop\n      pop\n      swap1\n      pop\n        /* \"contracts/Practicals/PercentageCalculation.sol\":1468:1606  function getStudentMarks(uint256 _rollNumber) public view returns (uint256[] memory) {... */\n      swap2\n      swap1\n      pop\n      jump\t// out\n    tag_43:\n      dup3\n      dup1\n      sload\n      dup3\n      dup3\n      sstore\n      swap1\n      0x00\n      mstore\n      keccak256(0x00, 0x20)\n      swap1\n      dup2\n      add\n      swap3\n      dup3\n      iszero\n      tag_60\n      jumpi\n      swap2\n      0x20\n      mul\n      dup3\n      add\n    tag_61:\n      dup3\n      dup2\n      gt\n      iszero\n      tag_62\n      jumpi\n      dup3\n      mload\n      dup3\n      sstore\n      swap2\n      0x20\n      add\n      swap2\n      swap1\n      0x01\n      add\n      swap1\n      jump(tag_61)\n    tag_62:\n    tag_60:\n      pop\n      swap1\n      pop\n      tag_63\n      swap2\n      swap1\n      tag_64\n      jump\t// in\n    tag_63:\n      pop\n      swap1\n      jump\t// out\n    tag_64:\n    tag_65:\n      dup1\n      dup3\n      gt\n      iszero\n      tag_66\n      jumpi\n      0x00\n      dup2\n      0x00\n      swap1\n      sstore\n      pop\n      0x01\n      add\n      jump(tag_65)\n    tag_66:\n      pop\n      swap1\n      jump\t// out\n        /* \"#utility.yul\":7:82   */\n    tag_67:\n        /* \"#utility.yul\":40:46   */\n      0x00\n        /* \"#utility.yul\":73:75   */\n      0x40\n        /* \"#utility.yul\":67:76   */\n      mload\n        /* \"#utility.yul\":57:76   */\n      swap1\n      pop\n        /* \"#utility.yul\":7:82   */\n      swap1\n      jump\t// out\n        /* \"#utility.yul\":88:205   */\n    tag_68:\n        /* \"#utility.yul\":197:198   */\n      0x00\n        /* \"#utility.yul\":194:195   */\n      dup1\n        /* \"#utility.yul\":187:199   */\n      revert\n        /* \"#utility.yul\":211:328   */\n    tag_69:\n        /* \"#utility.yul\":320:321   */\n      0x00\n        /* \"#utility.yul\":317:318   */\n      dup1\n        /* \"#utility.yul\":310:322   */\n      revert\n        /* \"#utility.yul\":334:411   */\n    tag_70:\n        /* \"#utility.yul\":371:378   */\n      0x00\n        /* \"#utility.yul\":400:405   */\n      dup2\n        /* \"#utility.yul\":389:405   */\n      swap1\n      pop\n        /* \"#utility.yul\":334:411   */\n      swap2\n      swap1\n      pop\n      jump\t// out\n        /* \"#utility.yul\":417:539   */\n    tag_71:\n        /* \"#utility.yul\":490:514   */\n      tag_127\n        /* \"#utility.yul\":508:513   */\n      dup2\n        /* \"#utility.yul\":490:514   */\n      tag_70\n      jump\t// in\n    tag_127:\n        /* \"#utility.yul\":483:488   */\n      dup2\n        /* \"#utility.yul\":480:515   */\n      eq\n        /* \"#utility.yul\":470:533   */\n      tag_128\n      jumpi\n        /* \"#utility.yul\":529:530   */\n      0x00\n        /* \"#utility.yul\":526:527   */\n      dup1\n        /* \"#utility.yul\":519:531   */\n      revert\n        /* \"#utility.yul\":470:533   */\n    tag_128:\n        /* \"#utility.yul\":417:539   */\n      pop\n      jump\t// out\n        /* \"#utility.yul\":545:684   */\n    tag_72:\n        /* \"#utility.yul\":591:596   */\n      0x00\n        /* \"#utility.yul\":629:635   */\n      dup2\n        /* \"#utility.yul\":616:636   */\n      calldataload\n        /* \"#utility.yul\":607:636   */\n      swap1\n      pop\n        /* \"#utility.yul\":645:678   */\n      tag_130\n        /* \"#utility.yul\":672:677   */\n      dup2\n        /* \"#utility.yul\":645:678   */\n      tag_71\n      jump\t// in\n    tag_130:\n        /* \"#utility.yul\":545:684   */\n      swap3\n      swap2\n      pop\n      pop\n      jump\t// out\n        /* \"#utility.yul\":690:1019   */\n    tag_9:\n        /* \"#utility.yul\":749:755   */\n      0x00\n        /* \"#utility.yul\":798:800   */\n      0x20\n        /* \"#utility.yul\":786:795   */\n      dup3\n        /* \"#utility.yul\":777:784   */\n      dup5\n        /* \"#utility.yul\":773:796   */\n      sub\n        /* \"#utility.yul\":769:801   */\n      slt\n        /* \"#utility.yul\":766:885   */\n      iszero\n      tag_132\n      jumpi\n        /* \"#utility.yul\":804:883   */\n      tag_133\n      tag_68\n      jump\t// in\n    tag_133:\n        /* \"#utility.yul\":766:885   */\n    tag_132:\n        /* \"#utility.yul\":924:925   */\n      0x00\n        /* \"#utility.yul\":949:1002   */\n      tag_134\n        /* \"#utility.yul\":994:1001   */\n      dup5\n        /* \"#utility.yul\":985:991   */\n      dup3\n        /* \"#utility.yul\":974:983   */\n      dup6\n        /* \"#utility.yul\":970:992   */\n      add\n        /* \"#utility.yul\":949:1002   */\n      tag_72\n      jump\t// in\n    tag_134:\n        /* \"#utility.yul\":939:1002   */\n      swap2\n      pop\n        /* \"#utility.yul\":895:1012   */\n      pop\n        /* \"#utility.yul\":690:1019   */\n      swap3\n      swap2\n      pop\n      pop\n      jump\t// out\n        /* \"#utility.yul\":1025:1124   */\n    tag_73:\n        /* \"#utility.yul\":1077:1083   */\n      0x00\n        /* \"#utility.yul\":1111:1116   */\n      dup2\n        /* \"#utility.yul\":1105:1117   */\n      mload\n        /* \"#utility.yul\":1095:1117   */\n      swap1\n      pop\n        /* \"#utility.yul\":1025:1124   */\n      swap2\n      swap1\n      pop\n      jump\t// out\n        /* \"#utility.yul\":1130:1299   */\n    tag_74:\n        /* \"#utility.yul\":1214:1225   */\n      0x00\n        /* \"#utility.yul\":1248:1254   */\n      dup3\n        /* \"#utility.yul\":1243:1246   */\n      dup3\n        /* \"#utility.yul\":1236:1255   */\n      mstore\n        /* \"#utility.yul\":1288:1292   */\n      0x20\n        /* \"#utility.yul\":1283:1286   */\n      dup3\n        /* \"#utility.yul\":1279:1293   */\n      add\n        /* \"#utility.yul\":1264:1293   */\n      swap1\n      pop\n        /* \"#utility.yul\":1130:1299   */\n      swap3\n      swap2\n      pop\n      pop\n      jump\t// out\n        /* \"#utility.yul\":1305:1444   */\n    tag_75:\n        /* \"#utility.yul\":1394:1400   */\n      dup3\n        /* \"#utility.yul\":1389:1392   */\n      dup2\n        /* \"#utility.yul\":1384:1387   */\n      dup4\n        /* \"#utility.yul\":1378:1401   */\n      mcopy\n        /* \"#utility.yul\":1435:1436   */\n      0x00\n        /* \"#utility.yul\":1426:1432   */\n      dup4\n        /* \"#utility.yul\":1421:1424   */\n      dup4\n        /* \"#utility.yul\":1417:1433   */\n      add\n        /* \"#utility.yul\":1410:1437   */\n      mstore\n        /* \"#utility.yul\":1305:1444   */\n      pop\n      pop\n      pop\n      jump\t// out\n        /* \"#utility.yul\":1450:1552   */\n    tag_76:\n        /* \"#utility.yul\":1491:1497   */\n      0x00\n        /* \"#utility.yul\":1542:1544   */\n      0x1f\n        /* \"#utility.yul\":1538:1545   */\n      not\n        /* \"#utility.yul\":1533:1535   */\n      0x1f\n        /* \"#utility.yul\":1526:1531   */\n      dup4\n        /* \"#utility.yul\":1522:1536   */\n      add\n        /* \"#utility.yul\":1518:1546   */\n      and\n        /* \"#utility.yul\":1508:1546   */\n      swap1\n      pop\n        /* \"#utility.yul\":1450:1552   */\n      swap2\n      swap1\n      pop\n      jump\t// out\n        /* \"#utility.yul\":1558:1935   */\n    tag_77:\n        /* \"#utility.yul\":1646:1649   */\n      0x00\n        /* \"#utility.yul\":1674:1713   */\n      tag_140\n        /* \"#utility.yul\":1707:1712   */\n      dup3\n        /* \"#utility.yul\":1674:1713   */\n      tag_73\n      jump\t// in\n    tag_140:\n        /* \"#utility.yul\":1729:1800   */\n      tag_141\n        /* \"#utility.yul\":1793:1799   */\n      dup2\n        /* \"#utility.yul\":1788:1791   */\n      dup6\n        /* \"#utility.yul\":1729:1800   */\n      tag_74\n      jump\t// in\n    tag_141:\n        /* \"#utility.yul\":1722:1800   */\n      swap4\n      pop\n        /* \"#utility.yul\":1809:1874   */\n      tag_142\n        /* \"#utility.yul\":1867:1873   */\n      dup2\n        /* \"#utility.yul\":1862:1865   */\n      dup6\n        /* \"#utility.yul\":1855:1859   */\n      0x20\n        /* \"#utility.yul\":1848:1853   */\n      dup7\n        /* \"#utility.yul\":1844:1860   */\n      add\n        /* \"#utility.yul\":1809:1874   */\n      tag_75\n      jump\t// in\n    tag_142:\n        /* \"#utility.yul\":1899:1928   */\n      tag_143\n        /* \"#utility.yul\":1921:1927   */\n      dup2\n        /* \"#utility.yul\":1899:1928   */\n      tag_76\n      jump\t// in\n    tag_143:\n        /* \"#utility.yul\":1894:1897   */\n      dup5\n        /* \"#utility.yul\":1890:1929   */\n      add\n        /* \"#utility.yul\":1883:1929   */\n      swap2\n      pop\n        /* \"#utility.yul\":1650:1935   */\n      pop\n        /* \"#utility.yul\":1558:1935   */\n      swap3\n      swap2\n      pop\n      pop\n      jump\t// out\n        /* \"#utility.yul\":1941:2059   */\n    tag_78:\n        /* \"#utility.yul\":2028:2052   */\n      tag_145\n        /* \"#utility.yul\":2046:2051   */\n      dup2\n        /* \"#utility.yul\":2028:2052   */\n      tag_70\n      jump\t// in\n    tag_145:\n        /* \"#utility.yul\":2023:2026   */\n      dup3\n        /* \"#utility.yul\":2016:2053   */\n      mstore\n        /* \"#utility.yul\":1941:2059   */\n      pop\n      pop\n      jump\t// out\n        /* \"#utility.yul\":2065:2488   */\n    tag_12:\n        /* \"#utility.yul\":2206:2210   */\n      0x00\n        /* \"#utility.yul\":2244:2246   */\n      0x40\n        /* \"#utility.yul\":2233:2242   */\n      dup3\n        /* \"#utility.yul\":2229:2247   */\n      add\n        /* \"#utility.yul\":2221:2247   */\n      swap1\n      pop\n        /* \"#utility.yul\":2293:2302   */\n      dup2\n        /* \"#utility.yul\":2287:2291   */\n      dup2\n        /* \"#utility.yul\":2283:2303   */\n      sub\n        /* \"#utility.yul\":2279:2280   */\n      0x00\n        /* \"#utility.yul\":2268:2277   */\n      dup4\n        /* \"#utility.yul\":2264:2281   */\n      add\n        /* \"#utility.yul\":2257:2304   */\n      mstore\n        /* \"#utility.yul\":2321:2399   */\n      tag_147\n        /* \"#utility.yul\":2394:2398   */\n      dup2\n        /* \"#utility.yul\":2385:2391   */\n      dup6\n        /* \"#utility.yul\":2321:2399   */\n      tag_77\n      jump\t// in\n    tag_147:\n        /* \"#utility.yul\":2313:2399   */\n      swap1\n      pop\n        /* \"#utility.yul\":2409:2481   */\n      tag_148\n        /* \"#utility.yul\":2477:2479   */\n      0x20\n        /* \"#utility.yul\":2466:2475   */\n      dup4\n        /* \"#utility.yul\":2462:2480   */\n      add\n        /* \"#utility.yul\":2453:2459   */\n      dup5\n        /* \"#utility.yul\":2409:2481   */\n      tag_78\n      jump\t// in\n    tag_148:\n        /* \"#utility.yul\":2065:2488   */\n      swap4\n      swap3\n      pop\n      pop\n      pop\n      jump\t// out\n        /* \"#utility.yul\":2494:2611   */\n    tag_79:\n        /* \"#utility.yul\":2603:2604   */\n      0x00\n        /* \"#utility.yul\":2600:2601   */\n      dup1\n        /* \"#utility.yul\":2593:2605   */\n      revert\n        /* \"#utility.yul\":2617:2734   */\n    tag_80:\n        /* \"#utility.yul\":2726:2727   */\n      0x00\n        /* \"#utility.yul\":2723:2724   */\n      dup1\n        /* \"#utility.yul\":2716:2728   */\n      revert\n        /* \"#utility.yul\":2740:2920   */\n    tag_81:\n        /* \"#utility.yul\":2788:2865   */\n      0x4e487b7100000000000000000000000000000000000000000000000000000000\n        /* \"#utility.yul\":2785:2786   */\n      0x00\n        /* \"#utility.yul\":2778:2866   */\n      mstore\n        /* \"#utility.yul\":2885:2889   */\n      0x41\n        /* \"#utility.yul\":2882:2883   */\n      0x04\n        /* \"#utility.yul\":2875:2890   */\n      mstore\n        /* \"#utility.yul\":2909:2913   */\n      0x24\n        /* \"#utility.yul\":2906:2907   */\n      0x00\n        /* \"#utility.yul\":2899:2914   */\n      revert\n        /* \"#utility.yul\":2926:3207   */\n    tag_82:\n        /* \"#utility.yul\":3009:3036   */\n      tag_153\n        /* \"#utility.yul\":3031:3035   */\n      dup3\n        /* \"#utility.yul\":3009:3036   */\n      tag_76\n      jump\t// in\n    tag_153:\n        /* \"#utility.yul\":3001:3007   */\n      dup2\n        /* \"#utility.yul\":2997:3037   */\n      add\n        /* \"#utility.yul\":3139:3145   */\n      dup2\n        /* \"#utility.yul\":3127:3137   */\n      dup2\n        /* \"#utility.yul\":3124:3146   */\n      lt\n        /* \"#utility.yul\":3103:3121   */\n      0xffffffffffffffff\n        /* \"#utility.yul\":3091:3101   */\n      dup3\n        /* \"#utility.yul\":3088:3122   */\n      gt\n        /* \"#utility.yul\":3085:3147   */\n      or\n        /* \"#utility.yul\":3082:3170   */\n      iszero\n      tag_154\n      jumpi\n        /* \"#utility.yul\":3150:3168   */\n      tag_155\n      tag_81\n      jump\t// in\n    tag_155:\n        /* \"#utility.yul\":3082:3170   */\n    tag_154:\n        /* \"#utility.yul\":3190:3200   */\n      dup1\n        /* \"#utility.yul\":3186:3188   */\n      0x40\n        /* \"#utility.yul\":3179:3201   */\n      mstore\n        /* \"#utility.yul\":2969:3207   */\n      pop\n        /* \"#utility.yul\":2926:3207   */\n      pop\n      pop\n      jump\t// out\n        /* \"#utility.yul\":3213:3342   */\n    tag_83:\n        /* \"#utility.yul\":3247:3253   */\n      0x00\n        /* \"#utility.yul\":3274:3294   */\n      tag_157\n      tag_67\n      jump\t// in\n    tag_157:\n        /* \"#utility.yul\":3264:3294   */\n      swap1\n      pop\n        /* \"#utility.yul\":3303:3336   */\n      tag_158\n        /* \"#utility.yul\":3331:3335   */\n      dup3\n        /* \"#utility.yul\":3323:3329   */\n      dup3\n        /* \"#utility.yul\":3303:3336   */\n      tag_82\n      jump\t// in\n    tag_158:\n        /* \"#utility.yul\":3213:3342   */\n      swap2\n      swap1\n      pop\n      jump\t// out\n        /* \"#utility.yul\":3348:3656   */\n    tag_84:\n        /* \"#utility.yul\":3410:3414   */\n      0x00\n        /* \"#utility.yul\":3500:3518   */\n      0xffffffffffffffff\n        /* \"#utility.yul\":3492:3498   */\n      dup3\n        /* \"#utility.yul\":3489:3519   */\n      gt\n        /* \"#utility.yul\":3486:3542   */\n      iszero\n      tag_160\n      jumpi\n        /* \"#utility.yul\":3522:3540   */\n      tag_161\n      tag_81\n      jump\t// in\n    tag_161:\n        /* \"#utility.yul\":3486:3542   */\n    tag_160:\n        /* \"#utility.yul\":3560:3589   */\n      tag_162\n        /* \"#utility.yul\":3582:3588   */\n      dup3\n        /* \"#utility.yul\":3560:3589   */\n      tag_76\n      jump\t// in\n    tag_162:\n        /* \"#utility.yul\":3552:3589   */\n      swap1\n      pop\n        /* \"#utility.yul\":3644:3648   */\n      0x20\n        /* \"#utility.yul\":3638:3642   */\n      dup2\n        /* \"#utility.yul\":3634:3649   */\n      add\n        /* \"#utility.yul\":3626:3649   */\n      swap1\n      pop\n        /* \"#utility.yul\":3348:3656   */\n      swap2\n      swap1\n      pop\n      jump\t// out\n        /* \"#utility.yul\":3662:3810   */\n    tag_85:\n        /* \"#utility.yul\":3760:3766   */\n      dup3\n        /* \"#utility.yul\":3755:3758   */\n      dup2\n        /* \"#utility.yul\":3750:3753   */\n      dup4\n        /* \"#utility.yul\":3737:3767   */\n      calldatacopy\n        /* \"#utility.yul\":3801:3802   */\n      0x00\n        /* \"#utility.yul\":3792:3798   */\n      dup4\n        /* \"#utility.yul\":3787:3790   */\n      dup4\n        /* \"#utility.yul\":3783:3799   */\n      add\n        /* \"#utility.yul\":3776:3803   */\n      mstore\n        /* \"#utility.yul\":3662:3810   */\n      pop\n      pop\n      pop\n      jump\t// out\n        /* \"#utility.yul\":3816:4241   */\n    tag_86:\n        /* \"#utility.yul\":3894:3899   */\n      0x00\n        /* \"#utility.yul\":3919:3985   */\n      tag_165\n        /* \"#utility.yul\":3935:3984   */\n      tag_166\n        /* \"#utility.yul\":3977:3983   */\n      dup5\n        /* \"#utility.yul\":3935:3984   */\n      tag_84\n      jump\t// in\n    tag_166:\n        /* \"#utility.yul\":3919:3985   */\n      tag_83\n      jump\t// in\n    tag_165:\n        /* \"#utility.yul\":3910:3985   */\n      swap1\n      pop\n        /* \"#utility.yul\":4008:4014   */\n      dup3\n        /* \"#utility.yul\":4001:4006   */\n      dup2\n        /* \"#utility.yul\":3994:4015   */\n      mstore\n        /* \"#utility.yul\":4046:4050   */\n      0x20\n        /* \"#utility.yul\":4039:4044   */\n      dup2\n        /* \"#utility.yul\":4035:4051   */\n      add\n        /* \"#utility.yul\":4084:4087   */\n      dup5\n        /* \"#utility.yul\":4075:4081   */\n      dup5\n        /* \"#utility.yul\":4070:4073   */\n      dup5\n        /* \"#utility.yul\":4066:4082   */\n      add\n        /* \"#utility.yul\":4063:4088   */\n      gt\n        /* \"#utility.yul\":4060:4172   */\n      iszero\n      tag_167\n      jumpi\n        /* \"#utility.yul\":4091:4170   */\n      tag_168\n      tag_80\n      jump\t// in\n    tag_168:\n        /* \"#utility.yul\":4060:4172   */\n    tag_167:\n        /* \"#utility.yul\":4181:4235   */\n      tag_169\n        /* \"#utility.yul\":4228:4234   */\n      dup5\n        /* \"#utility.yul\":4223:4226   */\n      dup3\n        /* \"#utility.yul\":4218:4221   */\n      dup6\n        /* \"#utility.yul\":4181:4235   */\n      tag_85\n      jump\t// in\n    tag_169:\n        /* \"#utility.yul\":3900:4241   */\n      pop\n        /* \"#utility.yul\":3816:4241   */\n      swap4\n      swap3\n      pop\n      pop\n      pop\n      jump\t// out\n        /* \"#utility.yul\":4261:4601   */\n    tag_87:\n        /* \"#utility.yul\":4317:4322   */\n      0x00\n        /* \"#utility.yul\":4366:4369   */\n      dup3\n        /* \"#utility.yul\":4359:4363   */\n      0x1f\n        /* \"#utility.yul\":4351:4357   */\n      dup4\n        /* \"#utility.yul\":4347:4364   */\n      add\n        /* \"#utility.yul\":4343:4370   */\n      slt\n        /* \"#utility.yul\":4333:4455   */\n      tag_171\n      jumpi\n        /* \"#utility.yul\":4374:4453   */\n      tag_172\n      tag_79\n      jump\t// in\n    tag_172:\n        /* \"#utility.yul\":4333:4455   */\n    tag_171:\n        /* \"#utility.yul\":4491:4497   */\n      dup2\n        /* \"#utility.yul\":4478:4498   */\n      calldataload\n        /* \"#utility.yul\":4516:4595   */\n      tag_173\n        /* \"#utility.yul\":4591:4594   */\n      dup5\n        /* \"#utility.yul\":4583:4589   */\n      dup3\n        /* \"#utility.yul\":4576:4580   */\n      0x20\n        /* \"#utility.yul\":4568:4574   */\n      dup7\n        /* \"#utility.yul\":4564:4581   */\n      add\n        /* \"#utility.yul\":4516:4595   */\n      tag_86\n      jump\t// in\n    tag_173:\n        /* \"#utility.yul\":4507:4595   */\n      swap2\n      pop\n        /* \"#utility.yul\":4323:4601   */\n      pop\n        /* \"#utility.yul\":4261:4601   */\n      swap3\n      swap2\n      pop\n      pop\n      jump\t// out\n        /* \"#utility.yul\":4607:4918   */\n    tag_88:\n        /* \"#utility.yul\":4684:4688   */\n      0x00\n        /* \"#utility.yul\":4774:4792   */\n      0xffffffffffffffff\n        /* \"#utility.yul\":4766:4772   */\n      dup3\n        /* \"#utility.yul\":4763:4793   */\n      gt\n        /* \"#utility.yul\":4760:4816   */\n      iszero\n      tag_175\n      jumpi\n        /* \"#utility.yul\":4796:4814   */\n      tag_176\n      tag_81\n      jump\t// in\n    tag_176:\n        /* \"#utility.yul\":4760:4816   */\n    tag_175:\n        /* \"#utility.yul\":4846:4850   */\n      0x20\n        /* \"#utility.yul\":4838:4844   */\n      dup3\n        /* \"#utility.yul\":4834:4851   */\n      mul\n        /* \"#utility.yul\":4826:4851   */\n      swap1\n      pop\n        /* \"#utility.yul\":4906:4910   */\n      0x20\n        /* \"#utility.yul\":4900:4904   */\n      dup2\n        /* \"#utility.yul\":4896:4911   */\n      add\n        /* \"#utility.yul\":4888:4911   */\n      swap1\n      pop\n        /* \"#utility.yul\":4607:4918   */\n      swap2\n      swap1\n      pop\n      jump\t// out\n        /* \"#utility.yul\":4924:5041   */\n    tag_89:\n        /* \"#utility.yul\":5033:5034   */\n      0x00\n        /* \"#utility.yul\":5030:5031   */\n      dup1\n        /* \"#utility.yul\":5023:5035   */\n      revert\n        /* \"#utility.yul\":5064:5774   */\n    tag_90:\n        /* \"#utility.yul\":5160:5165   */\n      0x00\n        /* \"#utility.yul\":5185:5266   */\n      tag_179\n        /* \"#utility.yul\":5201:5265   */\n      tag_180\n        /* \"#utility.yul\":5258:5264   */\n      dup5\n        /* \"#utility.yul\":5201:5265   */\n      tag_88\n      jump\t// in\n    tag_180:\n        /* \"#utility.yul\":5185:5266   */\n      tag_83\n      jump\t// in\n    tag_179:\n        /* \"#utility.yul\":5176:5266   */\n      swap1\n      pop\n        /* \"#utility.yul\":5286:5291   */\n      dup1\n        /* \"#utility.yul\":5315:5321   */\n      dup4\n        /* \"#utility.yul\":5308:5313   */\n      dup3\n        /* \"#utility.yul\":5301:5322   */\n      mstore\n        /* \"#utility.yul\":5349:5353   */\n      0x20\n        /* \"#utility.yul\":5342:5347   */\n      dup3\n        /* \"#utility.yul\":5338:5354   */\n      add\n        /* \"#utility.yul\":5331:5354   */\n      swap1\n      pop\n        /* \"#utility.yul\":5402:5406   */\n      0x20\n        /* \"#utility.yul\":5394:5400   */\n      dup5\n        /* \"#utility.yul\":5390:5407   */\n      mul\n        /* \"#utility.yul\":5382:5388   */\n      dup4\n        /* \"#utility.yul\":5378:5408   */\n      add\n        /* \"#utility.yul\":5431:5434   */\n      dup6\n        /* \"#utility.yul\":5423:5429   */\n      dup2\n        /* \"#utility.yul\":5420:5435   */\n      gt\n        /* \"#utility.yul\":5417:5539   */\n      iszero\n      tag_181\n      jumpi\n        /* \"#utility.yul\":5450:5529   */\n      tag_182\n      tag_89\n      jump\t// in\n    tag_182:\n        /* \"#utility.yul\":5417:5539   */\n    tag_181:\n        /* \"#utility.yul\":5565:5571   */\n      dup4\n        /* \"#utility.yul\":5548:5768   */\n    tag_183:\n        /* \"#utility.yul\":5582:5588   */\n      dup2\n        /* \"#utility.yul\":5577:5580   */\n      dup2\n        /* \"#utility.yul\":5574:5589   */\n      lt\n        /* \"#utility.yul\":5548:5768   */\n      iszero\n      tag_185\n      jumpi\n        /* \"#utility.yul\":5657:5660   */\n      dup1\n        /* \"#utility.yul\":5686:5723   */\n      tag_186\n        /* \"#utility.yul\":5719:5722   */\n      dup9\n        /* \"#utility.yul\":5707:5717   */\n      dup3\n        /* \"#utility.yul\":5686:5723   */\n      tag_72\n      jump\t// in\n    tag_186:\n        /* \"#utility.yul\":5681:5684   */\n      dup5\n        /* \"#utility.yul\":5674:5724   */\n      mstore\n        /* \"#utility.yul\":5753:5757   */\n      0x20\n        /* \"#utility.yul\":5748:5751   */\n      dup5\n        /* \"#utility.yul\":5744:5758   */\n      add\n        /* \"#utility.yul\":5737:5758   */\n      swap4\n      pop\n        /* \"#utility.yul\":5624:5768   */\n      pop\n        /* \"#utility.yul\":5608:5612   */\n      0x20\n        /* \"#utility.yul\":5603:5606   */\n      dup2\n        /* \"#utility.yul\":5599:5613   */\n      add\n        /* \"#utility.yul\":5592:5613   */\n      swap1\n      pop\n        /* \"#utility.yul\":5548:5768   */\n      jump(tag_183)\n    tag_185:\n        /* \"#utility.yul\":5552:5573   */\n      pop\n        /* \"#utility.yul\":5166:5774   */\n      pop\n      pop\n        /* \"#utility.yul\":5064:5774   */\n      swap4\n      swap3\n      pop\n      pop\n      pop\n      jump\t// out\n        /* \"#utility.yul\":5797:6167   */\n    tag_91:\n        /* \"#utility.yul\":5868:5873   */\n      0x00\n        /* \"#utility.yul\":5917:5920   */\n      dup3\n        /* \"#utility.yul\":5910:5914   */\n      0x1f\n        /* \"#utility.yul\":5902:5908   */\n      dup4\n        /* \"#utility.yul\":5898:5915   */\n      add\n        /* \"#utility.yul\":5894:5921   */\n      slt\n        /* \"#utility.yul\":5884:6006   */\n      tag_188\n      jumpi\n        /* \"#utility.yul\":5925:6004   */\n      tag_189\n      tag_79\n      jump\t// in\n    tag_189:\n        /* \"#utility.yul\":5884:6006   */\n    tag_188:\n        /* \"#utility.yul\":6042:6048   */\n      dup2\n        /* \"#utility.yul\":6029:6049   */\n      calldataload\n        /* \"#utility.yul\":6067:6161   */\n      tag_190\n        /* \"#utility.yul\":6157:6160   */\n      dup5\n        /* \"#utility.yul\":6149:6155   */\n      dup3\n        /* \"#utility.yul\":6142:6146   */\n      0x20\n        /* \"#utility.yul\":6134:6140   */\n      dup7\n        /* \"#utility.yul\":6130:6147   */\n      add\n        /* \"#utility.yul\":6067:6161   */\n      tag_90\n      jump\t// in\n    tag_190:\n        /* \"#utility.yul\":6058:6161   */\n      swap2\n      pop\n        /* \"#utility.yul\":5874:6167   */\n      pop\n        /* \"#utility.yul\":5797:6167   */\n      swap3\n      swap2\n      pop\n      pop\n      jump\t// out\n        /* \"#utility.yul\":6173:7182   */\n    tag_15:\n        /* \"#utility.yul\":6285:6291   */\n      0x00\n        /* \"#utility.yul\":6293:6299   */\n      dup1\n        /* \"#utility.yul\":6301:6307   */\n      0x00\n        /* \"#utility.yul\":6350:6352   */\n      0x60\n        /* \"#utility.yul\":6338:6347   */\n      dup5\n        /* \"#utility.yul\":6329:6336   */\n      dup7\n        /* \"#utility.yul\":6325:6348   */\n      sub\n        /* \"#utility.yul\":6321:6353   */\n      slt\n        /* \"#utility.yul\":6318:6437   */\n      iszero\n      tag_192\n      jumpi\n        /* \"#utility.yul\":6356:6435   */\n      tag_193\n      tag_68\n      jump\t// in\n    tag_193:\n        /* \"#utility.yul\":6318:6437   */\n    tag_192:\n        /* \"#utility.yul\":6476:6477   */\n      0x00\n        /* \"#utility.yul\":6501:6554   */\n      tag_194\n        /* \"#utility.yul\":6546:6553   */\n      dup7\n        /* \"#utility.yul\":6537:6543   */\n      dup3\n        /* \"#utility.yul\":6526:6535   */\n      dup8\n        /* \"#utility.yul\":6522:6544   */\n      add\n        /* \"#utility.yul\":6501:6554   */\n      tag_72\n      jump\t// in\n    tag_194:\n        /* \"#utility.yul\":6491:6554   */\n      swap4\n      pop\n        /* \"#utility.yul\":6447:6564   */\n      pop\n        /* \"#utility.yul\":6631:6633   */\n      0x20\n        /* \"#utility.yul\":6620:6629   */\n      dup5\n        /* \"#utility.yul\":6616:6634   */\n      add\n        /* \"#utility.yul\":6603:6635   */\n      calldataload\n        /* \"#utility.yul\":6662:6680   */\n      0xffffffffffffffff\n        /* \"#utility.yul\":6654:6660   */\n      dup2\n        /* \"#utility.yul\":6651:6681   */\n      gt\n        /* \"#utility.yul\":6648:6765   */\n      iszero\n      tag_195\n      jumpi\n        /* \"#utility.yul\":6684:6763   */\n      tag_196\n      tag_69\n      jump\t// in\n    tag_196:\n        /* \"#utility.yul\":6648:6765   */\n    tag_195:\n        /* \"#utility.yul\":6789:6852   */\n      tag_197\n        /* \"#utility.yul\":6844:6851   */\n      dup7\n        /* \"#utility.yul\":6835:6841   */\n      dup3\n        /* \"#utility.yul\":6824:6833   */\n      dup8\n        /* \"#utility.yul\":6820:6842   */\n      add\n        /* \"#utility.yul\":6789:6852   */\n      tag_87\n      jump\t// in\n    tag_197:\n        /* \"#utility.yul\":6779:6852   */\n      swap3\n      pop\n        /* \"#utility.yul\":6574:6862   */\n      pop\n        /* \"#utility.yul\":6929:6931   */\n      0x40\n        /* \"#utility.yul\":6918:6927   */\n      dup5\n        /* \"#utility.yul\":6914:6932   */\n      add\n        /* \"#utility.yul\":6901:6933   */\n      calldataload\n        /* \"#utility.yul\":6960:6978   */\n      0xffffffffffffffff\n        /* \"#utility.yul\":6952:6958   */\n      dup2\n        /* \"#utility.yul\":6949:6979   */\n      gt\n        /* \"#utility.yul\":6946:7063   */\n      iszero\n      tag_198\n      jumpi\n        /* \"#utility.yul\":6982:7061   */\n      tag_199\n      tag_69\n      jump\t// in\n    tag_199:\n        /* \"#utility.yul\":6946:7063   */\n    tag_198:\n        /* \"#utility.yul\":7087:7165   */\n      tag_200\n        /* \"#utility.yul\":7157:7164   */\n      dup7\n        /* \"#utility.yul\":7148:7154   */\n      dup3\n        /* \"#utility.yul\":7137:7146   */\n      dup8\n        /* \"#utility.yul\":7133:7155   */\n      add\n        /* \"#utility.yul\":7087:7165   */\n      tag_91\n      jump\t// in\n    tag_200:\n        /* \"#utility.yul\":7077:7165   */\n      swap2\n      pop\n        /* \"#utility.yul\":6872:7175   */\n      pop\n        /* \"#utility.yul\":6173:7182   */\n      swap3\n      pop\n      swap3\n      pop\n      swap3\n      jump\t// out\n        /* \"#utility.yul\":7188:7410   */\n    tag_21:\n        /* \"#utility.yul\":7281:7285   */\n      0x00\n        /* \"#utility.yul\":7319:7321   */\n      0x20\n        /* \"#utility.yul\":7308:7317   */\n      dup3\n        /* \"#utility.yul\":7304:7322   */\n      add\n        /* \"#utility.yul\":7296:7322   */\n      swap1\n      pop\n        /* \"#utility.yul\":7332:7403   */\n      tag_202\n        /* \"#utility.yul\":7400:7401   */\n      0x00\n        /* \"#utility.yul\":7389:7398   */\n      dup4\n        /* \"#utility.yul\":7385:7402   */\n      add\n        /* \"#utility.yul\":7376:7382   */\n      dup5\n        /* \"#utility.yul\":7332:7403   */\n      tag_78\n      jump\t// in\n    tag_202:\n        /* \"#utility.yul\":7188:7410   */\n      swap3\n      swap2\n      pop\n      pop\n      jump\t// out\n        /* \"#utility.yul\":7416:7530   */\n    tag_92:\n        /* \"#utility.yul\":7483:7489   */\n      0x00\n        /* \"#utility.yul\":7517:7522   */\n      dup2\n        /* \"#utility.yul\":7511:7523   */\n      mload\n        /* \"#utility.yul\":7501:7523   */\n      swap1\n      pop\n        /* \"#utility.yul\":7416:7530   */\n      swap2\n      swap1\n      pop\n      jump\t// out\n        /* \"#utility.yul\":7536:7720   */\n    tag_93:\n        /* \"#utility.yul\":7635:7646   */\n      0x00\n        /* \"#utility.yul\":7669:7675   */\n      dup3\n        /* \"#utility.yul\":7664:7667   */\n      dup3\n        /* \"#utility.yul\":7657:7676   */\n      mstore\n        /* \"#utility.yul\":7709:7713   */\n      0x20\n        /* \"#utility.yul\":7704:7707   */\n      dup3\n        /* \"#utility.yul\":7700:7714   */\n      add\n        /* \"#utility.yul\":7685:7714   */\n      swap1\n      pop\n        /* \"#utility.yul\":7536:7720   */\n      swap3\n      swap2\n      pop\n      pop\n      jump\t// out\n        /* \"#utility.yul\":7726:7858   */\n    tag_94:\n        /* \"#utility.yul\":7793:7797   */\n      0x00\n        /* \"#utility.yul\":7816:7819   */\n      dup2\n        /* \"#utility.yul\":7808:7819   */\n      swap1\n      pop\n        /* \"#utility.yul\":7846:7850   */\n      0x20\n        /* \"#utility.yul\":7841:7844   */\n      dup3\n        /* \"#utility.yul\":7837:7851   */\n      add\n        /* \"#utility.yul\":7829:7851   */\n      swap1\n      pop\n        /* \"#utility.yul\":7726:7858   */\n      swap2\n      swap1\n      pop\n      jump\t// out\n        /* \"#utility.yul\":7864:7972   */\n    tag_95:\n        /* \"#utility.yul\":7941:7965   */\n      tag_207\n        /* \"#utility.yul\":7959:7964   */\n      dup2\n        /* \"#utility.yul\":7941:7965   */\n      tag_70\n      jump\t// in\n    tag_207:\n        /* \"#utility.yul\":7936:7939   */\n      dup3\n        /* \"#utility.yul\":7929:7966   */\n      mstore\n        /* \"#utility.yul\":7864:7972   */\n      pop\n      pop\n      jump\t// out\n        /* \"#utility.yul\":7978:8157   */\n    tag_96:\n        /* \"#utility.yul\":8047:8057   */\n      0x00\n        /* \"#utility.yul\":8068:8114   */\n      tag_209\n        /* \"#utility.yul\":8110:8113   */\n      dup4\n        /* \"#utility.yul\":8102:8108   */\n      dup4\n        /* \"#utility.yul\":8068:8114   */\n      tag_95\n      jump\t// in\n    tag_209:\n        /* \"#utility.yul\":8146:8150   */\n      0x20\n        /* \"#utility.yul\":8141:8144   */\n      dup4\n        /* \"#utility.yul\":8137:8151   */\n      add\n        /* \"#utility.yul\":8123:8151   */\n      swap1\n      pop\n        /* \"#utility.yul\":7978:8157   */\n      swap3\n      swap2\n      pop\n      pop\n      jump\t// out\n        /* \"#utility.yul\":8163:8276   */\n    tag_97:\n        /* \"#utility.yul\":8233:8237   */\n      0x00\n        /* \"#utility.yul\":8265:8269   */\n      0x20\n        /* \"#utility.yul\":8260:8263   */\n      dup3\n        /* \"#utility.yul\":8256:8270   */\n      add\n        /* \"#utility.yul\":8248:8270   */\n      swap1\n      pop\n        /* \"#utility.yul\":8163:8276   */\n      swap2\n      swap1\n      pop\n      jump\t// out\n        /* \"#utility.yul\":8312:9044   */\n    tag_98:\n        /* \"#utility.yul\":8431:8434   */\n      0x00\n        /* \"#utility.yul\":8460:8514   */\n      tag_212\n        /* \"#utility.yul\":8508:8513   */\n      dup3\n        /* \"#utility.yul\":8460:8514   */\n      tag_92\n      jump\t// in\n    tag_212:\n        /* \"#utility.yul\":8530:8616   */\n      tag_213\n        /* \"#utility.yul\":8609:8615   */\n      dup2\n        /* \"#utility.yul\":8604:8607   */\n      dup6\n        /* \"#utility.yul\":8530:8616   */\n      tag_93\n      jump\t// in\n    tag_213:\n        /* \"#utility.yul\":8523:8616   */\n      swap4\n      pop\n        /* \"#utility.yul\":8640:8696   */\n      tag_214\n        /* \"#utility.yul\":8690:8695   */\n      dup4\n        /* \"#utility.yul\":8640:8696   */\n      tag_94\n      jump\t// in\n    tag_214:\n        /* \"#utility.yul\":8719:8726   */\n      dup1\n        /* \"#utility.yul\":8750:8751   */\n      0x00\n        /* \"#utility.yul\":8735:9019   */\n    tag_215:\n        /* \"#utility.yul\":8760:8766   */\n      dup4\n        /* \"#utility.yul\":8757:8758   */\n      dup2\n        /* \"#utility.yul\":8754:8767   */\n      lt\n        /* \"#utility.yul\":8735:9019   */\n      iszero\n      tag_217\n      jumpi\n        /* \"#utility.yul\":8836:8842   */\n      dup2\n        /* \"#utility.yul\":8830:8843   */\n      mload\n        /* \"#utility.yul\":8863:8926   */\n      tag_218\n        /* \"#utility.yul\":8922:8925   */\n      dup9\n        /* \"#utility.yul\":8907:8920   */\n      dup3\n        /* \"#utility.yul\":8863:8926   */\n      tag_96\n      jump\t// in\n    tag_218:\n        /* \"#utility.yul\":8856:8926   */\n      swap8\n      pop\n        /* \"#utility.yul\":8949:9009   */\n      tag_219\n        /* \"#utility.yul\":9002:9008   */\n      dup4\n        /* \"#utility.yul\":8949:9009   */\n      tag_97\n      jump\t// in\n    tag_219:\n        /* \"#utility.yul\":8939:9009   */\n      swap3\n      pop\n        /* \"#utility.yul\":8795:9019   */\n      pop\n        /* \"#utility.yul\":8782:8783   */\n      0x01\n        /* \"#utility.yul\":8779:8780   */\n      dup2\n        /* \"#utility.yul\":8775:8784   */\n      add\n        /* \"#utility.yul\":8770:8784   */\n      swap1\n      pop\n        /* \"#utility.yul\":8735:9019   */\n      jump(tag_215)\n    tag_217:\n        /* \"#utility.yul\":8739:8753   */\n      pop\n        /* \"#utility.yul\":9035:9038   */\n      dup6\n        /* \"#utility.yul\":9028:9038   */\n      swap4\n      pop\n        /* \"#utility.yul\":8436:9044   */\n      pop\n      pop\n      pop\n        /* \"#utility.yul\":8312:9044   */\n      swap3\n      swap2\n      pop\n      pop\n      jump\t// out\n        /* \"#utility.yul\":9050:9423   */\n    tag_26:\n        /* \"#utility.yul\":9193:9197   */\n      0x00\n        /* \"#utility.yul\":9231:9233   */\n      0x20\n        /* \"#utility.yul\":9220:9229   */\n      dup3\n        /* \"#utility.yul\":9216:9234   */\n      add\n        /* \"#utility.yul\":9208:9234   */\n      swap1\n      pop\n        /* \"#utility.yul\":9280:9289   */\n      dup2\n        /* \"#utility.yul\":9274:9278   */\n      dup2\n        /* \"#utility.yul\":9270:9290   */\n      sub\n        /* \"#utility.yul\":9266:9267   */\n      0x00\n        /* \"#utility.yul\":9255:9264   */\n      dup4\n        /* \"#utility.yul\":9251:9268   */\n      add\n        /* \"#utility.yul\":9244:9291   */\n      mstore\n        /* \"#utility.yul\":9308:9416   */\n      tag_221\n        /* \"#utility.yul\":9411:9415   */\n      dup2\n        /* \"#utility.yul\":9402:9408   */\n      dup5\n        /* \"#utility.yul\":9308:9416   */\n      tag_98\n      jump\t// in\n    tag_221:\n        /* \"#utility.yul\":9300:9416   */\n      swap1\n      pop\n        /* \"#utility.yul\":9050:9423   */\n      swap3\n      swap2\n      pop\n      pop\n      jump\t// out\n        /* \"#utility.yul\":9429:9609   */\n    tag_99:\n        /* \"#utility.yul\":9477:9554   */\n      0x4e487b7100000000000000000000000000000000000000000000000000000000\n        /* \"#utility.yul\":9474:9475   */\n      0x00\n        /* \"#utility.yul\":9467:9555   */\n      mstore\n        /* \"#utility.yul\":9574:9578   */\n      0x22\n        /* \"#utility.yul\":9571:9572   */\n      0x04\n        /* \"#utility.yul\":9564:9579   */\n      mstore\n        /* \"#utility.yul\":9598:9602   */\n      0x24\n        /* \"#utility.yul\":9595:9596   */\n      0x00\n        /* \"#utility.yul\":9588:9603   */\n      revert\n        /* \"#utility.yul\":9615:9935   */\n    tag_28:\n        /* \"#utility.yul\":9659:9665   */\n      0x00\n        /* \"#utility.yul\":9696:9697   */\n      0x02\n        /* \"#utility.yul\":9690:9694   */\n      dup3\n        /* \"#utility.yul\":9686:9698   */\n      div\n        /* \"#utility.yul\":9676:9698   */\n      swap1\n      pop\n        /* \"#utility.yul\":9743:9744   */\n      0x01\n        /* \"#utility.yul\":9737:9741   */\n      dup3\n        /* \"#utility.yul\":9733:9745   */\n      and\n        /* \"#utility.yul\":9764:9782   */\n      dup1\n        /* \"#utility.yul\":9754:9835   */\n      tag_224\n      jumpi\n        /* \"#utility.yul\":9820:9824   */\n      0x7f\n        /* \"#utility.yul\":9812:9818   */\n      dup3\n        /* \"#utility.yul\":9808:9825   */\n      and\n        /* \"#utility.yul\":9798:9825   */\n      swap2\n      pop\n        /* \"#utility.yul\":9754:9835   */\n    tag_224:\n        /* \"#utility.yul\":9882:9884   */\n      0x20\n        /* \"#utility.yul\":9874:9880   */\n      dup3\n        /* \"#utility.yul\":9871:9885   */\n      lt\n        /* \"#utility.yul\":9851:9869   */\n      dup2\n        /* \"#utility.yul\":9848:9886   */\n      sub\n        /* \"#utility.yul\":9845:9929   */\n      tag_225\n      jumpi\n        /* \"#utility.yul\":9901:9919   */\n      tag_226\n      tag_99\n      jump\t// in\n    tag_226:\n        /* \"#utility.yul\":9845:9929   */\n    tag_225:\n        /* \"#utility.yul\":9666:9935   */\n      pop\n        /* \"#utility.yul\":9615:9935   */\n      swap2\n      swap1\n      pop\n      jump\t// out\n        /* \"#utility.yul\":9941:10113   */\n    tag_100:\n        /* \"#utility.yul\":10081:10105   */\n      0x53747564656e7420616c72656164792065786973747300000000000000000000\n        /* \"#utility.yul\":10077:10078   */\n      0x00\n        /* \"#utility.yul\":10069:10075   */\n      dup3\n        /* \"#utility.yul\":10065:10079   */\n      add\n        /* \"#utility.yul\":10058:10106   */\n      mstore\n        /* \"#utility.yul\":9941:10113   */\n      pop\n      jump\t// out\n        /* \"#utility.yul\":10119:10485   */\n    tag_101:\n        /* \"#utility.yul\":10261:10264   */\n      0x00\n        /* \"#utility.yul\":10282:10349   */\n      tag_229\n        /* \"#utility.yul\":10346:10348   */\n      0x16\n        /* \"#utility.yul\":10341:10344   */\n      dup4\n        /* \"#utility.yul\":10282:10349   */\n      tag_74\n      jump\t// in\n    tag_229:\n        /* \"#utility.yul\":10275:10349   */\n      swap2\n      pop\n        /* \"#utility.yul\":10358:10451   */\n      tag_230\n        /* \"#utility.yul\":10447:10450   */\n      dup3\n        /* \"#utility.yul\":10358:10451   */\n      tag_100\n      jump\t// in\n    tag_230:\n        /* \"#utility.yul\":10476:10478   */\n      0x20\n        /* \"#utility.yul\":10471:10474   */\n      dup3\n        /* \"#utility.yul\":10467:10479   */\n      add\n        /* \"#utility.yul\":10460:10479   */\n      swap1\n      pop\n        /* \"#utility.yul\":10119:10485   */\n      swap2\n      swap1\n      pop\n      jump\t// out\n        /* \"#utility.yul\":10491:10910   */\n    tag_36:\n        /* \"#utility.yul\":10657:10661   */\n      0x00\n        /* \"#utility.yul\":10695:10697   */\n      0x20\n        /* \"#utility.yul\":10684:10693   */\n      dup3\n        /* \"#utility.yul\":10680:10698   */\n      add\n        /* \"#utility.yul\":10672:10698   */\n      swap1\n      pop\n        /* \"#utility.yul\":10744:10753   */\n      dup2\n        /* \"#utility.yul\":10738:10742   */\n      dup2\n        /* \"#utility.yul\":10734:10754   */\n      sub\n        /* \"#utility.yul\":10730:10731   */\n      0x00\n        /* \"#utility.yul\":10719:10728   */\n      dup4\n        /* \"#utility.yul\":10715:10732   */\n      add\n        /* \"#utility.yul\":10708:10755   */\n      mstore\n        /* \"#utility.yul\":10772:10903   */\n      tag_232\n        /* \"#utility.yul\":10898:10902   */\n      dup2\n        /* \"#utility.yul\":10772:10903   */\n      tag_101\n      jump\t// in\n    tag_232:\n        /* \"#utility.yul\":10764:10903   */\n      swap1\n      pop\n        /* \"#utility.yul\":10491:10910   */\n      swap2\n      swap1\n      pop\n      jump\t// out\n        /* \"#utility.yul\":10916:11092   */\n    tag_102:\n        /* \"#utility.yul\":11056:11084   */\n      0x496e76616c6964206e756d626572206f66207375626a65637473000000000000\n        /* \"#utility.yul\":11052:11053   */\n      0x00\n        /* \"#utility.yul\":11044:11050   */\n      dup3\n        /* \"#utility.yul\":11040:11054   */\n      add\n        /* \"#utility.yul\":11033:11085   */\n      mstore\n        /* \"#utility.yul\":10916:11092   */\n      pop\n      jump\t// out\n        /* \"#utility.yul\":11098:11464   */\n    tag_103:\n        /* \"#utility.yul\":11240:11243   */\n      0x00\n        /* \"#utility.yul\":11261:11328   */\n      tag_235\n        /* \"#utility.yul\":11325:11327   */\n      0x1a\n        /* \"#utility.yul\":11320:11323   */\n      dup4\n        /* \"#utility.yul\":11261:11328   */\n      tag_74\n      jump\t// in\n    tag_235:\n        /* \"#utility.yul\":11254:11328   */\n      swap2\n      pop\n        /* \"#utility.yul\":11337:11430   */\n      tag_236\n        /* \"#utility.yul\":11426:11429   */\n      dup3\n        /* \"#utility.yul\":11337:11430   */\n      tag_102\n      jump\t// in\n    tag_236:\n        /* \"#utility.yul\":11455:11457   */\n      0x20\n        /* \"#utility.yul\":11450:11453   */\n      dup3\n        /* \"#utility.yul\":11446:11458   */\n      add\n        /* \"#utility.yul\":11439:11458   */\n      swap1\n      pop\n        /* \"#utility.yul\":11098:11464   */\n      swap2\n      swap1\n      pop\n      jump\t// out\n        /* \"#utility.yul\":11470:11889   */\n    tag_39:\n        /* \"#utility.yul\":11636:11640   */\n      0x00\n        /* \"#utility.yul\":11674:11676   */\n      0x20\n        /* \"#utility.yul\":11663:11672   */\n      dup3\n        /* \"#utility.yul\":11659:11677   */\n      add\n        /* \"#utility.yul\":11651:11677   */\n      swap1\n      pop\n        /* \"#utility.yul\":11723:11732   */\n      dup2\n        /* \"#utility.yul\":11717:11721   */\n      dup2\n        /* \"#utility.yul\":11713:11733   */\n      sub\n        /* \"#utility.yul\":11709:11710   */\n      0x00\n        /* \"#utility.yul\":11698:11707   */\n      dup4\n        /* \"#utility.yul\":11694:11711   */\n      add\n        /* \"#utility.yul\":11687:11734   */\n      mstore\n        /* \"#utility.yul\":11751:11882   */\n      tag_238\n        /* \"#utility.yul\":11877:11881   */\n      dup2\n        /* \"#utility.yul\":11751:11882   */\n      tag_103\n      jump\t// in\n    tag_238:\n        /* \"#utility.yul\":11743:11882   */\n      swap1\n      pop\n        /* \"#utility.yul\":11470:11889   */\n      swap2\n      swap1\n      pop\n      jump\t// out\n        /* \"#utility.yul\":11895:12036   */\n    tag_104:\n        /* \"#utility.yul\":11944:11948   */\n      0x00\n        /* \"#utility.yul\":11967:11970   */\n      dup2\n        /* \"#utility.yul\":11959:11970   */\n      swap1\n      pop\n        /* \"#utility.yul\":11990:11993   */\n      dup2\n        /* \"#utility.yul\":11987:11988   */\n      0x00\n        /* \"#utility.yul\":11980:11994   */\n      mstore\n        /* \"#utility.yul\":12024:12028   */\n      0x20\n        /* \"#utility.yul\":12021:12022   */\n      0x00\n        /* \"#utility.yul\":12011:12029   */\n      keccak256\n        /* \"#utility.yul\":12003:12029   */\n      swap1\n      pop\n        /* \"#utility.yul\":11895:12036   */\n      swap2\n      swap1\n      pop\n      jump\t// out\n        /* \"#utility.yul\":12042:12135   */\n    tag_105:\n        /* \"#utility.yul\":12079:12085   */\n      0x00\n        /* \"#utility.yul\":12126:12128   */\n      0x20\n        /* \"#utility.yul\":12121:12123   */\n      0x1f\n        /* \"#utility.yul\":12114:12119   */\n      dup4\n        /* \"#utility.yul\":12110:12124   */\n      add\n        /* \"#utility.yul\":12106:12129   */\n      div\n        /* \"#utility.yul\":12096:12129   */\n      swap1\n      pop\n        /* \"#utility.yul\":12042:12135   */\n      swap2\n      swap1\n      pop\n      jump\t// out\n        /* \"#utility.yul\":12141:12248   */\n    tag_106:\n        /* \"#utility.yul\":12185:12193   */\n      0x00\n        /* \"#utility.yul\":12235:12240   */\n      dup3\n        /* \"#utility.yul\":12229:12233   */\n      dup3\n        /* \"#utility.yul\":12225:12241   */\n      shl\n        /* \"#utility.yul\":12204:12241   */\n      swap1\n      pop\n        /* \"#utility.yul\":12141:12248   */\n      swap3\n      swap2\n      pop\n      pop\n      jump\t// out\n        /* \"#utility.yul\":12254:12647   */\n    tag_107:\n        /* \"#utility.yul\":12323:12329   */\n      0x00\n        /* \"#utility.yul\":12373:12374   */\n      0x08\n        /* \"#utility.yul\":12361:12371   */\n      dup4\n        /* \"#utility.yul\":12357:12375   */\n      mul\n        /* \"#utility.yul\":12396:12493   */\n      tag_243\n        /* \"#utility.yul\":12426:12492   */\n      0xffffffffffffffffffffffffffffffffffffffffffffffffffffffffffffffff\n        /* \"#utility.yul\":12415:12424   */\n      dup3\n        /* \"#utility.yul\":12396:12493   */\n      tag_106\n      jump\t// in\n    tag_243:\n        /* \"#utility.yul\":12514:12553   */\n      tag_244\n        /* \"#utility.yul\":12544:12552   */\n      dup7\n        /* \"#utility.yul\":12533:12542   */\n      dup4\n        /* \"#utility.yul\":12514:12553   */\n      tag_106\n      jump\t// in\n    tag_244:\n        /* \"#utility.yul\":12502:12553   */\n      swap6\n      pop\n        /* \"#utility.yul\":12586:12590   */\n      dup1\n        /* \"#utility.yul\":12582:12591   */\n      not\n        /* \"#utility.yul\":12575:12580   */\n      dup5\n        /* \"#utility.yul\":12571:12592   */\n      and\n        /* \"#utility.yul\":12562:12592   */\n      swap4\n      pop\n        /* \"#utility.yul\":12635:12639   */\n      dup1\n        /* \"#utility.yul\":12625:12633   */\n      dup7\n        /* \"#utility.yul\":12621:12640   */\n      and\n        /* \"#utility.yul\":12614:12619   */\n      dup5\n        /* \"#utility.yul\":12611:12641   */\n      or\n        /* \"#utility.yul\":12601:12641   */\n      swap3\n      pop\n        /* \"#utility.yul\":12330:12647   */\n      pop\n      pop\n        /* \"#utility.yul\":12254:12647   */\n      swap4\n      swap3\n      pop\n      pop\n      pop\n      jump\t// out\n        /* \"#utility.yul\":12653:12713   */\n    tag_108:\n        /* \"#utility.yul\":12681:12684   */\n      0x00\n        /* \"#utility.yul\":12702:12707   */\n      dup2\n        /* \"#utility.yul\":12695:12707   */\n      swap1\n      pop\n        /* \"#utility.yul\":12653:12713   */\n      swap2\n      swap1\n      pop\n      jump\t// out\n        /* \"#utility.yul\":12719:12861   */\n    tag_109:\n        /* \"#utility.yul\":12769:12778   */\n      0x00\n        /* \"#utility.yul\":12802:12855   */\n      tag_247\n        /* \"#utility.yul\":12820:12854   */\n      tag_248\n        /* \"#utility.yul\":12829:12853   */\n      tag_249\n        /* \"#utility.yul\":12847:12852   */\n      dup5\n        /* \"#utility.yul\":12829:12853   */\n      tag_70\n      jump\t// in\n    tag_249:\n        /* \"#utility.yul\":12820:12854   */\n      tag_108\n      jump\t// in\n    tag_248:\n        /* \"#utility.yul\":12802:12855   */\n      tag_70\n      jump\t// in\n    tag_247:\n        /* \"#utility.yul\":12789:12855   */\n      swap1\n      pop\n        /* \"#utility.yul\":12719:12861   */\n      swap2\n      swap1\n      pop\n      jump\t// out\n        /* \"#utility.yul\":12867:12942   */\n    tag_110:\n        /* \"#utility.yul\":12910:12913   */\n      0x00\n        /* \"#utility.yul\":12931:12936   */\n      dup2\n        /* \"#utility.yul\":12924:12936   */\n      swap1\n      pop\n        /* \"#utility.yul\":12867:12942   */\n      swap2\n      swap1\n      pop\n      jump\t// out\n        /* \"#utility.yul\":12948:13217   */\n    tag_111:\n        /* \"#utility.yul\":13058:13097   */\n      tag_252\n        /* \"#utility.yul\":13089:13096   */\n      dup4\n        /* \"#utility.yul\":13058:13097   */\n      tag_109\n      jump\t// in\n    tag_252:\n        /* \"#utility.yul\":13119:13210   */\n      tag_253\n        /* \"#utility.yul\":13168:13209   */\n      tag_254\n        /* \"#utility.yul\":13192:13208   */\n      dup3\n        /* \"#utility.yul\":13168:13209   */\n      tag_110\n      jump\t// in\n    tag_254:\n        /* \"#utility.yul\":13160:13166   */\n      dup5\n        /* \"#utility.yul\":13153:13157   */\n      dup5\n        /* \"#utility.yul\":13147:13158   */\n      sload\n        /* \"#utility.yul\":13119:13210   */\n      tag_107\n      jump\t// in\n    tag_253:\n        /* \"#utility.yul\":13113:13117   */\n      dup3\n        /* \"#utility.yul\":13106:13211   */\n      sstore\n        /* \"#utility.yul\":13024:13217   */\n      pop\n        /* \"#utility.yul\":12948:13217   */\n      pop\n      pop\n      pop\n      jump\t// out\n        /* \"#utility.yul\":13223:13296   */\n    tag_112:\n        /* \"#utility.yul\":13268:13271   */\n      0x00\n        /* \"#utility.yul\":13223:13296   */\n      swap1\n      jump\t// out\n        /* \"#utility.yul\":13302:13491   */\n    tag_113:\n        /* \"#utility.yul\":13379:13411   */\n      tag_257\n      tag_112\n      jump\t// in\n    tag_257:\n        /* \"#utility.yul\":13420:13485   */\n      tag_258\n        /* \"#utility.yul\":13478:13484   */\n      dup2\n        /* \"#utility.yul\":13470:13476   */\n      dup5\n        /* \"#utility.yul\":13464:13468   */\n      dup5\n        /* \"#utility.yul\":13420:13485   */\n      tag_111\n      jump\t// in\n    tag_258:\n        /* \"#utility.yul\":13355:13491   */\n      pop\n        /* \"#utility.yul\":13302:13491   */\n      pop\n      pop\n      jump\t// out\n        /* \"#utility.yul\":13497:13683   */\n    tag_114:\n        /* \"#utility.yul\":13557:13677   */\n    tag_260:\n        /* \"#utility.yul\":13574:13577   */\n      dup2\n        /* \"#utility.yul\":13567:13572   */\n      dup2\n        /* \"#utility.yul\":13564:13578   */\n      lt\n        /* \"#utility.yul\":13557:13677   */\n      iszero\n      tag_262\n      jumpi\n        /* \"#utility.yul\":13628:13667   */\n      tag_263\n        /* \"#utility.yul\":13665:13666   */\n      0x00\n        /* \"#utility.yul\":13658:13663   */\n      dup3\n        /* \"#utility.yul\":13628:13667   */\n      tag_113\n      jump\t// in\n    tag_263:\n        /* \"#utility.yul\":13601:13602   */\n      0x01\n        /* \"#utility.yul\":13594:13599   */\n      dup2\n        /* \"#utility.yul\":13590:13603   */\n      add\n        /* \"#utility.yul\":13581:13603   */\n      swap1\n      pop\n        /* \"#utility.yul\":13557:13677   */\n      jump(tag_260)\n    tag_262:\n        /* \"#utility.yul\":13497:13683   */\n      pop\n      pop\n      jump\t// out\n        /* \"#utility.yul\":13689:14232   */\n    tag_115:\n        /* \"#utility.yul\":13790:13792   */\n      0x1f\n        /* \"#utility.yul\":13785:13788   */\n      dup3\n        /* \"#utility.yul\":13782:13793   */\n      gt\n        /* \"#utility.yul\":13779:14225   */\n      iszero\n      tag_265\n      jumpi\n        /* \"#utility.yul\":13824:13862   */\n      tag_266\n        /* \"#utility.yul\":13856:13861   */\n      dup2\n        /* \"#utility.yul\":13824:13862   */\n      tag_104\n      jump\t// in\n    tag_266:\n        /* \"#utility.yul\":13908:13937   */\n      tag_267\n        /* \"#utility.yul\":13926:13936   */\n      dup5\n        /* \"#utility.yul\":13908:13937   */\n      tag_105\n      jump\t// in\n    tag_267:\n        /* \"#utility.yul\":13898:13906   */\n      dup2\n        /* \"#utility.yul\":13894:13938   */\n      add\n        /* \"#utility.yul\":14091:14093   */\n      0x20\n        /* \"#utility.yul\":14079:14089   */\n      dup6\n        /* \"#utility.yul\":14076:14094   */\n      lt\n        /* \"#utility.yul\":14073:14122   */\n      iszero\n      tag_268\n      jumpi\n        /* \"#utility.yul\":14112:14120   */\n      dup2\n        /* \"#utility.yul\":14097:14120   */\n      swap1\n      pop\n        /* \"#utility.yul\":14073:14122   */\n    tag_268:\n        /* \"#utility.yul\":14135:14215   */\n      tag_269\n        /* \"#utility.yul\":14191:14213   */\n      tag_270\n        /* \"#utility.yul\":14209:14212   */\n      dup6\n        /* \"#utility.yul\":14191:14213   */\n      tag_105\n      jump\t// in\n    tag_270:\n        /* \"#utility.yul\":14181:14189   */\n      dup4\n        /* \"#utility.yul\":14177:14214   */\n      add\n        /* \"#utility.yul\":14164:14175   */\n      dup3\n        /* \"#utility.yul\":14135:14215   */\n      tag_114\n      jump\t// in\n    tag_269:\n        /* \"#utility.yul\":13794:14225   */\n      pop\n      pop\n        /* \"#utility.yul\":13779:14225   */\n    tag_265:\n        /* \"#utility.yul\":13689:14232   */\n      pop\n      pop\n      pop\n      jump\t// out\n        /* \"#utility.yul\":14238:14355   */\n    tag_116:\n        /* \"#utility.yul\":14292:14300   */\n      0x00\n        /* \"#utility.yul\":14342:14347   */\n      dup3\n        /* \"#utility.yul\":14336:14340   */\n      dup3\n        /* \"#utility.yul\":14332:14348   */\n      shr\n        /* \"#utility.yul\":14311:14348   */\n      swap1\n      pop\n        /* \"#utility.yul\":14238:14355   */\n      swap3\n      swap2\n      pop\n      pop\n      jump\t// out\n        /* \"#utility.yul\":14361:14530   */\n    tag_117:\n        /* \"#utility.yul\":14405:14411   */\n      0x00\n        /* \"#utility.yul\":14438:14489   */\n      tag_273\n        /* \"#utility.yul\":14486:14487   */\n      0x00\n        /* \"#utility.yul\":14482:14488   */\n      not\n        /* \"#utility.yul\":14474:14479   */\n      dup5\n        /* \"#utility.yul\":14471:14472   */\n      0x08\n        /* \"#utility.yul\":14467:14480   */\n      mul\n        /* \"#utility.yul\":14438:14489   */\n      tag_116\n      jump\t// in\n    tag_273:\n        /* \"#utility.yul\":14434:14490   */\n      not\n        /* \"#utility.yul\":14519:14523   */\n      dup1\n        /* \"#utility.yul\":14513:14517   */\n      dup4\n        /* \"#utility.yul\":14509:14524   */\n      and\n        /* \"#utility.yul\":14499:14524   */\n      swap2\n      pop\n        /* \"#utility.yul\":14412:14530   */\n      pop\n        /* \"#utility.yul\":14361:14530   */\n      swap3\n      swap2\n      pop\n      pop\n      jump\t// out\n        /* \"#utility.yul\":14535:14830   */\n    tag_118:\n        /* \"#utility.yul\":14611:14615   */\n      0x00\n        /* \"#utility.yul\":14757:14786   */\n      tag_275\n        /* \"#utility.yul\":14782:14785   */\n      dup4\n        /* \"#utility.yul\":14776:14780   */\n      dup4\n        /* \"#utility.yul\":14757:14786   */\n      tag_117\n      jump\t// in\n    tag_275:\n        /* \"#utility.yul\":14749:14786   */\n      swap2\n      pop\n        /* \"#utility.yul\":14819:14822   */\n      dup3\n        /* \"#utility.yul\":14816:14817   */\n      0x02\n        /* \"#utility.yul\":14812:14823   */\n      mul\n        /* \"#utility.yul\":14806:14810   */\n      dup3\n        /* \"#utility.yul\":14803:14824   */\n      or\n        /* \"#utility.yul\":14795:14824   */\n      swap1\n      pop\n        /* \"#utility.yul\":14535:14830   */\n      swap3\n      swap2\n      pop\n      pop\n      jump\t// out\n        /* \"#utility.yul\":14835:16230   */\n    tag_41:\n        /* \"#utility.yul\":14952:14989   */\n      tag_277\n        /* \"#utility.yul\":14985:14988   */\n      dup3\n        /* \"#utility.yul\":14952:14989   */\n      tag_73\n      jump\t// in\n    tag_277:\n        /* \"#utility.yul\":15054:15072   */\n      0xffffffffffffffff\n        /* \"#utility.yul\":15046:15052   */\n      dup2\n        /* \"#utility.yul\":15043:15073   */\n      gt\n        /* \"#utility.yul\":15040:15096   */\n      iszero\n      tag_278\n      jumpi\n        /* \"#utility.yul\":15076:15094   */\n      tag_279\n      tag_81\n      jump\t// in\n    tag_279:\n        /* \"#utility.yul\":15040:15096   */\n    tag_278:\n        /* \"#utility.yul\":15120:15158   */\n      tag_280\n        /* \"#utility.yul\":15152:15156   */\n      dup3\n        /* \"#utility.yul\":15146:15157   */\n      sload\n        /* \"#utility.yul\":15120:15158   */\n      tag_28\n      jump\t// in\n    tag_280:\n        /* \"#utility.yul\":15205:15272   */\n      tag_281\n        /* \"#utility.yul\":15265:15271   */\n      dup3\n        /* \"#utility.yul\":15257:15263   */\n      dup3\n        /* \"#utility.yul\":15251:15255   */\n      dup6\n        /* \"#utility.yul\":15205:15272   */\n      tag_115\n      jump\t// in\n    tag_281:\n        /* \"#utility.yul\":15299:15300   */\n      0x00\n        /* \"#utility.yul\":15323:15327   */\n      0x20\n        /* \"#utility.yul\":15310:15327   */\n      swap1\n      pop\n        /* \"#utility.yul\":15355:15357   */\n      0x1f\n        /* \"#utility.yul\":15347:15353   */\n      dup4\n        /* \"#utility.yul\":15344:15358   */\n      gt\n        /* \"#utility.yul\":15372:15373   */\n      0x01\n        /* \"#utility.yul\":15367:15985   */\n      dup2\n      eq\n      tag_283\n      jumpi\n        /* \"#utility.yul\":16029:16030   */\n      0x00\n        /* \"#utility.yul\":16046:16052   */\n      dup5\n        /* \"#utility.yul\":16043:16120   */\n      iszero\n      tag_284\n      jumpi\n        /* \"#utility.yul\":16095:16104   */\n      dup3\n        /* \"#utility.yul\":16090:16093   */\n      dup8\n        /* \"#utility.yul\":16086:16105   */\n      add\n        /* \"#utility.yul\":16080:16106   */\n      mload\n        /* \"#utility.yul\":16071:16106   */\n      swap1\n      pop\n        /* \"#utility.yul\":16043:16120   */\n    tag_284:\n        /* \"#utility.yul\":16146:16213   */\n      tag_285\n        /* \"#utility.yul\":16206:16212   */\n      dup6\n        /* \"#utility.yul\":16199:16204   */\n      dup3\n        /* \"#utility.yul\":16146:16213   */\n      tag_118\n      jump\t// in\n    tag_285:\n        /* \"#utility.yul\":16140:16144   */\n      dup7\n        /* \"#utility.yul\":16133:16214   */\n      sstore\n        /* \"#utility.yul\":16002:16224   */\n      pop\n        /* \"#utility.yul\":15337:16224   */\n      jump(tag_282)\n        /* \"#utility.yul\":15367:15985   */\n    tag_283:\n        /* \"#utility.yul\":15419:15423   */\n      0x1f\n        /* \"#utility.yul\":15415:15424   */\n      not\n        /* \"#utility.yul\":15407:15413   */\n      dup5\n        /* \"#utility.yul\":15403:15425   */\n      and\n        /* \"#utility.yul\":15453:15490   */\n      tag_286\n        /* \"#utility.yul\":15485:15489   */\n      dup7\n        /* \"#utility.yul\":15453:15490   */\n      tag_104\n      jump\t// in\n    tag_286:\n        /* \"#utility.yul\":15512:15513   */\n      0x00\n        /* \"#utility.yul\":15526:15734   */\n    tag_287:\n        /* \"#utility.yul\":15540:15547   */\n      dup3\n        /* \"#utility.yul\":15537:15538   */\n      dup2\n        /* \"#utility.yul\":15534:15548   */\n      lt\n        /* \"#utility.yul\":15526:15734   */\n      iszero\n      tag_289\n      jumpi\n        /* \"#utility.yul\":15619:15628   */\n      dup5\n        /* \"#utility.yul\":15614:15617   */\n      dup10\n        /* \"#utility.yul\":15610:15629   */\n      add\n        /* \"#utility.yul\":15604:15630   */\n      mload\n        /* \"#utility.yul\":15596:15602   */\n      dup3\n        /* \"#utility.yul\":15589:15631   */\n      sstore\n        /* \"#utility.yul\":15670:15671   */\n      0x01\n        /* \"#utility.yul\":15662:15668   */\n      dup3\n        /* \"#utility.yul\":15658:15672   */\n      add\n        /* \"#utility.yul\":15648:15672   */\n      swap2\n      pop\n        /* \"#utility.yul\":15717:15719   */\n      0x20\n        /* \"#utility.yul\":15706:15715   */\n      dup6\n        /* \"#utility.yul\":15702:15720   */\n      add\n        /* \"#utility.yul\":15689:15720   */\n      swap5\n      pop\n        /* \"#utility.yul\":15563:15567   */\n      0x20\n        /* \"#utility.yul\":15560:15561   */\n      dup2\n        /* \"#utility.yul\":15556:15568   */\n      add\n        /* \"#utility.yul\":15551:15568   */\n      swap1\n      pop\n        /* \"#utility.yul\":15526:15734   */\n      jump(tag_287)\n    tag_289:\n        /* \"#utility.yul\":15762:15768   */\n      dup7\n        /* \"#utility.yul\":15753:15760   */\n      dup4\n        /* \"#utility.yul\":15750:15769   */\n      lt\n        /* \"#utility.yul\":15747:15926   */\n      iszero\n      tag_290\n      jumpi\n        /* \"#utility.yul\":15820:15829   */\n      dup5\n        /* \"#utility.yul\":15815:15818   */\n      dup10\n        /* \"#utility.yul\":15811:15830   */\n      add\n        /* \"#utility.yul\":15805:15831   */\n      mload\n        /* \"#utility.yul\":15863:15911   */\n      tag_291\n        /* \"#utility.yul\":15905:15909   */\n      0x1f\n        /* \"#utility.yul\":15897:15903   */\n      dup10\n        /* \"#utility.yul\":15893:15910   */\n      and\n        /* \"#utility.yul\":15882:15891   */\n      dup3\n        /* \"#utility.yul\":15863:15911   */\n      tag_117\n      jump\t// in\n    tag_291:\n        /* \"#utility.yul\":15855:15861   */\n      dup4\n        /* \"#utility.yul\":15848:15912   */\n      sstore\n        /* \"#utility.yul\":15770:15926   */\n      pop\n        /* \"#utility.yul\":15747:15926   */\n    tag_290:\n        /* \"#utility.yul\":15972:15973   */\n      0x01\n        /* \"#utility.yul\":15968:15969   */\n      0x02\n        /* \"#utility.yul\":15960:15966   */\n      dup9\n        /* \"#utility.yul\":15956:15970   */\n      mul\n        /* \"#utility.yul\":15952:15974   */\n      add\n        /* \"#utility.yul\":15946:15950   */\n      dup9\n        /* \"#utility.yul\":15939:15975   */\n      sstore\n        /* \"#utility.yul\":15374:15985   */\n      pop\n      pop\n      pop\n        /* \"#utility.yul\":15337:16224   */\n    tag_282:\n      pop\n        /* \"#utility.yul\":14927:16230   */\n      pop\n      pop\n      pop\n        /* \"#utility.yul\":14835:16230   */\n      pop\n      pop\n      jump\t// out\n        /* \"#utility.yul\":16236:16416   */\n    tag_52:\n        /* \"#utility.yul\":16284:16361   */\n      0x4e487b7100000000000000000000000000000000000000000000000000000000\n        /* \"#utility.yul\":16281:16282   */\n      0x00\n        /* \"#utility.yul\":16274:16362   */\n      mstore\n        /* \"#utility.yul\":16381:16385   */\n      0x32\n        /* \"#utility.yul\":16378:16379   */\n      0x04\n        /* \"#utility.yul\":16371:16386   */\n      mstore\n        /* \"#utility.yul\":16405:16409   */\n      0x24\n        /* \"#utility.yul\":16402:16403   */\n      0x00\n        /* \"#utility.yul\":16395:16410   */\n      revert\n        /* \"#utility.yul\":16422:16602   */\n    tag_119:\n        /* \"#utility.yul\":16470:16547   */\n      0x4e487b7100000000000000000000000000000000000000000000000000000000\n        /* \"#utility.yul\":16467:16468   */\n      0x00\n        /* \"#utility.yul\":16460:16548   */\n      mstore\n        /* \"#utility.yul\":16567:16571   */\n      0x11\n        /* \"#utility.yul\":16564:16565   */\n      0x04\n        /* \"#utility.yul\":16557:16572   */\n      mstore\n        /* \"#utility.yul\":16591:16595   */\n      0x24\n        /* \"#utility.yul\":16588:16589   */\n      0x00\n        /* \"#utility.yul\":16581:16596   */\n      revert\n        /* \"#utility.yul\":16608:16799   */\n    tag_54:\n        /* \"#utility.yul\":16648:16651   */\n      0x00\n        /* \"#utility.yul\":16667:16687   */\n      tag_295\n        /* \"#utility.yul\":16685:16686   */\n      dup3\n        /* \"#utility.yul\":16667:16687   */\n      tag_70\n      jump\t// in\n    tag_295:\n        /* \"#utility.yul\":16662:16687   */\n      swap2\n      pop\n        /* \"#utility.yul\":16701:16721   */\n      tag_296\n        /* \"#utility.yul\":16719:16720   */\n      dup4\n        /* \"#utility.yul\":16701:16721   */\n      tag_70\n      jump\t// in\n    tag_296:\n        /* \"#utility.yul\":16696:16721   */\n      swap3\n      pop\n        /* \"#utility.yul\":16744:16745   */\n      dup3\n        /* \"#utility.yul\":16741:16742   */\n      dup3\n        /* \"#utility.yul\":16737:16746   */\n      add\n        /* \"#utility.yul\":16730:16746   */\n      swap1\n      pop\n        /* \"#utility.yul\":16765:16768   */\n      dup1\n        /* \"#utility.yul\":16762:16763   */\n      dup3\n        /* \"#utility.yul\":16759:16769   */\n      gt\n        /* \"#utility.yul\":16756:16792   */\n      iszero\n      tag_297\n      jumpi\n        /* \"#utility.yul\":16772:16790   */\n      tag_298\n      tag_119\n      jump\t// in\n    tag_298:\n        /* \"#utility.yul\":16756:16792   */\n    tag_297:\n        /* \"#utility.yul\":16608:16799   */\n      swap3\n      swap2\n      pop\n      pop\n      jump\t// out\n        /* \"#utility.yul\":16805:16985   */\n    tag_120:\n        /* \"#utility.yul\":16853:16930   */\n      0x4e487b7100000000000000000000000000000000000000000000000000000000\n        /* \"#utility.yul\":16850:16851   */\n      0x00\n        /* \"#utility.yul\":16843:16931   */\n      mstore\n        /* \"#utility.yul\":16950:16954   */\n      0x12\n        /* \"#utility.yul\":16947:16948   */\n      0x04\n        /* \"#utility.yul\":16940:16955   */\n      mstore\n        /* \"#utility.yul\":16974:16978   */\n      0x24\n        /* \"#utility.yul\":16971:16972   */\n      0x00\n        /* \"#utility.yul\":16964:16979   */\n      revert\n        /* \"#utility.yul\":16991:17176   */\n    tag_56:\n        /* \"#utility.yul\":17031:17032   */\n      0x00\n        /* \"#utility.yul\":17048:17068   */\n      tag_301\n        /* \"#utility.yul\":17066:17067   */\n      dup3\n        /* \"#utility.yul\":17048:17068   */\n      tag_70\n      jump\t// in\n    tag_301:\n        /* \"#utility.yul\":17043:17068   */\n      swap2\n      pop\n        /* \"#utility.yul\":17082:17102   */\n      tag_302\n        /* \"#utility.yul\":17100:17101   */\n      dup4\n        /* \"#utility.yul\":17082:17102   */\n      tag_70\n      jump\t// in\n    tag_302:\n        /* \"#utility.yul\":17077:17102   */\n      swap3\n      pop\n        /* \"#utility.yul\":17121:17122   */\n      dup3\n        /* \"#utility.yul\":17111:17146   */\n      tag_303\n      jumpi\n        /* \"#utility.yul\":17126:17144   */\n      tag_304\n      tag_120\n      jump\t// in\n    tag_304:\n        /* \"#utility.yul\":17111:17146   */\n    tag_303:\n        /* \"#utility.yul\":17168:17169   */\n      dup3\n        /* \"#utility.yul\":17165:17166   */\n      dup3\n        /* \"#utility.yul\":17161:17170   */\n      div\n        /* \"#utility.yul\":17156:17170   */\n      swap1\n      pop\n        /* \"#utility.yul\":16991:17176   */\n      swap3\n      swap2\n      pop\n      pop\n      jump\t// out\n\n    auxdata: 0xa264697066735822122054e1a2eb72f94d2bb92e65536aa27633ef3a7328668e6871a31d9ec1ea6cdeae64736f6c634300081a0033\n}\n",
				"bytecode": {
					"linkReferences": {},
					"object": "6080604052348015600e575f80fd5b50610d748061001c5f395ff3fe608060405234801561000f575f80fd5b506004361061004a575f3560e01c806306ead22e1461004e57806312e473ad1461007f57806329f72b391461009b5780636043e8b3146100cb575b5f80fd5b6100686004803603810190610063919061047b565b6100fb565b604051610076929190610525565b60405180910390f35b61009960048036038101906100949190610743565b6101a0565b005b6100b560048036038101906100b0919061047b565b6102a7565b6040516100c291906107cb565b60405180910390f35b6100e560048036038101906100e0919061047b565b610368565b6040516100f2919061089b565b60405180910390f35b5f602052805f5260405f205f91509050805f018054610119906108e8565b80601f0160208091040260200160405190810160405280929190818152602001828054610145906108e8565b80156101905780601f1061016757610100808354040283529160200191610190565b820191905f5260205f20905b81548152906001019060200180831161017357829003601f168201915b5050505050908060010154905082565b5f805f8581526020019081526020015f2060010154146101f5576040517f08c379a00000000000000000000000000000000000000000000000000000000081526004016101ec90610962565b60405180910390fd5b6006815114610239576040517f08c379a0000000000000000000000000000000000000000000000000000000008152600401610230906109ca565b60405180910390fd5b6040518060600160405280838152602001848152602001828152505f808581526020019081526020015f205f820151815f0190816102779190610b85565b5060208201518160010155604082015181600201908051906020019061029e9291906103d1565b50905050505050565b5f805f808481526020019081526020015f2060020180548060200260200160405190810160405280929190818152602001828054801561030457602002820191905f5260205f20905b8154815260200190600101908083116102f0575b505050505090505f805b825181101561034c5782818151811061032a57610329610c54565b5b60200260200101518261033d9190610cae565b9150808060010191505061030e565b505f82518261035b9190610d0e565b9050809350505050919050565b60605f808381526020019081526020015f206002018054806020026020016040519081016040528092919081815260200182805480156103c557602002820191905f5260205f20905b8154815260200190600101908083116103b1575b50505050509050919050565b828054828255905f5260205f2090810192821561040b579160200282015b8281111561040a5782518255916020019190600101906103ef565b5b509050610418919061041c565b5090565b5b80821115610433575f815f90555060010161041d565b5090565b5f604051905090565b5f80fd5b5f80fd5b5f819050919050565b61045a81610448565b8114610464575f80fd5b50565b5f8135905061047581610451565b92915050565b5f602082840312156104905761048f610440565b5b5f61049d84828501610467565b91505092915050565b5f81519050919050565b5f82825260208201905092915050565b8281835e5f83830152505050565b5f601f19601f8301169050919050565b5f6104e8826104a6565b6104f281856104b0565b93506105028185602086016104c0565b61050b816104ce565b840191505092915050565b61051f81610448565b82525050565b5f6040820190508181035f83015261053d81856104de565b905061054c6020830184610516565b9392505050565b5f80fd5b5f80fd5b7f4e487b71000000000000000000000000000000000000000000000000000000005f52604160045260245ffd5b610591826104ce565b810181811067ffffffffffffffff821117156105b0576105af61055b565b5b80604052505050565b5f6105c2610437565b90506105ce8282610588565b919050565b5f67ffffffffffffffff8211156105ed576105ec61055b565b5b6105f6826104ce565b9050602081019050919050565b828183375f83830152505050565b5f61062361061e846105d3565b6105b9565b90508281526020810184848401111561063f5761063e610557565b5b61064a848285610603565b509392505050565b5f82601f83011261066657610665610553565b5b8135610676848260208601610611565b91505092915050565b5f67ffffffffffffffff8211156106995761069861055b565b5b602082029050602081019050919050565b5f80fd5b5f6106c06106bb8461067f565b6105b9565b905080838252602082019050602084028301858111156106e3576106e26106aa565b5b835b8181101561070c57806106f88882610467565b8452602084019350506020810190506106e5565b5050509392505050565b5f82601f83011261072a57610729610553565b5b813561073a8482602086016106ae565b91505092915050565b5f805f6060848603121561075a57610759610440565b5b5f61076786828701610467565b935050602084013567ffffffffffffffff81111561078857610787610444565b5b61079486828701610652565b925050604084013567ffffffffffffffff8111156107b5576107b4610444565b5b6107c186828701610716565b9150509250925092565b5f6020820190506107de5f830184610516565b92915050565b5f81519050919050565b5f82825260208201905092915050565b5f819050602082019050919050565b61081681610448565b82525050565b5f610827838361080d565b60208301905092915050565b5f602082019050919050565b5f610849826107e4565b61085381856107ee565b935061085e836107fe565b805f5b8381101561088e578151610875888261081c565b975061088083610833565b925050600181019050610861565b5085935050505092915050565b5f6020820190508181035f8301526108b3818461083f565b905092915050565b7f4e487b71000000000000000000000000000000000000000000000000000000005f52602260045260245ffd5b5f60028204905060018216806108ff57607f821691505b602082108103610912576109116108bb565b5b50919050565b7f53747564656e7420616c726561647920657869737473000000000000000000005f82015250565b5f61094c6016836104b0565b915061095782610918565b602082019050919050565b5f6020820190508181035f83015261097981610940565b9050919050565b7f496e76616c6964206e756d626572206f66207375626a656374730000000000005f82015250565b5f6109b4601a836104b0565b91506109bf82610980565b602082019050919050565b5f6020820190508181035f8301526109e1816109a8565b9050919050565b5f819050815f5260205f209050919050565b5f6020601f8301049050919050565b5f82821b905092915050565b5f60088302610a447fffffffffffffffffffffffffffffffffffffffffffffffffffffffffffffffff82610a09565b610a4e8683610a09565b95508019841693508086168417925050509392505050565b5f819050919050565b5f610a89610a84610a7f84610448565b610a66565b610448565b9050919050565b5f819050919050565b610aa283610a6f565b610ab6610aae82610a90565b848454610a15565b825550505050565b5f90565b610aca610abe565b610ad5818484610a99565b505050565b5b81811015610af857610aed5f82610ac2565b600181019050610adb565b5050565b601f821115610b3d57610b0e816109e8565b610b17846109fa565b81016020851015610b26578190505b610b3a610b32856109fa565b830182610ada565b50505b505050565b5f82821c905092915050565b5f610b5d5f1984600802610b42565b1980831691505092915050565b5f610b758383610b4e565b9150826002028217905092915050565b610b8e826104a6565b67ffffffffffffffff811115610ba757610ba661055b565b5b610bb182546108e8565b610bbc828285610afc565b5f60209050601f831160018114610bed575f8415610bdb578287015190505b610be58582610b6a565b865550610c4c565b601f198416610bfb866109e8565b5f5b82811015610c2257848901518255600182019150602085019450602081019050610bfd565b86831015610c3f5784890151610c3b601f891682610b4e565b8355505b6001600288020188555050505b505050505050565b7f4e487b71000000000000000000000000000000000000000000000000000000005f52603260045260245ffd5b7f4e487b71000000000000000000000000000000000000000000000000000000005f52601160045260245ffd5b5f610cb882610448565b9150610cc383610448565b9250828201905080821115610cdb57610cda610c81565b5b92915050565b7f4e487b71000000000000000000000000000000000000000000000000000000005f52601260045260245ffd5b5f610d1882610448565b9150610d2383610448565b925082610d3357610d32610ce1565b5b82820490509291505056fea264697066735822122054e1a2eb72f94d2bb92e65536aa27633ef3a7328668e6871a31d9ec1ea6cdeae64736f6c634300081a0033",
					"opcodes": "PUSH1 0x80 PUSH1 0x40 MSTORE CALLVALUE DUP1 ISZERO PUSH1 0xE JUMPI PUSH0 DUP1 REVERT JUMPDEST POP PUSH2 0xD74 DUP1 PUSH2 0x1C PUSH0 CODECOPY PUSH0 RETURN INVALID PUSH1 0x80 PUSH1 0x40 MSTORE CALLVALUE DUP1 ISZERO PUSH2 0xF JUMPI PUSH0 DUP1 REVERT JUMPDEST POP PUSH1 0x4 CALLDATASIZE LT PUSH2 0x4A JUMPI PUSH0 CALLDATALOAD PUSH1 0xE0 SHR DUP1 PUSH4 0x6EAD22E EQ PUSH2 0x4E JUMPI DUP1 PUSH4 0x12E473AD EQ PUSH2 0x7F JUMPI DUP1 PUSH4 0x29F72B39 EQ PUSH2 0x9B JUMPI DUP1 PUSH4 0x6043E8B3 EQ PUSH2 0xCB JUMPI JUMPDEST PUSH0 DUP1 REVERT JUMPDEST PUSH2 0x68 PUSH1 0x4 DUP1 CALLDATASIZE SUB DUP2 ADD SWAP1 PUSH2 0x63 SWAP2 SWAP1 PUSH2 0x47B JUMP JUMPDEST PUSH2 0xFB JUMP JUMPDEST PUSH1 0x40 MLOAD PUSH2 0x76 SWAP3 SWAP2 SWAP1 PUSH2 0x525 JUMP JUMPDEST PUSH1 0x40 MLOAD DUP1 SWAP2 SUB SWAP1 RETURN JUMPDEST PUSH2 0x99 PUSH1 0x4 DUP1 CALLDATASIZE SUB DUP2 ADD SWAP1 PUSH2 0x94 SWAP2 SWAP1 PUSH2 0x743 JUMP JUMPDEST PUSH2 0x1A0 JUMP JUMPDEST STOP JUMPDEST PUSH2 0xB5 PUSH1 0x4 DUP1 CALLDATASIZE SUB DUP2 ADD SWAP1 PUSH2 0xB0 SWAP2 SWAP1 PUSH2 0x47B JUMP JUMPDEST PUSH2 0x2A7 JUMP JUMPDEST PUSH1 0x40 MLOAD PUSH2 0xC2 SWAP2 SWAP1 PUSH2 0x7CB JUMP JUMPDEST PUSH1 0x40 MLOAD DUP1 SWAP2 SUB SWAP1 RETURN JUMPDEST PUSH2 0xE5 PUSH1 0x4 DUP1 CALLDATASIZE SUB DUP2 ADD SWAP1 PUSH2 0xE0 SWAP2 SWAP1 PUSH2 0x47B JUMP JUMPDEST PUSH2 0x368 JUMP JUMPDEST PUSH1 0x40 MLOAD PUSH2 0xF2 SWAP2 SWAP1 PUSH2 0x89B JUMP JUMPDEST PUSH1 0x40 MLOAD DUP1 SWAP2 SUB SWAP1 RETURN JUMPDEST PUSH0 PUSH1 0x20 MSTORE DUP1 PUSH0 MSTORE PUSH1 0x40 PUSH0 KECCAK256 PUSH0 SWAP2 POP SWAP1 POP DUP1 PUSH0 ADD DUP1 SLOAD PUSH2 0x119 SWAP1 PUSH2 0x8E8 JUMP JUMPDEST DUP1 PUSH1 0x1F ADD PUSH1 0x20 DUP1 SWAP2 DIV MUL PUSH1 0x20 ADD PUSH1 0x40 MLOAD SWAP1 DUP2 ADD PUSH1 0x40 MSTORE DUP1 SWAP3 SWAP2 SWAP1 DUP2 DUP2 MSTORE PUSH1 0x20 ADD DUP3 DUP1 SLOAD PUSH2 0x145 SWAP1 PUSH2 0x8E8 JUMP JUMPDEST DUP1 ISZERO PUSH2 0x190 JUMPI DUP1 PUSH1 0x1F LT PUSH2 0x167 JUMPI PUSH2 0x100 DUP1 DUP4 SLOAD DIV MUL DUP4 MSTORE SWAP2 PUSH1 0x20 ADD SWAP2 PUSH2 0x190 JUMP JUMPDEST DUP3 ADD SWAP2 SWAP1 PUSH0 MSTORE PUSH1 0x20 PUSH0 KECCAK256 SWAP1 JUMPDEST DUP2 SLOAD DUP2 MSTORE SWAP1 PUSH1 0x1 ADD SWAP1 PUSH1 0x20 ADD DUP1 DUP4 GT PUSH2 0x173 JUMPI DUP3 SWAP1 SUB PUSH1 0x1F AND DUP3 ADD SWAP2 JUMPDEST POP POP POP POP POP SWAP1 DUP1 PUSH1 0x1 ADD SLOAD SWAP1 POP DUP3 JUMP JUMPDEST PUSH0 DUP1 PUSH0 DUP6 DUP2 MSTORE PUSH1 0x20 ADD SWAP1 DUP2 MSTORE PUSH1 0x20 ADD PUSH0 KECCAK256 PUSH1 0x1 ADD SLOAD EQ PUSH2 0x1F5 JUMPI PUSH1 0x40 MLOAD PUSH32 0x8C379A000000000000000000000000000000000000000000000000000000000 DUP2 MSTORE PUSH1 0x4 ADD PUSH2 0x1EC SWAP1 PUSH2 0x962 JUMP JUMPDEST PUSH1 0x40 MLOAD DUP1 SWAP2 SUB SWAP1 REVERT JUMPDEST PUSH1 0x6 DUP2 MLOAD EQ PUSH2 0x239 JUMPI PUSH1 0x40 MLOAD PUSH32 0x8C379A000000000000000000000000000000000000000000000000000000000 DUP2 MSTORE PUSH1 0x4 ADD PUSH2 0x230 SWAP1 PUSH2 0x9CA JUMP JUMPDEST PUSH1 0x40 MLOAD DUP1 SWAP2 SUB SWAP1 REVERT JUMPDEST PUSH1 0x40 MLOAD DUP1 PUSH1 0x60 ADD PUSH1 0x40 MSTORE DUP1 DUP4 DUP2 MSTORE PUSH1 0x20 ADD DUP5 DUP2 MSTORE PUSH1 0x20 ADD DUP3 DUP2 MSTORE POP PUSH0 DUP1 DUP6 DUP2 MSTORE PUSH1 0x20 ADD SWAP1 DUP2 MSTORE PUSH1 0x20 ADD PUSH0 KECCAK256 PUSH0 DUP3 ADD MLOAD DUP2 PUSH0 ADD SWAP1 DUP2 PUSH2 0x277 SWAP2 SWAP1 PUSH2 0xB85 JUMP JUMPDEST POP PUSH1 0x20 DUP3 ADD MLOAD DUP2 PUSH1 0x1 ADD SSTORE PUSH1 0x40 DUP3 ADD MLOAD DUP2 PUSH1 0x2 ADD SWAP1 DUP1 MLOAD SWAP1 PUSH1 0x20 ADD SWAP1 PUSH2 0x29E SWAP3 SWAP2 SWAP1 PUSH2 0x3D1 JUMP JUMPDEST POP SWAP1 POP POP POP POP POP JUMP JUMPDEST PUSH0 DUP1 PUSH0 DUP1 DUP5 DUP2 MSTORE PUSH1 0x20 ADD SWAP1 DUP2 MSTORE PUSH1 0x20 ADD PUSH0 KECCAK256 PUSH1 0x2 ADD DUP1 SLOAD DUP1 PUSH1 0x20 MUL PUSH1 0x20 ADD PUSH1 0x40 MLOAD SWAP1 DUP2 ADD PUSH1 0x40 MSTORE DUP1 SWAP3 SWAP2 SWAP1 DUP2 DUP2 MSTORE PUSH1 0x20 ADD DUP3 DUP1 SLOAD DUP1 ISZERO PUSH2 0x304 JUMPI PUSH1 0x20 MUL DUP3 ADD SWAP2 SWAP1 PUSH0 MSTORE PUSH1 0x20 PUSH0 KECCAK256 SWAP1 JUMPDEST DUP2 SLOAD DUP2 MSTORE PUSH1 0x20 ADD SWAP1 PUSH1 0x1 ADD SWAP1 DUP1 DUP4 GT PUSH2 0x2F0 JUMPI JUMPDEST POP POP POP POP POP SWAP1 POP PUSH0 DUP1 JUMPDEST DUP3 MLOAD DUP2 LT ISZERO PUSH2 0x34C JUMPI DUP3 DUP2 DUP2 MLOAD DUP2 LT PUSH2 0x32A JUMPI PUSH2 0x329 PUSH2 0xC54 JUMP JUMPDEST JUMPDEST PUSH1 0x20 MUL PUSH1 0x20 ADD ADD MLOAD DUP3 PUSH2 0x33D SWAP2 SWAP1 PUSH2 0xCAE JUMP JUMPDEST SWAP2 POP DUP1 DUP1 PUSH1 0x1 ADD SWAP2 POP POP PUSH2 0x30E JUMP JUMPDEST POP PUSH0 DUP3 MLOAD DUP3 PUSH2 0x35B SWAP2 SWAP1 PUSH2 0xD0E JUMP JUMPDEST SWAP1 POP DUP1 SWAP4 POP POP POP POP SWAP2 SWAP1 POP JUMP JUMPDEST PUSH1 0x60 PUSH0 DUP1 DUP4 DUP2 MSTORE PUSH1 0x20 ADD SWAP1 DUP2 MSTORE PUSH1 0x20 ADD PUSH0 KECCAK256 PUSH1 0x2 ADD DUP1 SLOAD DUP1 PUSH1 0x20 MUL PUSH1 0x20 ADD PUSH1 0x40 MLOAD SWAP1 DUP2 ADD PUSH1 0x40 MSTORE DUP1 SWAP3 SWAP2 SWAP1 DUP2 DUP2 MSTORE PUSH1 0x20 ADD DUP3 DUP1 SLOAD DUP1 ISZERO PUSH2 0x3C5 JUMPI PUSH1 0x20 MUL DUP3 ADD SWAP2 SWAP1 PUSH0 MSTORE PUSH1 0x20 PUSH0 KECCAK256 SWAP1 JUMPDEST DUP2 SLOAD DUP2 MSTORE PUSH1 0x20 ADD SWAP1 PUSH1 0x1 ADD SWAP1 DUP1 DUP4 GT PUSH2 0x3B1 JUMPI JUMPDEST POP POP POP POP POP SWAP1 POP SWAP2 SWAP1 POP JUMP JUMPDEST DUP3 DUP1 SLOAD DUP3 DUP3 SSTORE SWAP1 PUSH0 MSTORE PUSH1 0x20 PUSH0 KECCAK256 SWAP1 DUP2 ADD SWAP3 DUP3 ISZERO PUSH2 0x40B JUMPI SWAP2 PUSH1 0x20 MUL DUP3 ADD JUMPDEST DUP3 DUP2 GT ISZERO PUSH2 0x40A JUMPI DUP3 MLOAD DUP3 SSTORE SWAP2 PUSH1 0x20 ADD SWAP2 SWAP1 PUSH1 0x1 ADD SWAP1 PUSH2 0x3EF JUMP JUMPDEST JUMPDEST POP SWAP1 POP PUSH2 0x418 SWAP2 SWAP1 PUSH2 0x41C JUMP JUMPDEST POP SWAP1 JUMP JUMPDEST JUMPDEST DUP1 DUP3 GT ISZERO PUSH2 0x433 JUMPI PUSH0 DUP2 PUSH0 SWAP1 SSTORE POP PUSH1 0x1 ADD PUSH2 0x41D JUMP JUMPDEST POP SWAP1 JUMP JUMPDEST PUSH0 PUSH1 0x40 MLOAD SWAP1 POP SWAP1 JUMP JUMPDEST PUSH0 DUP1 REVERT JUMPDEST PUSH0 DUP1 REVERT JUMPDEST PUSH0 DUP2 SWAP1 POP SWAP2 SWAP1 POP JUMP JUMPDEST PUSH2 0x45A DUP2 PUSH2 0x448 JUMP JUMPDEST DUP2 EQ PUSH2 0x464 JUMPI PUSH0 DUP1 REVERT JUMPDEST POP JUMP JUMPDEST PUSH0 DUP2 CALLDATALOAD SWAP1 POP PUSH2 0x475 DUP2 PUSH2 0x451 JUMP JUMPDEST SWAP3 SWAP2 POP POP JUMP JUMPDEST PUSH0 PUSH1 0x20 DUP3 DUP5 SUB SLT ISZERO PUSH2 0x490 JUMPI PUSH2 0x48F PUSH2 0x440 JUMP JUMPDEST JUMPDEST PUSH0 PUSH2 0x49D DUP5 DUP3 DUP6 ADD PUSH2 0x467 JUMP JUMPDEST SWAP2 POP POP SWAP3 SWAP2 POP POP JUMP JUMPDEST PUSH0 DUP2 MLOAD SWAP1 POP SWAP2 SWAP1 POP JUMP JUMPDEST PUSH0 DUP3 DUP3 MSTORE PUSH1 0x20 DUP3 ADD SWAP1 POP SWAP3 SWAP2 POP POP JUMP JUMPDEST DUP3 DUP2 DUP4 MCOPY PUSH0 DUP4 DUP4 ADD MSTORE POP POP POP JUMP JUMPDEST PUSH0 PUSH1 0x1F NOT PUSH1 0x1F DUP4 ADD AND SWAP1 POP SWAP2 SWAP1 POP JUMP JUMPDEST PUSH0 PUSH2 0x4E8 DUP3 PUSH2 0x4A6 JUMP JUMPDEST PUSH2 0x4F2 DUP2 DUP6 PUSH2 0x4B0 JUMP JUMPDEST SWAP4 POP PUSH2 0x502 DUP2 DUP6 PUSH1 0x20 DUP7 ADD PUSH2 0x4C0 JUMP JUMPDEST PUSH2 0x50B DUP2 PUSH2 0x4CE JUMP JUMPDEST DUP5 ADD SWAP2 POP POP SWAP3 SWAP2 POP POP JUMP JUMPDEST PUSH2 0x51F DUP2 PUSH2 0x448 JUMP JUMPDEST DUP3 MSTORE POP POP JUMP JUMPDEST PUSH0 PUSH1 0x40 DUP3 ADD SWAP1 POP DUP2 DUP2 SUB PUSH0 DUP4 ADD MSTORE PUSH2 0x53D DUP2 DUP6 PUSH2 0x4DE JUMP JUMPDEST SWAP1 POP PUSH2 0x54C PUSH1 0x20 DUP4 ADD DUP5 PUSH2 0x516 JUMP JUMPDEST SWAP4 SWAP3 POP POP POP JUMP JUMPDEST PUSH0 DUP1 REVERT JUMPDEST PUSH0 DUP1 REVERT JUMPDEST PUSH32 0x4E487B7100000000000000000000000000000000000000000000000000000000 PUSH0 MSTORE PUSH1 0x41 PUSH1 0x4 MSTORE PUSH1 0x24 PUSH0 REVERT JUMPDEST PUSH2 0x591 DUP3 PUSH2 0x4CE JUMP JUMPDEST DUP2 ADD DUP2 DUP2 LT PUSH8 0xFFFFFFFFFFFFFFFF DUP3 GT OR ISZERO PUSH2 0x5B0 JUMPI PUSH2 0x5AF PUSH2 0x55B JUMP JUMPDEST JUMPDEST DUP1 PUSH1 0x40 MSTORE POP POP POP JUMP JUMPDEST PUSH0 PUSH2 0x5C2 PUSH2 0x437 JUMP JUMPDEST SWAP1 POP PUSH2 0x5CE DUP3 DUP3 PUSH2 0x588 JUMP JUMPDEST SWAP2 SWAP1 POP JUMP JUMPDEST PUSH0 PUSH8 0xFFFFFFFFFFFFFFFF DUP3 GT ISZERO PUSH2 0x5ED JUMPI PUSH2 0x5EC PUSH2 0x55B JUMP JUMPDEST JUMPDEST PUSH2 0x5F6 DUP3 PUSH2 0x4CE JUMP JUMPDEST SWAP1 POP PUSH1 0x20 DUP2 ADD SWAP1 POP SWAP2 SWAP1 POP JUMP JUMPDEST DUP3 DUP2 DUP4 CALLDATACOPY PUSH0 DUP4 DUP4 ADD MSTORE POP POP POP JUMP JUMPDEST PUSH0 PUSH2 0x623 PUSH2 0x61E DUP5 PUSH2 0x5D3 JUMP JUMPDEST PUSH2 0x5B9 JUMP JUMPDEST SWAP1 POP DUP3 DUP2 MSTORE PUSH1 0x20 DUP2 ADD DUP5 DUP5 DUP5 ADD GT ISZERO PUSH2 0x63F JUMPI PUSH2 0x63E PUSH2 0x557 JUMP JUMPDEST JUMPDEST PUSH2 0x64A DUP5 DUP3 DUP6 PUSH2 0x603 JUMP JUMPDEST POP SWAP4 SWAP3 POP POP POP JUMP JUMPDEST PUSH0 DUP3 PUSH1 0x1F DUP4 ADD SLT PUSH2 0x666 JUMPI PUSH2 0x665 PUSH2 0x553 JUMP JUMPDEST JUMPDEST DUP2 CALLDATALOAD PUSH2 0x676 DUP5 DUP3 PUSH1 0x20 DUP7 ADD PUSH2 0x611 JUMP JUMPDEST SWAP2 POP POP SWAP3 SWAP2 POP POP JUMP JUMPDEST PUSH0 PUSH8 0xFFFFFFFFFFFFFFFF DUP3 GT ISZERO PUSH2 0x699 JUMPI PUSH2 0x698 PUSH2 0x55B JUMP JUMPDEST JUMPDEST PUSH1 0x20 DUP3 MUL SWAP1 POP PUSH1 0x20 DUP2 ADD SWAP1 POP SWAP2 SWAP1 POP JUMP JUMPDEST PUSH0 DUP1 REVERT JUMPDEST PUSH0 PUSH2 0x6C0 PUSH2 0x6BB DUP5 PUSH2 0x67F JUMP JUMPDEST PUSH2 0x5B9 JUMP JUMPDEST SWAP1 POP DUP1 DUP4 DUP3 MSTORE PUSH1 0x20 DUP3 ADD SWAP1 POP PUSH1 0x20 DUP5 MUL DUP4 ADD DUP6 DUP2 GT ISZERO PUSH2 0x6E3 JUMPI PUSH2 0x6E2 PUSH2 0x6AA JUMP JUMPDEST JUMPDEST DUP4 JUMPDEST DUP2 DUP2 LT ISZERO PUSH2 0x70C JUMPI DUP1 PUSH2 0x6F8 DUP9 DUP3 PUSH2 0x467 JUMP JUMPDEST DUP5 MSTORE PUSH1 0x20 DUP5 ADD SWAP4 POP POP PUSH1 0x20 DUP2 ADD SWAP1 POP PUSH2 0x6E5 JUMP JUMPDEST POP POP POP SWAP4 SWAP3 POP POP POP JUMP JUMPDEST PUSH0 DUP3 PUSH1 0x1F DUP4 ADD SLT PUSH2 0x72A JUMPI PUSH2 0x729 PUSH2 0x553 JUMP JUMPDEST JUMPDEST DUP2 CALLDATALOAD PUSH2 0x73A DUP5 DUP3 PUSH1 0x20 DUP7 ADD PUSH2 0x6AE JUMP JUMPDEST SWAP2 POP POP SWAP3 SWAP2 POP POP JUMP JUMPDEST PUSH0 DUP1 PUSH0 PUSH1 0x60 DUP5 DUP7 SUB SLT ISZERO PUSH2 0x75A JUMPI PUSH2 0x759 PUSH2 0x440 JUMP JUMPDEST JUMPDEST PUSH0 PUSH2 0x767 DUP7 DUP3 DUP8 ADD PUSH2 0x467 JUMP JUMPDEST SWAP4 POP POP PUSH1 0x20 DUP5 ADD CALLDATALOAD PUSH8 0xFFFFFFFFFFFFFFFF DUP2 GT ISZERO PUSH2 0x788 JUMPI PUSH2 0x787 PUSH2 0x444 JUMP JUMPDEST JUMPDEST PUSH2 0x794 DUP7 DUP3 DUP8 ADD PUSH2 0x652 JUMP JUMPDEST SWAP3 POP POP PUSH1 0x40 DUP5 ADD CALLDATALOAD PUSH8 0xFFFFFFFFFFFFFFFF DUP2 GT ISZERO PUSH2 0x7B5 JUMPI PUSH2 0x7B4 PUSH2 0x444 JUMP JUMPDEST JUMPDEST PUSH2 0x7C1 DUP7 DUP3 DUP8 ADD PUSH2 0x716 JUMP JUMPDEST SWAP2 POP POP SWAP3 POP SWAP3 POP SWAP3 JUMP JUMPDEST PUSH0 PUSH1 0x20 DUP3 ADD SWAP1 POP PUSH2 0x7DE PUSH0 DUP4 ADD DUP5 PUSH2 0x516 JUMP JUMPDEST SWAP3 SWAP2 POP POP JUMP JUMPDEST PUSH0 DUP2 MLOAD SWAP1 POP SWAP2 SWAP1 POP JUMP JUMPDEST PUSH0 DUP3 DUP3 MSTORE PUSH1 0x20 DUP3 ADD SWAP1 POP SWAP3 SWAP2 POP POP JUMP JUMPDEST PUSH0 DUP2 SWAP1 POP PUSH1 0x20 DUP3 ADD SWAP1 POP SWAP2 SWAP1 POP JUMP JUMPDEST PUSH2 0x816 DUP2 PUSH2 0x448 JUMP JUMPDEST DUP3 MSTORE POP POP JUMP JUMPDEST PUSH0 PUSH2 0x827 DUP4 DUP4 PUSH2 0x80D JUMP JUMPDEST PUSH1 0x20 DUP4 ADD SWAP1 POP SWAP3 SWAP2 POP POP JUMP JUMPDEST PUSH0 PUSH1 0x20 DUP3 ADD SWAP1 POP SWAP2 SWAP1 POP JUMP JUMPDEST PUSH0 PUSH2 0x849 DUP3 PUSH2 0x7E4 JUMP JUMPDEST PUSH2 0x853 DUP2 DUP6 PUSH2 0x7EE JUMP JUMPDEST SWAP4 POP PUSH2 0x85E DUP4 PUSH2 0x7FE JUMP JUMPDEST DUP1 PUSH0 JUMPDEST DUP4 DUP2 LT ISZERO PUSH2 0x88E JUMPI DUP2 MLOAD PUSH2 0x875 DUP9 DUP3 PUSH2 0x81C JUMP JUMPDEST SWAP8 POP PUSH2 0x880 DUP4 PUSH2 0x833 JUMP JUMPDEST SWAP3 POP POP PUSH1 0x1 DUP2 ADD SWAP1 POP PUSH2 0x861 JUMP JUMPDEST POP DUP6 SWAP4 POP POP POP POP SWAP3 SWAP2 POP POP JUMP JUMPDEST PUSH0 PUSH1 0x20 DUP3 ADD SWAP1 POP DUP2 DUP2 SUB PUSH0 DUP4 ADD MSTORE PUSH2 0x8B3 DUP2 DUP5 PUSH2 0x83F JUMP JUMPDEST SWAP1 POP SWAP3 SWAP2 POP POP JUMP JUMPDEST PUSH32 0x4E487B7100000000000000000000000000000000000000000000000000000000 PUSH0 MSTORE PUSH1 0x22 PUSH1 0x4 MSTORE PUSH1 0x24 PUSH0 REVERT JUMPDEST PUSH0 PUSH1 0x2 DUP3 DIV SWAP1 POP PUSH1 0x1 DUP3 AND DUP1 PUSH2 0x8FF JUMPI PUSH1 0x7F DUP3 AND SWAP2 POP JUMPDEST PUSH1 0x20 DUP3 LT DUP2 SUB PUSH2 0x912 JUMPI PUSH2 0x911 PUSH2 0x8BB JUMP JUMPDEST JUMPDEST POP SWAP2 SWAP1 POP JUMP JUMPDEST PUSH32 0x53747564656E7420616C72656164792065786973747300000000000000000000 PUSH0 DUP3 ADD MSTORE POP JUMP JUMPDEST PUSH0 PUSH2 0x94C PUSH1 0x16 DUP4 PUSH2 0x4B0 JUMP JUMPDEST SWAP2 POP PUSH2 0x957 DUP3 PUSH2 0x918 JUMP JUMPDEST PUSH1 0x20 DUP3 ADD SWAP1 POP SWAP2 SWAP1 POP JUMP JUMPDEST PUSH0 PUSH1 0x20 DUP3 ADD SWAP1 POP DUP2 DUP2 SUB PUSH0 DUP4 ADD MSTORE PUSH2 0x979 DUP2 PUSH2 0x940 JUMP JUMPDEST SWAP1 POP SWAP2 SWAP1 POP JUMP JUMPDEST PUSH32 0x496E76616C6964206E756D626572206F66207375626A65637473000000000000 PUSH0 DUP3 ADD MSTORE POP JUMP JUMPDEST PUSH0 PUSH2 0x9B4 PUSH1 0x1A DUP4 PUSH2 0x4B0 JUMP JUMPDEST SWAP2 POP PUSH2 0x9BF DUP3 PUSH2 0x980 JUMP JUMPDEST PUSH1 0x20 DUP3 ADD SWAP1 POP SWAP2 SWAP1 POP JUMP JUMPDEST PUSH0 PUSH1 0x20 DUP3 ADD SWAP1 POP DUP2 DUP2 SUB PUSH0 DUP4 ADD MSTORE PUSH2 0x9E1 DUP2 PUSH2 0x9A8 JUMP JUMPDEST SWAP1 POP SWAP2 SWAP1 POP JUMP JUMPDEST PUSH0 DUP2 SWAP1 POP DUP2 PUSH0 MSTORE PUSH1 0x20 PUSH0 KECCAK256 SWAP1 POP SWAP2 SWAP1 POP JUMP JUMPDEST PUSH0 PUSH1 0x20 PUSH1 0x1F DUP4 ADD DIV SWAP1 POP SWAP2 SWAP1 POP JUMP JUMPDEST PUSH0 DUP3 DUP3 SHL SWAP1 POP SWAP3 SWAP2 POP POP JUMP JUMPDEST PUSH0 PUSH1 0x8 DUP4 MUL PUSH2 0xA44 PUSH32 0xFFFFFFFFFFFFFFFFFFFFFFFFFFFFFFFFFFFFFFFFFFFFFFFFFFFFFFFFFFFFFFFF DUP3 PUSH2 0xA09 JUMP JUMPDEST PUSH2 0xA4E DUP7 DUP4 PUSH2 0xA09 JUMP JUMPDEST SWAP6 POP DUP1 NOT DUP5 AND SWAP4 POP DUP1 DUP7 AND DUP5 OR SWAP3 POP POP POP SWAP4 SWAP3 POP POP POP JUMP JUMPDEST PUSH0 DUP2 SWAP1 POP SWAP2 SWAP1 POP JUMP JUMPDEST PUSH0 PUSH2 0xA89 PUSH2 0xA84 PUSH2 0xA7F DUP5 PUSH2 0x448 JUMP JUMPDEST PUSH2 0xA66 JUMP JUMPDEST PUSH2 0x448 JUMP JUMPDEST SWAP1 POP SWAP2 SWAP1 POP JUMP JUMPDEST PUSH0 DUP2 SWAP1 POP SWAP2 SWAP1 POP JUMP JUMPDEST PUSH2 0xAA2 DUP4 PUSH2 0xA6F JUMP JUMPDEST PUSH2 0xAB6 PUSH2 0xAAE DUP3 PUSH2 0xA90 JUMP JUMPDEST DUP5 DUP5 SLOAD PUSH2 0xA15 JUMP JUMPDEST DUP3 SSTORE POP POP POP POP JUMP JUMPDEST PUSH0 SWAP1 JUMP JUMPDEST PUSH2 0xACA PUSH2 0xABE JUMP JUMPDEST PUSH2 0xAD5 DUP2 DUP5 DUP5 PUSH2 0xA99 JUMP JUMPDEST POP POP POP JUMP JUMPDEST JUMPDEST DUP2 DUP2 LT ISZERO PUSH2 0xAF8 JUMPI PUSH2 0xAED PUSH0 DUP3 PUSH2 0xAC2 JUMP JUMPDEST PUSH1 0x1 DUP2 ADD SWAP1 POP PUSH2 0xADB JUMP JUMPDEST POP POP JUMP JUMPDEST PUSH1 0x1F DUP3 GT ISZERO PUSH2 0xB3D JUMPI PUSH2 0xB0E DUP2 PUSH2 0x9E8 JUMP JUMPDEST PUSH2 0xB17 DUP5 PUSH2 0x9FA JUMP JUMPDEST DUP2 ADD PUSH1 0x20 DUP6 LT ISZERO PUSH2 0xB26 JUMPI DUP2 SWAP1 POP JUMPDEST PUSH2 0xB3A PUSH2 0xB32 DUP6 PUSH2 0x9FA JUMP JUMPDEST DUP4 ADD DUP3 PUSH2 0xADA JUMP JUMPDEST POP POP JUMPDEST POP POP POP JUMP JUMPDEST PUSH0 DUP3 DUP3 SHR SWAP1 POP SWAP3 SWAP2 POP POP JUMP JUMPDEST PUSH0 PUSH2 0xB5D PUSH0 NOT DUP5 PUSH1 0x8 MUL PUSH2 0xB42 JUMP JUMPDEST NOT DUP1 DUP4 AND SWAP2 POP POP SWAP3 SWAP2 POP POP JUMP JUMPDEST PUSH0 PUSH2 0xB75 DUP4 DUP4 PUSH2 0xB4E JUMP JUMPDEST SWAP2 POP DUP3 PUSH1 0x2 MUL DUP3 OR SWAP1 POP SWAP3 SWAP2 POP POP JUMP JUMPDEST PUSH2 0xB8E DUP3 PUSH2 0x4A6 JUMP JUMPDEST PUSH8 0xFFFFFFFFFFFFFFFF DUP2 GT ISZERO PUSH2 0xBA7 JUMPI PUSH2 0xBA6 PUSH2 0x55B JUMP JUMPDEST JUMPDEST PUSH2 0xBB1 DUP3 SLOAD PUSH2 0x8E8 JUMP JUMPDEST PUSH2 0xBBC DUP3 DUP3 DUP6 PUSH2 0xAFC JUMP JUMPDEST PUSH0 PUSH1 0x20 SWAP1 POP PUSH1 0x1F DUP4 GT PUSH1 0x1 DUP2 EQ PUSH2 0xBED JUMPI PUSH0 DUP5 ISZERO PUSH2 0xBDB JUMPI DUP3 DUP8 ADD MLOAD SWAP1 POP JUMPDEST PUSH2 0xBE5 DUP6 DUP3 PUSH2 0xB6A JUMP JUMPDEST DUP7 SSTORE POP PUSH2 0xC4C JUMP JUMPDEST PUSH1 0x1F NOT DUP5 AND PUSH2 0xBFB DUP7 PUSH2 0x9E8 JUMP JUMPDEST PUSH0 JUMPDEST DUP3 DUP2 LT ISZERO PUSH2 0xC22 JUMPI DUP5 DUP10 ADD MLOAD DUP3 SSTORE PUSH1 0x1 DUP3 ADD SWAP2 POP PUSH1 0x20 DUP6 ADD SWAP5 POP PUSH1 0x20 DUP2 ADD SWAP1 POP PUSH2 0xBFD JUMP JUMPDEST DUP7 DUP4 LT ISZERO PUSH2 0xC3F JUMPI DUP5 DUP10 ADD MLOAD PUSH2 0xC3B PUSH1 0x1F DUP10 AND DUP3 PUSH2 0xB4E JUMP JUMPDEST DUP4 SSTORE POP JUMPDEST PUSH1 0x1 PUSH1 0x2 DUP9 MUL ADD DUP9 SSTORE POP POP POP JUMPDEST POP POP POP POP POP POP JUMP JUMPDEST PUSH32 0x4E487B7100000000000000000000000000000000000000000000000000000000 PUSH0 MSTORE PUSH1 0x32 PUSH1 0x4 MSTORE PUSH1 0x24 PUSH0 REVERT JUMPDEST PUSH32 0x4E487B7100000000000000000000000000000000000000000000000000000000 PUSH0 MSTORE PUSH1 0x11 PUSH1 0x4 MSTORE PUSH1 0x24 PUSH0 REVERT JUMPDEST PUSH0 PUSH2 0xCB8 DUP3 PUSH2 0x448 JUMP JUMPDEST SWAP2 POP PUSH2 0xCC3 DUP4 PUSH2 0x448 JUMP JUMPDEST SWAP3 POP DUP3 DUP3 ADD SWAP1 POP DUP1 DUP3 GT ISZERO PUSH2 0xCDB JUMPI PUSH2 0xCDA PUSH2 0xC81 JUMP JUMPDEST JUMPDEST SWAP3 SWAP2 POP POP JUMP JUMPDEST PUSH32 0x4E487B7100000000000000000000000000000000000000000000000000000000 PUSH0 MSTORE PUSH1 0x12 PUSH1 0x4 MSTORE PUSH1 0x24 PUSH0 REVERT JUMPDEST PUSH0 PUSH2 0xD18 DUP3 PUSH2 0x448 JUMP JUMPDEST SWAP2 POP PUSH2 0xD23 DUP4 PUSH2 0x448 JUMP JUMPDEST SWAP3 POP DUP3 PUSH2 0xD33 JUMPI PUSH2 0xD32 PUSH2 0xCE1 JUMP JUMPDEST JUMPDEST DUP3 DUP3 DIV SWAP1 POP SWAP3 SWAP2 POP POP JUMP INVALID LOG2 PUSH5 0x6970667358 0x22 SLT KECCAK256 SLOAD 0xE1 LOG2 0xEB PUSH19 0xF94D2BB92E65536AA27633EF3A7328668E6871 LOG3 SAR SWAP15 0xC1 0xEA PUSH13 0xDEAE64736F6C634300081A0033 "
				},
				"gasEstimates": {
					"creation": {
						"codeDepositCost": "688800",
						"executionCost": "719",
						"totalCost": "689519"
					},
					"external": {
						"addStudent(uint256,string,uint256[])": "infinite",
						"calculatePercentage(uint256)": "infinite",
						"getStudentMarks(uint256)": "infinite",
						"students(uint256)": "infinite"
					}
				},
				"methodIdentifiers": {
					"addStudent(uint256,string,uint256[])": "12e473ad",
					"calculatePercentage(uint256)": "29f72b39",
					"getStudentMarks(uint256)": "6043e8b3",
					"students(uint256)": "06ead22e"
				}
			},
			"storageLayout": {
				"storage": [
					{
						"astId": 14,
						"contract": "contracts/Practicals/PercentageCalculation.sol:StudentMarks",
						"label": "students",
						"offset": 0,
						"slot": "0",
						"type": "t_mapping(t_uint256,t_struct(Student)9_storage)"
					}
				],
				"types": {
					"t_array(t_uint256)dyn_storage": {
						"base": "t_uint256",
						"encoding": "dynamic_array",
						"label": "uint256[]",
						"numberOfBytes": "32"
					},
					"t_mapping(t_uint256,t_struct(Student)9_storage)": {
						"encoding": "mapping",
						"key": "t_uint256",
						"label": "mapping(uint256 => struct StudentMarks.Student)",
						"numberOfBytes": "32",
						"value": "t_struct(Student)9_storage"
					},
					"t_string_storage": {
						"encoding": "bytes",
						"label": "string",
						"numberOfBytes": "32"
					},
					"t_struct(Student)9_storage": {
						"encoding": "inplace",
						"label": "struct StudentMarks.Student",
						"members": [
							{
								"astId": 3,
								"contract": "contracts/Practicals/PercentageCalculation.sol:StudentMarks",
								"label": "name",
								"offset": 0,
								"slot": "0",
								"type": "t_string_storage"
							},
							{
								"astId": 5,
								"contract": "contracts/Practicals/PercentageCalculation.sol:StudentMarks",
								"label": "rollNumber",
								"offset": 0,
								"slot": "1",
								"type": "t_uint256"
							},
							{
								"astId": 8,
								"contract": "contracts/Practicals/PercentageCalculation.sol:StudentMarks",
								"label": "marks",
								"offset": 0,
								"slot": "2",
								"type": "t_array(t_uint256)dyn_storage"
							}
						],
						"numberOfBytes": "96"
					},
					"t_uint256": {
						"encoding": "inplace",
						"label": "uint256",
						"numberOfBytes": "32"
					}
				}
			},
			"userdoc": {
				"kind": "user",
				"methods": {},
				"version": 1
			}
		}
	}
}