{
	"contracts/Practicals/Calculator.sol": {
		"Calculator": {
			"abi": [
				{
					"inputs": [
						{
							"internalType": "uint256",
							"name": "_a",
							"type": "uint256"
						},
						{
							"internalType": "uint256",
							"name": "_b",
							"type": "uint256"
						}
					],
					"name": "add",
					"outputs": [
						{
							"internalType": "uint256",
							"name": "",
							"type": "uint256"
						}
					],
					"stateMutability": "pure",
					"type": "function"
				},
				{
					"inputs": [
						{
							"internalType": "uint256",
							"name": "_a",
							"type": "uint256"
						},
						{
							"internalType": "uint256",
							"name": "_b",
							"type": "uint256"
						}
					],
					"name": "divide",
					"outputs": [
						{
							"internalType": "uint256",
							"name": "",
							"type": "uint256"
						}
					],
					"stateMutability": "pure",
					"type": "function"
				},
				{
					"inputs": [
						{
							"internalType": "uint256",
							"name": "_a",
							"type": "uint256"
						},
						{
							"internalType": "uint256",
							"name": "_b",
							"type": "uint256"
						}
					],
					"name": "exponentiate",
					"outputs": [
						{
							"internalType": "uint256",
							"name": "",
							"type": "uint256"
						}
					],
					"stateMutability": "pure",
					"type": "function"
				},
				{
					"inputs": [
						{
							"internalType": "uint256",
							"name": "_a",
							"type": "uint256"
						},
						{
							"internalType": "uint256",
							"name": "_b",
							"type": "uint256"
						}
					],
					"name": "modulus",
					"outputs": [
						{
							"internalType": "uint256",
							"name": "",
							"type": "uint256"
						}
					],
					"stateMutability": "pure",
					"type": "function"
				},
				{
					"inputs": [
						{
							"internalType": "uint256",
							"name": "_a",
							"type": "uint256"
						},
						{
							"internalType": "uint256",
							"name": "_b",
							"type": "uint256"
						}
					],
					"name": "multiply",
					"outputs": [
						{
							"internalType": "uint256",
							"name": "",
							"type": "uint256"
						}
					],
					"stateMutability": "pure",
					"type": "function"
				},
				{
					"inputs": [
						{
							"internalType": "uint256",
							"name": "_a",
							"type": "uint256"
						},
						{
							"internalType": "uint256",
							"name": "_b",
							"type": "uint256"
						}
					],
					"name": "subtract",
					"outputs": [
						{
							"internalType": "uint256",
							"name": "",
							"type": "uint256"
						}
					],
					"stateMutability": "pure",
					"type": "function"
				}
			],
			"devdoc": {
				"kind": "dev",
				"methods": {},
				"version": 1
			},
			"evm": {
				"assembly": "    /* \"contracts/Practicals/Calculator.sol\":70:1023  contract Calculator{... */\n  mstore(0x40, 0x80)\n  callvalue\n  dup1\n  iszero\n  tag_1\n  jumpi\n  0x00\n  dup1\n  revert\ntag_1:\n  pop\n  dataSize(sub_0)\n  dup1\n  dataOffset(sub_0)\n  0x00\n  codecopy\n  0x00\n  return\nstop\n\nsub_0: assembly {\n        /* \"contracts/Practicals/Calculator.sol\":70:1023  contract Calculator{... */\n      mstore(0x40, 0x80)\n      callvalue\n      dup1\n      iszero\n      tag_1\n      jumpi\n      0x00\n      dup1\n      revert\n    tag_1:\n      pop\n      jumpi(tag_2, lt(calldatasize, 0x04))\n      shr(0xe0, calldataload(0x00))\n      dup1\n      0x165c4a16\n      eq\n      tag_3\n      jumpi\n      dup1\n      0x3ef5e445\n      eq\n      tag_4\n      jumpi\n      dup1\n      0x72931904\n      eq\n      tag_5\n      jumpi\n      dup1\n      0x771602f7\n      eq\n      tag_6\n      jumpi\n      dup1\n      0xce406417\n      eq\n      tag_7\n      jumpi\n      dup1\n      0xf88e9fbf\n      eq\n      tag_8\n      jumpi\n    tag_2:\n      0x00\n      dup1\n      revert\n        /* \"contracts/Practicals/Calculator.sol\":327:432  function multiply(uint256 _a, uint256 _b) public pure returns (uint256) {... */\n    tag_3:\n      tag_9\n      0x04\n      dup1\n      calldatasize\n      sub\n      dup2\n      add\n      swap1\n      tag_10\n      swap2\n      swap1\n      tag_11\n      jump\t// in\n    tag_10:\n      tag_12\n      jump\t// in\n    tag_9:\n      mload(0x40)\n      tag_13\n      swap2\n      swap1\n      tag_14\n      jump\t// in\n    tag_13:\n      mload(0x40)\n      dup1\n      swap2\n      sub\n      swap1\n      return\n        /* \"contracts/Practicals/Calculator.sol\":209:314  function subtract(uint256 _a, uint256 _b) public pure returns (uint256) {... */\n    tag_4:\n      tag_15\n      0x04\n      dup1\n      calldatasize\n      sub\n      dup2\n      add\n      swap1\n      tag_16\n      swap2\n      swap1\n      tag_11\n      jump\t// in\n    tag_16:\n      tag_17\n      jump\t// in\n    tag_15:\n      mload(0x40)\n      tag_18\n      swap2\n      swap1\n      tag_14\n      jump\t// in\n    tag_18:\n      mload(0x40)\n      dup1\n      swap2\n      sub\n      swap1\n      return\n        /* \"contracts/Practicals/Calculator.sol\":801:1020  function exponentiate(uint256 _a, uint256 _b) public pure returns (uint256) {... */\n    tag_5:\n      tag_19\n      0x04\n      dup1\n      calldatasize\n      sub\n      dup2\n      add\n      swap1\n      tag_20\n      swap2\n      swap1\n      tag_11\n      jump\t// in\n    tag_20:\n      tag_21\n      jump\t// in\n    tag_19:\n      mload(0x40)\n      tag_22\n      swap2\n      swap1\n      tag_14\n      jump\t// in\n    tag_22:\n      mload(0x40)\n      dup1\n      swap2\n      sub\n      swap1\n      return\n        /* \"contracts/Practicals/Calculator.sol\":96:196  function add(uint256 _a, uint256 _b) public pure returns (uint256) {... */\n    tag_6:\n      tag_23\n      0x04\n      dup1\n      calldatasize\n      sub\n      dup2\n      add\n      swap1\n      tag_24\n      swap2\n      swap1\n      tag_11\n      jump\t// in\n    tag_24:\n      tag_25\n      jump\t// in\n    tag_23:\n      mload(0x40)\n      tag_26\n      swap2\n      swap1\n      tag_14\n      jump\t// in\n    tag_26:\n      mload(0x40)\n      dup1\n      swap2\n      sub\n      swap1\n      return\n        /* \"contracts/Practicals/Calculator.sol\":623:788  function modulus(uint256 _a, uint256 _b) public pure returns (uint256) {... */\n    tag_7:\n      tag_27\n      0x04\n      dup1\n      calldatasize\n      sub\n      dup2\n      add\n      swap1\n      tag_28\n      swap2\n      swap1\n      tag_11\n      jump\t// in\n    tag_28:\n      tag_29\n      jump\t// in\n    tag_27:\n      mload(0x40)\n      tag_30\n      swap2\n      swap1\n      tag_14\n      jump\t// in\n    tag_30:\n      mload(0x40)\n      dup1\n      swap2\n      sub\n      swap1\n      return\n        /* \"contracts/Practicals/Calculator.sol\":445:610  function divide(uint256 _a, uint256 _b) public pure returns (uint256) {... */\n    tag_8:\n      tag_31\n      0x04\n      dup1\n      calldatasize\n      sub\n      dup2\n      add\n      swap1\n      tag_32\n      swap2\n      swap1\n      tag_11\n      jump\t// in\n    tag_32:\n      tag_33\n      jump\t// in\n    tag_31:\n      mload(0x40)\n      tag_34\n      swap2\n      swap1\n      tag_14\n      jump\t// in\n    tag_34:\n      mload(0x40)\n      dup1\n      swap2\n      sub\n      swap1\n      return\n        /* \"contracts/Practicals/Calculator.sol\":327:432  function multiply(uint256 _a, uint256 _b) public pure returns (uint256) {... */\n    tag_12:\n        /* \"contracts/Practicals/Calculator.sol\":390:397  uint256 */\n      0x00\n        /* \"contracts/Practicals/Calculator.sol\":422:424  _b */\n      dup2\n        /* \"contracts/Practicals/Calculator.sol\":417:419  _a */\n      dup4\n        /* \"contracts/Practicals/Calculator.sol\":417:424  _a * _b */\n      tag_36\n      swap2\n      swap1\n      tag_37\n      jump\t// in\n    tag_36:\n        /* \"contracts/Practicals/Calculator.sol\":410:424  return _a * _b */\n      swap1\n      pop\n        /* \"contracts/Practicals/Calculator.sol\":327:432  function multiply(uint256 _a, uint256 _b) public pure returns (uint256) {... */\n      swap3\n      swap2\n      pop\n      pop\n      jump\t// out\n        /* \"contracts/Practicals/Calculator.sol\":209:314  function subtract(uint256 _a, uint256 _b) public pure returns (uint256) {... */\n    tag_17:\n        /* \"contracts/Practicals/Calculator.sol\":272:279  uint256 */\n      0x00\n        /* \"contracts/Practicals/Calculator.sol\":304:306  _b */\n      dup2\n        /* \"contracts/Practicals/Calculator.sol\":299:301  _a */\n      dup4\n        /* \"contracts/Practicals/Calculator.sol\":299:306  _a - _b */\n      tag_39\n      swap2\n      swap1\n      tag_40\n      jump\t// in\n    tag_39:\n        /* \"contracts/Practicals/Calculator.sol\":292:306  return _a - _b */\n      swap1\n      pop\n        /* \"contracts/Practicals/Calculator.sol\":209:314  function subtract(uint256 _a, uint256 _b) public pure returns (uint256) {... */\n      swap3\n      swap2\n      pop\n      pop\n      jump\t// out\n        /* \"contracts/Practicals/Calculator.sol\":801:1020  function exponentiate(uint256 _a, uint256 _b) public pure returns (uint256) {... */\n    tag_21:\n        /* \"contracts/Practicals/Calculator.sol\":868:875  uint256 */\n      0x00\n        /* \"contracts/Practicals/Calculator.sol\":888:902  uint256 result */\n      dup1\n        /* \"contracts/Practicals/Calculator.sol\":905:906  1 */\n      0x01\n        /* \"contracts/Practicals/Calculator.sol\":888:906  uint256 result = 1 */\n      swap1\n      pop\n        /* \"contracts/Practicals/Calculator.sol\":922:931  uint256 i */\n      0x00\n        /* \"contracts/Practicals/Calculator.sol\":917:989  for (uint256 i = 0; i < _b; i++) {... */\n    tag_42:\n        /* \"contracts/Practicals/Calculator.sol\":941:943  _b */\n      dup4\n        /* \"contracts/Practicals/Calculator.sol\":937:938  i */\n      dup2\n        /* \"contracts/Practicals/Calculator.sol\":937:943  i < _b */\n      lt\n        /* \"contracts/Practicals/Calculator.sol\":917:989  for (uint256 i = 0; i < _b; i++) {... */\n      iszero\n      tag_43\n      jumpi\n        /* \"contracts/Practicals/Calculator.sol\":975:977  _a */\n      dup5\n        /* \"contracts/Practicals/Calculator.sol\":965:977  result *= _a */\n      dup3\n      tag_45\n      swap2\n      swap1\n      tag_37\n      jump\t// in\n    tag_45:\n      swap2\n      pop\n        /* \"contracts/Practicals/Calculator.sol\":945:948  i++ */\n      dup1\n      dup1\n      0x01\n      add\n      swap2\n      pop\n      pop\n        /* \"contracts/Practicals/Calculator.sol\":917:989  for (uint256 i = 0; i < _b; i++) {... */\n      jump(tag_42)\n    tag_43:\n      pop\n        /* \"contracts/Practicals/Calculator.sol\":1006:1012  result */\n      dup1\n        /* \"contracts/Practicals/Calculator.sol\":999:1012  return result */\n      swap2\n      pop\n      pop\n        /* \"contracts/Practicals/Calculator.sol\":801:1020  function exponentiate(uint256 _a, uint256 _b) public pure returns (uint256) {... */\n      swap3\n      swap2\n      pop\n      pop\n      jump\t// out\n        /* \"contracts/Practicals/Calculator.sol\":96:196  function add(uint256 _a, uint256 _b) public pure returns (uint256) {... */\n    tag_25:\n        /* \"contracts/Practicals/Calculator.sol\":154:161  uint256 */\n      0x00\n        /* \"contracts/Practicals/Calculator.sol\":186:188  _b */\n      dup2\n        /* \"contracts/Practicals/Calculator.sol\":181:183  _a */\n      dup4\n        /* \"contracts/Practicals/Calculator.sol\":181:188  _a + _b */\n      tag_47\n      swap2\n      swap1\n      tag_48\n      jump\t// in\n    tag_47:\n        /* \"contracts/Practicals/Calculator.sol\":174:188  return _a + _b */\n      swap1\n      pop\n        /* \"contracts/Practicals/Calculator.sol\":96:196  function add(uint256 _a, uint256 _b) public pure returns (uint256) {... */\n      swap3\n      swap2\n      pop\n      pop\n      jump\t// out\n        /* \"contracts/Practicals/Calculator.sol\":623:788  function modulus(uint256 _a, uint256 _b) public pure returns (uint256) {... */\n    tag_29:\n        /* \"contracts/Practicals/Calculator.sol\":685:692  uint256 */\n      0x00\n        /* \"contracts/Practicals/Calculator.sol\":719:720  0 */\n      dup1\n        /* \"contracts/Practicals/Calculator.sol\":713:715  _b */\n      dup3\n        /* \"contracts/Practicals/Calculator.sol\":713:720  _b != 0 */\n      sub\n        /* \"contracts/Practicals/Calculator.sol\":705:755  require(_b != 0, \"Modulus by zero is not allowed\") */\n      tag_50\n      jumpi\n      mload(0x40)\n      0x08c379a000000000000000000000000000000000000000000000000000000000\n      dup2\n      mstore\n      0x04\n      add\n      tag_51\n      swap1\n      tag_52\n      jump\t// in\n    tag_51:\n      mload(0x40)\n      dup1\n      swap2\n      sub\n      swap1\n      revert\n    tag_50:\n        /* \"contracts/Practicals/Calculator.sol\":778:780  _b */\n      dup2\n        /* \"contracts/Practicals/Calculator.sol\":773:775  _a */\n      dup4\n        /* \"contracts/Practicals/Calculator.sol\":773:780  _a % _b */\n      tag_53\n      swap2\n      swap1\n      tag_54\n      jump\t// in\n    tag_53:\n        /* \"contracts/Practicals/Calculator.sol\":766:780  return _a % _b */\n      swap1\n      pop\n        /* \"contracts/Practicals/Calculator.sol\":623:788  function modulus(uint256 _a, uint256 _b) public pure returns (uint256) {... */\n      swap3\n      swap2\n      pop\n      pop\n      jump\t// out\n        /* \"contracts/Practicals/Calculator.sol\":445:610  function divide(uint256 _a, uint256 _b) public pure returns (uint256) {... */\n    tag_33:\n        /* \"contracts/Practicals/Calculator.sol\":506:513  uint256 */\n      0x00\n        /* \"contracts/Practicals/Calculator.sol\":540:541  0 */\n      dup1\n        /* \"contracts/Practicals/Calculator.sol\":534:536  _b */\n      dup3\n        /* \"contracts/Practicals/Calculator.sol\":534:541  _b != 0 */\n      sub\n        /* \"contracts/Practicals/Calculator.sol\":526:577  require(_b != 0, \"Division by zero is not allowed\") */\n      tag_56\n      jumpi\n      mload(0x40)\n      0x08c379a000000000000000000000000000000000000000000000000000000000\n      dup2\n      mstore\n      0x04\n      add\n      tag_57\n      swap1\n      tag_58\n      jump\t// in\n    tag_57:\n      mload(0x40)\n      dup1\n      swap2\n      sub\n      swap1\n      revert\n    tag_56:\n        /* \"contracts/Practicals/Calculator.sol\":600:602  _b */\n      dup2\n        /* \"contracts/Practicals/Calculator.sol\":595:597  _a */\n      dup4\n        /* \"contracts/Practicals/Calculator.sol\":595:602  _a / _b */\n      tag_59\n      swap2\n      swap1\n      tag_60\n      jump\t// in\n    tag_59:\n        /* \"contracts/Practicals/Calculator.sol\":588:602  return _a / _b */\n      swap1\n      pop\n        /* \"contracts/Practicals/Calculator.sol\":445:610  function divide(uint256 _a, uint256 _b) public pure returns (uint256) {... */\n      swap3\n      swap2\n      pop\n      pop\n      jump\t// out\n        /* \"#utility.yul\":88:205   */\n    tag_62:\n        /* \"#utility.yul\":197:198   */\n      0x00\n        /* \"#utility.yul\":194:195   */\n      dup1\n        /* \"#utility.yul\":187:199   */\n      revert\n        /* \"#utility.yul\":334:411   */\n    tag_64:\n        /* \"#utility.yul\":371:378   */\n      0x00\n        /* \"#utility.yul\":400:405   */\n      dup2\n        /* \"#utility.yul\":389:405   */\n      swap1\n      pop\n        /* \"#utility.yul\":334:411   */\n      swap2\n      swap1\n      pop\n      jump\t// out\n        /* \"#utility.yul\":417:539   */\n    tag_65:\n        /* \"#utility.yul\":490:514   */\n      tag_81\n        /* \"#utility.yul\":508:513   */\n      dup2\n        /* \"#utility.yul\":490:514   */\n      tag_64\n      jump\t// in\n    tag_81:\n        /* \"#utility.yul\":483:488   */\n      dup2\n        /* \"#utility.yul\":480:515   */\n      eq\n        /* \"#utility.yul\":470:533   */\n      tag_82\n      jumpi\n        /* \"#utility.yul\":529:530   */\n      0x00\n        /* \"#utility.yul\":526:527   */\n      dup1\n        /* \"#utility.yul\":519:531   */\n      revert\n        /* \"#utility.yul\":470:533   */\n    tag_82:\n        /* \"#utility.yul\":417:539   */\n      pop\n      jump\t// out\n        /* \"#utility.yul\":545:684   */\n    tag_66:\n        /* \"#utility.yul\":591:596   */\n      0x00\n        /* \"#utility.yul\":629:635   */\n      dup2\n        /* \"#utility.yul\":616:636   */\n      calldataload\n        /* \"#utility.yul\":607:636   */\n      swap1\n      pop\n        /* \"#utility.yul\":645:678   */\n      tag_84\n        /* \"#utility.yul\":672:677   */\n      dup2\n        /* \"#utility.yul\":645:678   */\n      tag_65\n      jump\t// in\n    tag_84:\n        /* \"#utility.yul\":545:684   */\n      swap3\n      swap2\n      pop\n      pop\n      jump\t// out\n        /* \"#utility.yul\":690:1164   */\n    tag_11:\n        /* \"#utility.yul\":758:764   */\n      0x00\n        /* \"#utility.yul\":766:772   */\n      dup1\n        /* \"#utility.yul\":815:817   */\n      0x40\n        /* \"#utility.yul\":803:812   */\n      dup4\n        /* \"#utility.yul\":794:801   */\n      dup6\n        /* \"#utility.yul\":790:813   */\n      sub\n        /* \"#utility.yul\":786:818   */\n      slt\n        /* \"#utility.yul\":783:902   */\n      iszero\n      tag_86\n      jumpi\n        /* \"#utility.yul\":821:900   */\n      tag_87\n      tag_62\n      jump\t// in\n    tag_87:\n        /* \"#utility.yul\":783:902   */\n    tag_86:\n        /* \"#utility.yul\":941:942   */\n      0x00\n        /* \"#utility.yul\":966:1019   */\n      tag_88\n        /* \"#utility.yul\":1011:1018   */\n      dup6\n        /* \"#utility.yul\":1002:1008   */\n      dup3\n        /* \"#utility.yul\":991:1000   */\n      dup7\n        /* \"#utility.yul\":987:1009   */\n      add\n        /* \"#utility.yul\":966:1019   */\n      tag_66\n      jump\t// in\n    tag_88:\n        /* \"#utility.yul\":956:1019   */\n      swap3\n      pop\n        /* \"#utility.yul\":912:1029   */\n      pop\n        /* \"#utility.yul\":1068:1070   */\n      0x20\n        /* \"#utility.yul\":1094:1147   */\n      tag_89\n        /* \"#utility.yul\":1139:1146   */\n      dup6\n        /* \"#utility.yul\":1130:1136   */\n      dup3\n        /* \"#utility.yul\":1119:1128   */\n      dup7\n        /* \"#utility.yul\":1115:1137   */\n      add\n        /* \"#utility.yul\":1094:1147   */\n      tag_66\n      jump\t// in\n    tag_89:\n        /* \"#utility.yul\":1084:1147   */\n      swap2\n      pop\n        /* \"#utility.yul\":1039:1157   */\n      pop\n        /* \"#utility.yul\":690:1164   */\n      swap3\n      pop\n      swap3\n      swap1\n      pop\n      jump\t// out\n        /* \"#utility.yul\":1170:1288   */\n    tag_67:\n        /* \"#utility.yul\":1257:1281   */\n      tag_91\n        /* \"#utility.yul\":1275:1280   */\n      dup2\n        /* \"#utility.yul\":1257:1281   */\n      tag_64\n      jump\t// in\n    tag_91:\n        /* \"#utility.yul\":1252:1255   */\n      dup3\n        /* \"#utility.yul\":1245:1282   */\n      mstore\n        /* \"#utility.yul\":1170:1288   */\n      pop\n      pop\n      jump\t// out\n        /* \"#utility.yul\":1294:1516   */\n    tag_14:\n        /* \"#utility.yul\":1387:1391   */\n      0x00\n        /* \"#utility.yul\":1425:1427   */\n      0x20\n        /* \"#utility.yul\":1414:1423   */\n      dup3\n        /* \"#utility.yul\":1410:1428   */\n      add\n        /* \"#utility.yul\":1402:1428   */\n      swap1\n      pop\n        /* \"#utility.yul\":1438:1509   */\n      tag_93\n        /* \"#utility.yul\":1506:1507   */\n      0x00\n        /* \"#utility.yul\":1495:1504   */\n      dup4\n        /* \"#utility.yul\":1491:1508   */\n      add\n        /* \"#utility.yul\":1482:1488   */\n      dup5\n        /* \"#utility.yul\":1438:1509   */\n      tag_67\n      jump\t// in\n    tag_93:\n        /* \"#utility.yul\":1294:1516   */\n      swap3\n      swap2\n      pop\n      pop\n      jump\t// out\n        /* \"#utility.yul\":1522:1702   */\n    tag_68:\n        /* \"#utility.yul\":1570:1647   */\n      0x4e487b7100000000000000000000000000000000000000000000000000000000\n        /* \"#utility.yul\":1567:1568   */\n      0x00\n        /* \"#utility.yul\":1560:1648   */\n      mstore\n        /* \"#utility.yul\":1667:1671   */\n      0x11\n        /* \"#utility.yul\":1664:1665   */\n      0x04\n        /* \"#utility.yul\":1657:1672   */\n      mstore\n        /* \"#utility.yul\":1691:1695   */\n      0x24\n        /* \"#utility.yul\":1688:1689   */\n      0x00\n        /* \"#utility.yul\":1681:1696   */\n      revert\n        /* \"#utility.yul\":1708:2118   */\n    tag_37:\n        /* \"#utility.yul\":1748:1755   */\n      0x00\n        /* \"#utility.yul\":1771:1791   */\n      tag_96\n        /* \"#utility.yul\":1789:1790   */\n      dup3\n        /* \"#utility.yul\":1771:1791   */\n      tag_64\n      jump\t// in\n    tag_96:\n        /* \"#utility.yul\":1766:1791   */\n      swap2\n      pop\n        /* \"#utility.yul\":1805:1825   */\n      tag_97\n        /* \"#utility.yul\":1823:1824   */\n      dup4\n        /* \"#utility.yul\":1805:1825   */\n      tag_64\n      jump\t// in\n    tag_97:\n        /* \"#utility.yul\":1800:1825   */\n      swap3\n      pop\n        /* \"#utility.yul\":1860:1861   */\n      dup3\n        /* \"#utility.yul\":1857:1858   */\n      dup3\n        /* \"#utility.yul\":1853:1862   */\n      mul\n        /* \"#utility.yul\":1882:1912   */\n      tag_98\n        /* \"#utility.yul\":1900:1911   */\n      dup2\n        /* \"#utility.yul\":1882:1912   */\n      tag_64\n      jump\t// in\n    tag_98:\n        /* \"#utility.yul\":1871:1912   */\n      swap2\n      pop\n        /* \"#utility.yul\":2061:2062   */\n      dup3\n        /* \"#utility.yul\":2052:2059   */\n      dup3\n        /* \"#utility.yul\":2048:2063   */\n      div\n        /* \"#utility.yul\":2045:2046   */\n      dup5\n        /* \"#utility.yul\":2042:2064   */\n      eq\n        /* \"#utility.yul\":2022:2023   */\n      dup4\n        /* \"#utility.yul\":2015:2024   */\n      iszero\n        /* \"#utility.yul\":1995:2078   */\n      or\n        /* \"#utility.yul\":1972:2111   */\n      tag_99\n      jumpi\n        /* \"#utility.yul\":2091:2109   */\n      tag_100\n      tag_68\n      jump\t// in\n    tag_100:\n        /* \"#utility.yul\":1972:2111   */\n    tag_99:\n        /* \"#utility.yul\":1756:2118   */\n      pop\n        /* \"#utility.yul\":1708:2118   */\n      swap3\n      swap2\n      pop\n      pop\n      jump\t// out\n        /* \"#utility.yul\":2124:2318   */\n    tag_40:\n        /* \"#utility.yul\":2164:2168   */\n      0x00\n        /* \"#utility.yul\":2184:2204   */\n      tag_102\n        /* \"#utility.yul\":2202:2203   */\n      dup3\n        /* \"#utility.yul\":2184:2204   */\n      tag_64\n      jump\t// in\n    tag_102:\n        /* \"#utility.yul\":2179:2204   */\n      swap2\n      pop\n        /* \"#utility.yul\":2218:2238   */\n      tag_103\n        /* \"#utility.yul\":2236:2237   */\n      dup4\n        /* \"#utility.yul\":2218:2238   */\n      tag_64\n      jump\t// in\n    tag_103:\n        /* \"#utility.yul\":2213:2238   */\n      swap3\n      pop\n        /* \"#utility.yul\":2262:2263   */\n      dup3\n        /* \"#utility.yul\":2259:2260   */\n      dup3\n        /* \"#utility.yul\":2255:2264   */\n      sub\n        /* \"#utility.yul\":2247:2264   */\n      swap1\n      pop\n        /* \"#utility.yul\":2286:2287   */\n      dup2\n        /* \"#utility.yul\":2280:2284   */\n      dup2\n        /* \"#utility.yul\":2277:2288   */\n      gt\n        /* \"#utility.yul\":2274:2311   */\n      iszero\n      tag_104\n      jumpi\n        /* \"#utility.yul\":2291:2309   */\n      tag_105\n      tag_68\n      jump\t// in\n    tag_105:\n        /* \"#utility.yul\":2274:2311   */\n    tag_104:\n        /* \"#utility.yul\":2124:2318   */\n      swap3\n      swap2\n      pop\n      pop\n      jump\t// out\n        /* \"#utility.yul\":2324:2515   */\n    tag_48:\n        /* \"#utility.yul\":2364:2367   */\n      0x00\n        /* \"#utility.yul\":2383:2403   */\n      tag_107\n        /* \"#utility.yul\":2401:2402   */\n      dup3\n        /* \"#utility.yul\":2383:2403   */\n      tag_64\n      jump\t// in\n    tag_107:\n        /* \"#utility.yul\":2378:2403   */\n      swap2\n      pop\n        /* \"#utility.yul\":2417:2437   */\n      tag_108\n        /* \"#utility.yul\":2435:2436   */\n      dup4\n        /* \"#utility.yul\":2417:2437   */\n      tag_64\n      jump\t// in\n    tag_108:\n        /* \"#utility.yul\":2412:2437   */\n      swap3\n      pop\n        /* \"#utility.yul\":2460:2461   */\n      dup3\n        /* \"#utility.yul\":2457:2458   */\n      dup3\n        /* \"#utility.yul\":2453:2462   */\n      add\n        /* \"#utility.yul\":2446:2462   */\n      swap1\n      pop\n        /* \"#utility.yul\":2481:2484   */\n      dup1\n        /* \"#utility.yul\":2478:2479   */\n      dup3\n        /* \"#utility.yul\":2475:2485   */\n      gt\n        /* \"#utility.yul\":2472:2508   */\n      iszero\n      tag_109\n      jumpi\n        /* \"#utility.yul\":2488:2506   */\n      tag_110\n      tag_68\n      jump\t// in\n    tag_110:\n        /* \"#utility.yul\":2472:2508   */\n    tag_109:\n        /* \"#utility.yul\":2324:2515   */\n      swap3\n      swap2\n      pop\n      pop\n      jump\t// out\n        /* \"#utility.yul\":2521:2690   */\n    tag_69:\n        /* \"#utility.yul\":2605:2616   */\n      0x00\n        /* \"#utility.yul\":2639:2645   */\n      dup3\n        /* \"#utility.yul\":2634:2637   */\n      dup3\n        /* \"#utility.yul\":2627:2646   */\n      mstore\n        /* \"#utility.yul\":2679:2683   */\n      0x20\n        /* \"#utility.yul\":2674:2677   */\n      dup3\n        /* \"#utility.yul\":2670:2684   */\n      add\n        /* \"#utility.yul\":2655:2684   */\n      swap1\n      pop\n        /* \"#utility.yul\":2521:2690   */\n      swap3\n      swap2\n      pop\n      pop\n      jump\t// out\n        /* \"#utility.yul\":2696:2876   */\n    tag_70:\n        /* \"#utility.yul\":2836:2868   */\n      0x4d6f64756c7573206279207a65726f206973206e6f7420616c6c6f7765640000\n        /* \"#utility.yul\":2832:2833   */\n      0x00\n        /* \"#utility.yul\":2824:2830   */\n      dup3\n        /* \"#utility.yul\":2820:2834   */\n      add\n        /* \"#utility.yul\":2813:2869   */\n      mstore\n        /* \"#utility.yul\":2696:2876   */\n      pop\n      jump\t// out\n        /* \"#utility.yul\":2882:3248   */\n    tag_71:\n        /* \"#utility.yul\":3024:3027   */\n      0x00\n        /* \"#utility.yul\":3045:3112   */\n      tag_114\n        /* \"#utility.yul\":3109:3111   */\n      0x1e\n        /* \"#utility.yul\":3104:3107   */\n      dup4\n        /* \"#utility.yul\":3045:3112   */\n      tag_69\n      jump\t// in\n    tag_114:\n        /* \"#utility.yul\":3038:3112   */\n      swap2\n      pop\n        /* \"#utility.yul\":3121:3214   */\n      tag_115\n        /* \"#utility.yul\":3210:3213   */\n      dup3\n        /* \"#utility.yul\":3121:3214   */\n      tag_70\n      jump\t// in\n    tag_115:\n        /* \"#utility.yul\":3239:3241   */\n      0x20\n        /* \"#utility.yul\":3234:3237   */\n      dup3\n        /* \"#utility.yul\":3230:3242   */\n      add\n        /* \"#utility.yul\":3223:3242   */\n      swap1\n      pop\n        /* \"#utility.yul\":2882:3248   */\n      swap2\n      swap1\n      pop\n      jump\t// out\n        /* \"#utility.yul\":3254:3673   */\n    tag_52:\n        /* \"#utility.yul\":3420:3424   */\n      0x00\n        /* \"#utility.yul\":3458:3460   */\n      0x20\n        /* \"#utility.yul\":3447:3456   */\n      dup3\n        /* \"#utility.yul\":3443:3461   */\n      add\n        /* \"#utility.yul\":3435:3461   */\n      swap1\n      pop\n        /* \"#utility.yul\":3507:3516   */\n      dup2\n        /* \"#utility.yul\":3501:3505   */\n      dup2\n        /* \"#utility.yul\":3497:3517   */\n      sub\n        /* \"#utility.yul\":3493:3494   */\n      0x00\n        /* \"#utility.yul\":3482:3491   */\n      dup4\n        /* \"#utility.yul\":3478:3495   */\n      add\n        /* \"#utility.yul\":3471:3518   */\n      mstore\n        /* \"#utility.yul\":3535:3666   */\n      tag_117\n        /* \"#utility.yul\":3661:3665   */\n      dup2\n        /* \"#utility.yul\":3535:3666   */\n      tag_71\n      jump\t// in\n    tag_117:\n        /* \"#utility.yul\":3527:3666   */\n      swap1\n      pop\n        /* \"#utility.yul\":3254:3673   */\n      swap2\n      swap1\n      pop\n      jump\t// out\n        /* \"#utility.yul\":3679:3859   */\n    tag_72:\n        /* \"#utility.yul\":3727:3804   */\n      0x4e487b7100000000000000000000000000000000000000000000000000000000\n        /* \"#utility.yul\":3724:3725   */\n      0x00\n        /* \"#utility.yul\":3717:3805   */\n      mstore\n        /* \"#utility.yul\":3824:3828   */\n      0x12\n        /* \"#utility.yul\":3821:3822   */\n      0x04\n        /* \"#utility.yul\":3814:3829   */\n      mstore\n        /* \"#utility.yul\":3848:3852   */\n      0x24\n        /* \"#utility.yul\":3845:3846   */\n      0x00\n        /* \"#utility.yul\":3838:3853   */\n      revert\n        /* \"#utility.yul\":3865:4041   */\n    tag_54:\n        /* \"#utility.yul\":3897:3898   */\n      0x00\n        /* \"#utility.yul\":3914:3934   */\n      tag_120\n        /* \"#utility.yul\":3932:3933   */\n      dup3\n        /* \"#utility.yul\":3914:3934   */\n      tag_64\n      jump\t// in\n    tag_120:\n        /* \"#utility.yul\":3909:3934   */\n      swap2\n      pop\n        /* \"#utility.yul\":3948:3968   */\n      tag_121\n        /* \"#utility.yul\":3966:3967   */\n      dup4\n        /* \"#utility.yul\":3948:3968   */\n      tag_64\n      jump\t// in\n    tag_121:\n        /* \"#utility.yul\":3943:3968   */\n      swap3\n      pop\n        /* \"#utility.yul\":3987:3988   */\n      dup3\n        /* \"#utility.yul\":3977:4012   */\n      tag_122\n      jumpi\n        /* \"#utility.yul\":3992:4010   */\n      tag_123\n      tag_72\n      jump\t// in\n    tag_123:\n        /* \"#utility.yul\":3977:4012   */\n    tag_122:\n        /* \"#utility.yul\":4033:4034   */\n      dup3\n        /* \"#utility.yul\":4030:4031   */\n      dup3\n        /* \"#utility.yul\":4026:4035   */\n      mod\n        /* \"#utility.yul\":4021:4035   */\n      swap1\n      pop\n        /* \"#utility.yul\":3865:4041   */\n      swap3\n      swap2\n      pop\n      pop\n      jump\t// out\n        /* \"#utility.yul\":4047:4228   */\n    tag_73:\n        /* \"#utility.yul\":4187:4220   */\n      0x4469766973696f6e206279207a65726f206973206e6f7420616c6c6f77656400\n        /* \"#utility.yul\":4183:4184   */\n      0x00\n        /* \"#utility.yul\":4175:4181   */\n      dup3\n        /* \"#utility.yul\":4171:4185   */\n      add\n        /* \"#utility.yul\":4164:4221   */\n      mstore\n        /* \"#utility.yul\":4047:4228   */\n      pop\n      jump\t// out\n        /* \"#utility.yul\":4234:4600   */\n    tag_74:\n        /* \"#utility.yul\":4376:4379   */\n      0x00\n        /* \"#utility.yul\":4397:4464   */\n      tag_126\n        /* \"#utility.yul\":4461:4463   */\n      0x1f\n        /* \"#utility.yul\":4456:4459   */\n      dup4\n        /* \"#utility.yul\":4397:4464   */\n      tag_69\n      jump\t// in\n    tag_126:\n        /* \"#utility.yul\":4390:4464   */\n      swap2\n      pop\n        /* \"#utility.yul\":4473:4566   */\n      tag_127\n        /* \"#utility.yul\":4562:4565   */\n      dup3\n        /* \"#utility.yul\":4473:4566   */\n      tag_73\n      jump\t// in\n    tag_127:\n        /* \"#utility.yul\":4591:4593   */\n      0x20\n        /* \"#utility.yul\":4586:4589   */\n      dup3\n        /* \"#utility.yul\":4582:4594   */\n      add\n        /* \"#utility.yul\":4575:4594   */\n      swap1\n      pop\n        /* \"#utility.yul\":4234:4600   */\n      swap2\n      swap1\n      pop\n      jump\t// out\n        /* \"#utility.yul\":4606:5025   */\n    tag_58:\n        /* \"#utility.yul\":4772:4776   */\n      0x00\n        /* \"#utility.yul\":4810:4812   */\n      0x20\n        /* \"#utility.yul\":4799:4808   */\n      dup3\n        /* \"#utility.yul\":4795:4813   */\n      add\n        /* \"#utility.yul\":4787:4813   */\n      swap1\n      pop\n        /* \"#utility.yul\":4859:4868   */\n      dup2\n        /* \"#utility.yul\":4853:4857   */\n      dup2\n        /* \"#utility.yul\":4849:4869   */\n      sub\n        /* \"#utility.yul\":4845:4846   */\n      0x00\n        /* \"#utility.yul\":4834:4843   */\n      dup4\n        /* \"#utility.yul\":4830:4847   */\n      add\n        /* \"#utility.yul\":4823:4870   */\n      mstore\n        /* \"#utility.yul\":4887:5018   */\n      tag_129\n        /* \"#utility.yul\":5013:5017   */\n      dup2\n        /* \"#utility.yul\":4887:5018   */\n      tag_74\n      jump\t// in\n    tag_129:\n        /* \"#utility.yul\":4879:5018   */\n      swap1\n      pop\n        /* \"#utility.yul\":4606:5025   */\n      swap2\n      swap1\n      pop\n      jump\t// out\n        /* \"#utility.yul\":5031:5216   */\n    tag_60:\n        /* \"#utility.yul\":5071:5072   */\n      0x00\n        /* \"#utility.yul\":5088:5108   */\n      tag_131\n        /* \"#utility.yul\":5106:5107   */\n      dup3\n        /* \"#utility.yul\":5088:5108   */\n      tag_64\n      jump\t// in\n    tag_131:\n        /* \"#utility.yul\":5083:5108   */\n      swap2\n      pop\n        /* \"#utility.yul\":5122:5142   */\n      tag_132\n        /* \"#utility.yul\":5140:5141   */\n      dup4\n        /* \"#utility.yul\":5122:5142   */\n      tag_64\n      jump\t// in\n    tag_132:\n        /* \"#utility.yul\":5117:5142   */\n      swap3\n      pop\n        /* \"#utility.yul\":5161:5162   */\n      dup3\n        /* \"#utility.yul\":5151:5186   */\n      tag_133\n      jumpi\n        /* \"#utility.yul\":5166:5184   */\n      tag_134\n      tag_72\n      jump\t// in\n    tag_134:\n        /* \"#utility.yul\":5151:5186   */\n    tag_133:\n        /* \"#utility.yul\":5208:5209   */\n      dup3\n        /* \"#utility.yul\":5205:5206   */\n      dup3\n        /* \"#utility.yul\":5201:5210   */\n      div\n        /* \"#utility.yul\":5196:5210   */\n      swap1\n      pop\n        /* \"#utility.yul\":5031:5216   */\n      swap3\n      swap2\n      pop\n      pop\n      jump\t// out\n\n    auxdata: 0xa26469706673582212204aa9330418e147034d95b5bc47d86abc35738d682a67b0d9ac8135402f70cb5f64736f6c634300081a0033\n}\n",
				"bytecode": {
					"linkReferences": {},
					"object": "6080604052348015600e575f80fd5b506105bb8061001c5f395ff3fe608060405234801561000f575f80fd5b5060043610610060575f3560e01c8063165c4a16146100645780633ef5e4451461009457806372931904146100c4578063771602f7146100f4578063ce40641714610124578063f88e9fbf14610154575b5f80fd5b61007e600480360381019061007991906102de565b610184565b60405161008b919061032b565b60405180910390f35b6100ae60048036038101906100a991906102de565b610199565b6040516100bb919061032b565b60405180910390f35b6100de60048036038101906100d991906102de565b6101ae565b6040516100eb919061032b565b60405180910390f35b61010e600480360381019061010991906102de565b6101e4565b60405161011b919061032b565b60405180910390f35b61013e600480360381019061013991906102de565b6101f9565b60405161014b919061032b565b60405180910390f35b61016e600480360381019061016991906102de565b610250565b60405161017b919061032b565b60405180910390f35b5f81836101919190610371565b905092915050565b5f81836101a691906103b2565b905092915050565b5f80600190505f5b838110156101d95784826101ca9190610371565b915080806001019150506101b6565b508091505092915050565b5f81836101f191906103e5565b905092915050565b5f80820361023c576040517f08c379a000000000000000000000000000000000000000000000000000000000815260040161023390610472565b60405180910390fd5b818361024891906104bd565b905092915050565b5f808203610293576040517f08c379a000000000000000000000000000000000000000000000000000000000815260040161028a90610537565b60405180910390fd5b818361029f9190610555565b905092915050565b5f80fd5b5f819050919050565b6102bd816102ab565b81146102c7575f80fd5b50565b5f813590506102d8816102b4565b92915050565b5f80604083850312156102f4576102f36102a7565b5b5f610301858286016102ca565b9250506020610312858286016102ca565b9150509250929050565b610325816102ab565b82525050565b5f60208201905061033e5f83018461031c565b92915050565b7f4e487b71000000000000000000000000000000000000000000000000000000005f52601160045260245ffd5b5f61037b826102ab565b9150610386836102ab565b9250828202610394816102ab565b915082820484148315176103ab576103aa610344565b5b5092915050565b5f6103bc826102ab565b91506103c7836102ab565b92508282039050818111156103df576103de610344565b5b92915050565b5f6103ef826102ab565b91506103fa836102ab565b925082820190508082111561041257610411610344565b5b92915050565b5f82825260208201905092915050565b7f4d6f64756c7573206279207a65726f206973206e6f7420616c6c6f77656400005f82015250565b5f61045c601e83610418565b915061046782610428565b602082019050919050565b5f6020820190508181035f83015261048981610450565b9050919050565b7f4e487b71000000000000000000000000000000000000000000000000000000005f52601260045260245ffd5b5f6104c7826102ab565b91506104d2836102ab565b9250826104e2576104e1610490565b5b828206905092915050565b7f4469766973696f6e206279207a65726f206973206e6f7420616c6c6f776564005f82015250565b5f610521601f83610418565b915061052c826104ed565b602082019050919050565b5f6020820190508181035f83015261054e81610515565b9050919050565b5f61055f826102ab565b915061056a836102ab565b92508261057a57610579610490565b5b82820490509291505056fea26469706673582212204aa9330418e147034d95b5bc47d86abc35738d682a67b0d9ac8135402f70cb5f64736f6c634300081a0033",
					"opcodes": "PUSH1 0x80 PUSH1 0x40 MSTORE CALLVALUE DUP1 ISZERO PUSH1 0xE JUMPI PUSH0 DUP1 REVERT JUMPDEST POP PUSH2 0x5BB DUP1 PUSH2 0x1C PUSH0 CODECOPY PUSH0 RETURN INVALID PUSH1 0x80 PUSH1 0x40 MSTORE CALLVALUE DUP1 ISZERO PUSH2 0xF JUMPI PUSH0 DUP1 REVERT JUMPDEST POP PUSH1 0x4 CALLDATASIZE LT PUSH2 0x60 JUMPI PUSH0 CALLDATALOAD PUSH1 0xE0 SHR DUP1 PUSH4 0x165C4A16 EQ PUSH2 0x64 JUMPI DUP1 PUSH4 0x3EF5E445 EQ PUSH2 0x94 JUMPI DUP1 PUSH4 0x72931904 EQ PUSH2 0xC4 JUMPI DUP1 PUSH4 0x771602F7 EQ PUSH2 0xF4 JUMPI DUP1 PUSH4 0xCE406417 EQ PUSH2 0x124 JUMPI DUP1 PUSH4 0xF88E9FBF EQ PUSH2 0x154 JUMPI JUMPDEST PUSH0 DUP1 REVERT JUMPDEST PUSH2 0x7E PUSH1 0x4 DUP1 CALLDATASIZE SUB DUP2 ADD SWAP1 PUSH2 0x79 SWAP2 SWAP1 PUSH2 0x2DE JUMP JUMPDEST PUSH2 0x184 JUMP JUMPDEST PUSH1 0x40 MLOAD PUSH2 0x8B SWAP2 SWAP1 PUSH2 0x32B JUMP JUMPDEST PUSH1 0x40 MLOAD DUP1 SWAP2 SUB SWAP1 RETURN JUMPDEST PUSH2 0xAE PUSH1 0x4 DUP1 CALLDATASIZE SUB DUP2 ADD SWAP1 PUSH2 0xA9 SWAP2 SWAP1 PUSH2 0x2DE JUMP JUMPDEST PUSH2 0x199 JUMP JUMPDEST PUSH1 0x40 MLOAD PUSH2 0xBB SWAP2 SWAP1 PUSH2 0x32B JUMP JUMPDEST PUSH1 0x40 MLOAD DUP1 SWAP2 SUB SWAP1 RETURN JUMPDEST PUSH2 0xDE PUSH1 0x4 DUP1 CALLDATASIZE SUB DUP2 ADD SWAP1 PUSH2 0xD9 SWAP2 SWAP1 PUSH2 0x2DE JUMP JUMPDEST PUSH2 0x1AE JUMP JUMPDEST PUSH1 0x40 MLOAD PUSH2 0xEB SWAP2 SWAP1 PUSH2 0x32B JUMP JUMPDEST PUSH1 0x40 MLOAD DUP1 SWAP2 SUB SWAP1 RETURN JUMPDEST PUSH2 0x10E PUSH1 0x4 DUP1 CALLDATASIZE SUB DUP2 ADD SWAP1 PUSH2 0x109 SWAP2 SWAP1 PUSH2 0x2DE JUMP JUMPDEST PUSH2 0x1E4 JUMP JUMPDEST PUSH1 0x40 MLOAD PUSH2 0x11B SWAP2 SWAP1 PUSH2 0x32B JUMP JUMPDEST PUSH1 0x40 MLOAD DUP1 SWAP2 SUB SWAP1 RETURN JUMPDEST PUSH2 0x13E PUSH1 0x4 DUP1 CALLDATASIZE SUB DUP2 ADD SWAP1 PUSH2 0x139 SWAP2 SWAP1 PUSH2 0x2DE JUMP JUMPDEST PUSH2 0x1F9 JUMP JUMPDEST PUSH1 0x40 MLOAD PUSH2 0x14B SWAP2 SWAP1 PUSH2 0x32B JUMP JUMPDEST PUSH1 0x40 MLOAD DUP1 SWAP2 SUB SWAP1 RETURN JUMPDEST PUSH2 0x16E PUSH1 0x4 DUP1 CALLDATASIZE SUB DUP2 ADD SWAP1 PUSH2 0x169 SWAP2 SWAP1 PUSH2 0x2DE JUMP JUMPDEST PUSH2 0x250 JUMP JUMPDEST PUSH1 0x40 MLOAD PUSH2 0x17B SWAP2 SWAP1 PUSH2 0x32B JUMP JUMPDEST PUSH1 0x40 MLOAD DUP1 SWAP2 SUB SWAP1 RETURN JUMPDEST PUSH0 DUP2 DUP4 PUSH2 0x191 SWAP2 SWAP1 PUSH2 0x371 JUMP JUMPDEST SWAP1 POP SWAP3 SWAP2 POP POP JUMP JUMPDEST PUSH0 DUP2 DUP4 PUSH2 0x1A6 SWAP2 SWAP1 PUSH2 0x3B2 JUMP JUMPDEST SWAP1 POP SWAP3 SWAP2 POP POP JUMP JUMPDEST PUSH0 DUP1 PUSH1 0x1 SWAP1 POP PUSH0 JUMPDEST DUP4 DUP2 LT ISZERO PUSH2 0x1D9 JUMPI DUP5 DUP3 PUSH2 0x1CA SWAP2 SWAP1 PUSH2 0x371 JUMP JUMPDEST SWAP2 POP DUP1 DUP1 PUSH1 0x1 ADD SWAP2 POP POP PUSH2 0x1B6 JUMP JUMPDEST POP DUP1 SWAP2 POP POP SWAP3 SWAP2 POP POP JUMP JUMPDEST PUSH0 DUP2 DUP4 PUSH2 0x1F1 SWAP2 SWAP1 PUSH2 0x3E5 JUMP JUMPDEST SWAP1 POP SWAP3 SWAP2 POP POP JUMP JUMPDEST PUSH0 DUP1 DUP3 SUB PUSH2 0x23C JUMPI PUSH1 0x40 MLOAD PUSH32 0x8C379A000000000000000000000000000000000000000000000000000000000 DUP2 MSTORE PUSH1 0x4 ADD PUSH2 0x233 SWAP1 PUSH2 0x472 JUMP JUMPDEST PUSH1 0x40 MLOAD DUP1 SWAP2 SUB SWAP1 REVERT JUMPDEST DUP2 DUP4 PUSH2 0x248 SWAP2 SWAP1 PUSH2 0x4BD JUMP JUMPDEST SWAP1 POP SWAP3 SWAP2 POP POP JUMP JUMPDEST PUSH0 DUP1 DUP3 SUB PUSH2 0x293 JUMPI PUSH1 0x40 MLOAD PUSH32 0x8C379A000000000000000000000000000000000000000000000000000000000 DUP2 MSTORE PUSH1 0x4 ADD PUSH2 0x28A SWAP1 PUSH2 0x537 JUMP JUMPDEST PUSH1 0x40 MLOAD DUP1 SWAP2 SUB SWAP1 REVERT JUMPDEST DUP2 DUP4 PUSH2 0x29F SWAP2 SWAP1 PUSH2 0x555 JUMP JUMPDEST SWAP1 POP SWAP3 SWAP2 POP POP JUMP JUMPDEST PUSH0 DUP1 REVERT JUMPDEST PUSH0 DUP2 SWAP1 POP SWAP2 SWAP1 POP JUMP JUMPDEST PUSH2 0x2BD DUP2 PUSH2 0x2AB JUMP JUMPDEST DUP2 EQ PUSH2 0x2C7 JUMPI PUSH0 DUP1 REVERT JUMPDEST POP JUMP JUMPDEST PUSH0 DUP2 CALLDATALOAD SWAP1 POP PUSH2 0x2D8 DUP2 PUSH2 0x2B4 JUMP JUMPDEST SWAP3 SWAP2 POP POP JUMP JUMPDEST PUSH0 DUP1 PUSH1 0x40 DUP4 DUP6 SUB SLT ISZERO PUSH2 0x2F4 JUMPI PUSH2 0x2F3 PUSH2 0x2A7 JUMP JUMPDEST JUMPDEST PUSH0 PUSH2 0x301 DUP6 DUP3 DUP7 ADD PUSH2 0x2CA JUMP JUMPDEST SWAP3 POP POP PUSH1 0x20 PUSH2 0x312 DUP6 DUP3 DUP7 ADD PUSH2 0x2CA JUMP JUMPDEST SWAP2 POP POP SWAP3 POP SWAP3 SWAP1 POP JUMP JUMPDEST PUSH2 0x325 DUP2 PUSH2 0x2AB JUMP JUMPDEST DUP3 MSTORE POP POP JUMP JUMPDEST PUSH0 PUSH1 0x20 DUP3 ADD SWAP1 POP PUSH2 0x33E PUSH0 DUP4 ADD DUP5 PUSH2 0x31C JUMP JUMPDEST SWAP3 SWAP2 POP POP JUMP JUMPDEST PUSH32 0x4E487B7100000000000000000000000000000000000000000000000000000000 PUSH0 MSTORE PUSH1 0x11 PUSH1 0x4 MSTORE PUSH1 0x24 PUSH0 REVERT JUMPDEST PUSH0 PUSH2 0x37B DUP3 PUSH2 0x2AB JUMP JUMPDEST SWAP2 POP PUSH2 0x386 DUP4 PUSH2 0x2AB JUMP JUMPDEST SWAP3 POP DUP3 DUP3 MUL PUSH2 0x394 DUP2 PUSH2 0x2AB JUMP JUMPDEST SWAP2 POP DUP3 DUP3 DIV DUP5 EQ DUP4 ISZERO OR PUSH2 0x3AB JUMPI PUSH2 0x3AA PUSH2 0x344 JUMP JUMPDEST JUMPDEST POP SWAP3 SWAP2 POP POP JUMP JUMPDEST PUSH0 PUSH2 0x3BC DUP3 PUSH2 0x2AB JUMP JUMPDEST SWAP2 POP PUSH2 0x3C7 DUP4 PUSH2 0x2AB JUMP JUMPDEST SWAP3 POP DUP3 DUP3 SUB SWAP1 POP DUP2 DUP2 GT ISZERO PUSH2 0x3DF JUMPI PUSH2 0x3DE PUSH2 0x344 JUMP JUMPDEST JUMPDEST SWAP3 SWAP2 POP POP JUMP JUMPDEST PUSH0 PUSH2 0x3EF DUP3 PUSH2 0x2AB JUMP JUMPDEST SWAP2 POP PUSH2 0x3FA DUP4 PUSH2 0x2AB JUMP JUMPDEST SWAP3 POP DUP3 DUP3 ADD SWAP1 POP DUP1 DUP3 GT ISZERO PUSH2 0x412 JUMPI PUSH2 0x411 PUSH2 0x344 JUMP JUMPDEST JUMPDEST SWAP3 SWAP2 POP POP JUMP JUMPDEST PUSH0 DUP3 DUP3 MSTORE PUSH1 0x20 DUP3 ADD SWAP1 POP SWAP3 SWAP2 POP POP JUMP JUMPDEST PUSH32 0x4D6F64756C7573206279207A65726F206973206E6F7420616C6C6F7765640000 PUSH0 DUP3 ADD MSTORE POP JUMP JUMPDEST PUSH0 PUSH2 0x45C PUSH1 0x1E DUP4 PUSH2 0x418 JUMP JUMPDEST SWAP2 POP PUSH2 0x467 DUP3 PUSH2 0x428 JUMP JUMPDEST PUSH1 0x20 DUP3 ADD SWAP1 POP SWAP2 SWAP1 POP JUMP JUMPDEST PUSH0 PUSH1 0x20 DUP3 ADD SWAP1 POP DUP2 DUP2 SUB PUSH0 DUP4 ADD MSTORE PUSH2 0x489 DUP2 PUSH2 0x450 JUMP JUMPDEST SWAP1 POP SWAP2 SWAP1 POP JUMP JUMPDEST PUSH32 0x4E487B7100000000000000000000000000000000000000000000000000000000 PUSH0 MSTORE PUSH1 0x12 PUSH1 0x4 MSTORE PUSH1 0x24 PUSH0 REVERT JUMPDEST PUSH0 PUSH2 0x4C7 DUP3 PUSH2 0x2AB JUMP JUMPDEST SWAP2 POP PUSH2 0x4D2 DUP4 PUSH2 0x2AB JUMP JUMPDEST SWAP3 POP DUP3 PUSH2 0x4E2 JUMPI PUSH2 0x4E1 PUSH2 0x490 JUMP JUMPDEST JUMPDEST DUP3 DUP3 MOD SWAP1 POP SWAP3 SWAP2 POP POP JUMP JUMPDEST PUSH32 0x4469766973696F6E206279207A65726F206973206E6F7420616C6C6F77656400 PUSH0 DUP3 ADD MSTORE POP JUMP JUMPDEST PUSH0 PUSH2 0x521 PUSH1 0x1F DUP4 PUSH2 0x418 JUMP JUMPDEST SWAP2 POP PUSH2 0x52C DUP3 PUSH2 0x4ED JUMP JUMPDEST PUSH1 0x20 DUP3 ADD SWAP1 POP SWAP2 SWAP1 POP JUMP JUMPDEST PUSH0 PUSH1 0x20 DUP3 ADD SWAP1 POP DUP2 DUP2 SUB PUSH0 DUP4 ADD MSTORE PUSH2 0x54E DUP2 PUSH2 0x515 JUMP JUMPDEST SWAP1 POP SWAP2 SWAP1 POP JUMP JUMPDEST PUSH0 PUSH2 0x55F DUP3 PUSH2 0x2AB JUMP JUMPDEST SWAP2 POP PUSH2 0x56A DUP4 PUSH2 0x2AB JUMP JUMPDEST SWAP3 POP DUP3 PUSH2 0x57A JUMPI PUSH2 0x579 PUSH2 0x490 JUMP JUMPDEST JUMPDEST DUP3 DUP3 DIV SWAP1 POP SWAP3 SWAP2 POP POP JUMP INVALID LOG2 PUSH5 0x6970667358 0x22 SLT KECCAK256 BLOBBASEFEE 0xA9 CALLER DIV XOR 0xE1 SELFBALANCE SUB 0x4D SWAP6 0xB5 0xBC SELFBALANCE 0xD8 PUSH11 0xBC35738D682A67B0D9AC81 CALLDATALOAD BLOCKHASH 0x2F PUSH17 0xCB5F64736F6C634300081A003300000000 "
				},
				"gasEstimates": {
					"creation": {
						"codeDepositCost": "293400",
						"executionCost": "329",
						"totalCost": "293729"
					},
					"external": {
						"add(uint256,uint256)": "infinite",
						"divide(uint256,uint256)": "infinite",
						"exponentiate(uint256,uint256)": "infinite",
						"modulus(uint256,uint256)": "infinite",
						"multiply(uint256,uint256)": "infinite",
						"subtract(uint256,uint256)": "infinite"
					}
				},
				"methodIdentifiers": {
					"add(uint256,uint256)": "771602f7",
					"divide(uint256,uint256)": "f88e9fbf",
					"exponentiate(uint256,uint256)": "72931904",
					"modulus(uint256,uint256)": "ce406417",
					"multiply(uint256,uint256)": "165c4a16",
					"subtract(uint256,uint256)": "3ef5e445"
				}
			},
			"storageLayout": {
				"storage": [],
				"types": null
			},
			"userdoc": {
				"kind": "user",
				"methods": {},
				"version": 1
			}
		}
	}
}